:100000000C947D050C94A5050C94A5050C94A505F0
:100010000C94A5050C94A5050C94A5050C94A505B8
:100020000C94A5050C94A5050C94A5050C94A505A8
:100030000C94A5050C94A5050C94A5050C94A50598
:100040000C94D7120C94A5050C941F120C94F91162
:100050000C94A5050C94A5050C94A5050C94A50578
:100060000C94300C0C94A505DB40A4A62EAF200008
:10007000A1C8D300408DAED580A80000600000006C
:100080000000000000000000000000E00000000090
:1000900000000000000000000001E000000000007F
:1000A000000000000000000001F00000000000005F
:1000B0000000000000000003F0000000000000004D
:1000C00000000000000007F0000000000000000039
:1000D000000000000007F800000000000000000021
:1000E000000000000FF800000003C0007E000001C7
:1000F000E0007F0FF800000003C000FE000001E0F8
:1001000000FFEFF800000003C000FE000001E00067
:10011000FFFFF800000003C000F00000000F007FA8
:10012000FE7FC0000003C000F00000000F003FFE93
:100130007FF83FF1FBCFFCFEF3BC3DEFE01FFE7FFD
:10014000FF7FFBFFDFFEFEFFBC3DEFE01FC6FFFFB2
:100150007FFBFFDFFEFEFFBC3DEFE00FE3C7FE7855
:100160007BC3DE1EF0FFBC3DEF0007FF87FC787B02
:10017000C3DE1EF0F83C3DEF0001FFFFF0007BC343
:10018000C01EF0F03C3DEF0001F37FE03FFBC3CF2A
:10019000FEF0F03C3DEF0003E33F807FFBC3DFFE5A
:1001A000F0F03C3DEF0007E73C00787BC3DE1EF03B
:1001B000F03C3DEF0007FFBE00787BC3DE1EF0F091
:1001C0003C3DEF0007FFFE00787BC3DE1EF0F03CF5
:1001D0003DEF000FFFFE007FFBFFDFFEF0F03FFD75
:1001E000EFE00FFFFF007FFBFFDFFEF0F03FFDEFD2
:1001F000E00FF9FF003E79F9CF9EF0F01F3DE7E0F8
:100200001FF1FF0000000000000000000000001FC0
:1002100080FF007FFFFFFFFFFFFFFFFFFFE01C00ED
:100220007F007FFFFFFFFEB46D888D18E000001F88
:10023000007FFFFFFFFE95AD7DB577E000000F006A
:100240007FFFFFFFFEA5AD9D8D19E0000006007F3A
:10025000FFFFFFFEB5ADEDB57EE000000000000140
:10026000800000000000000000000380000000008B
:10027000000000000007C0000000000000000000B7
:1002800007C00000000000000000000FC0000000D8
:100290000000000000001FE000000000000000005F
:1002A000001FE00000000000000000003FE0000030
:1002B000000000000000003FF0000000000000000F
:1002C00000007FF0000000000000001FF87FF00039
:1002D0000000000000003FFE7FF000000000000072
:1002E000003FFF7FF0000000000000001FFFFBE068
:1002F000000000000000000FFFF9FFC00000000038
:1003000000000FFFF9FFF800000000000007FFF1F8
:10031000FFFF00000000000003FC73FFFF800000EF
:1003200000000001FE3FFFFF80000000000000FF12
:100330001E0FFF000000000000007FFE1FFC0000F9
:1003400000000000003FFFFFF80000000000000078
:100350000FDFFFE0000000000000001F19FFC000D9
:100360000000000000003F3CFF0000000000000013
:10037000007E7CF800000000000000007FFE7C0092
:1003800000000000000000FFFFFC00000000000073
:100390000000FFFFFE0000000000000000FFFFFE65
:1003A0000000000000000001FFEFFE000000000060
:1003B000000001FFCFFE0000000000000003FF0767
:1003C000FE0000000000000003FC07FE000000002B
:1003D00000000003F003FE000000000000000180A8
:1003E00000FE000000000000000000007E00000091
:1003F000000000000000003E0000000000000000BF
:1004000000000C000000000000078000FC0000035A
:10041000C0000000078001FC000003C000000007CE
:100420008001FC000003C0000000078001E0000024
:10043000001E000000078001E00000001E007FE3B6
:10044000F79FF9FDE7787BDFC0FFF7FFBFFDFDFFFA
:10045000787BDFC0FFF7FFBFFDFDFF787BDFC0F0DB
:10046000F787BC3DE1FF787BDE00F0F787BC3DE11C
:10047000F0787BDE0000F787803DE1E0787BDE00EE
:100480007FF7879FFDE1E0787BDE00FFF787BFFD08
:10049000E1E0787BDE00F0F787BC3DE1E0787BDED1
:1004A00000F0F787BC3DE1E0787BDE00F0F787BC29
:1004B0003DE1E0787BDE00FFF7FFBFFDE1E07FFB81
:1004C000DFC0FFF7FFBFFDE1E07FFBDFC07CF3F3A0
:1004D0009F3DE1E03E7BCFC0000000000000000037
:1004E000000000FFFFFFFFFFFFFFFFFFFFC0FFFF58
:1004F000FFFFFD68DB111A31C0FFFFFFFFFD2B5A24
:10050000FB6AEFC0FFFFFFFFFD4B5B3B1A33C0FFF1
:10051000FFFFFFFD6B5BDB6AFDC030780048656C58
:100520006C6F2C20776F726C64210000FF2F260007
:1005300000FF2F2700012F2900A300012F2A00A36D
:10054000007363726F6C6C002064793A200020792C
:100550003A2000783A200000C001C001C003E0F357
:10056000E0FEF87EFF339F1FFC0D701BA03FE03FB5
:10057000F07CF070700030535344313330362061DA
:100580006C6C6F636174696F6E206661696C656421
:100590000000000000003E5B4F5B3E3E6B4F6B3E39
:1005A0001C3E7C3E1C183C7E3C181C577D571C1C76
:1005B0005E7F5E1C00183C1800FFE7C3E7FF0018D1
:1005C000241800FFE7DBE7FF30483A060E262979BA
:1005D0002926407F050507407F05253F5A3CE73C1B
:1005E0005A7F3E1C1C08081C1C3E7F14227F2214CC
:1005F0005F5F005F5F06097F017F006689956A6023
:100600006060606094A2FFA29408047E0408102039
:100610007E201008082A1C08081C2A08081E101032
:1006200010100C1E0C1E0C30383E3830060E3E0EDC
:1006300006000000000000005F0000000700070047
:10064000147F147F14242A7F2A122313086462362D
:10065000495620500008070300001C2241000041B9
:10066000221C002A1C7F1C2A08083E0808008070F3
:100670003000080808080800006060002010080426
:10068000023E5149453E00427F4000724949494679
:100690002141494D331814127F1027454545393CF7
:1006A0004A494931412111090736494949364649E4
:1006B00049291E0000140000004034000000081406
:1006C000224114141414140041221408020159097F
:1006D000063E415D594E7C1211127C7F49494936D4
:1006E0003E414141227F4141413E7F494949417F4D
:1006F000090909013E414151737F0808087F004103
:100700007F41002040413F017F081422417F40404B
:1007100040407F021C027F7F0408107F3E41414120
:100720003E7F090909063E4151215E7F091929468C
:10073000264949493203017F01033F4040403F1FA2
:100740002040201F3F4038403F63140814630304D7
:100750007804036159494D43007F41414102040837
:100760001020004141417F0402010204404040400A
:1007700040000307080020545478407F2844443840
:100780003844444428384444287F3854545418008A
:10079000087E090218A4A49C787F08040478004409
:1007A0007D40002040403D007F1028440000417FF4
:1007B00040007C047804787C08040478384444447D
:1007C00038FC1824241818242418FC7C0804040875
:1007D000485454542404043F44243C4040207C1C8E
:1007E0002040201C3C4030403C44281028444C9081
:1007F00090907C4464544C440008364100000077DB
:100800000000004136080002010204023C262326B3
:100810003C1EA1A161123A4040207A3854545559E7
:10082000215555794122545478422155547840201D
:10083000545579400C1E5272123955555559395438
:1008400054545939555454580000457C41000245D0
:100850007D420001457C407D1211127DF028252843
:10086000F07C545545002054547C547C0A097F493F
:1008700032494949323A4444443A324A4848303A83
:100880004141217A3A42402078009DA0A07D3D421E
:1008900042423D3D4040403D3C24FF2424487E49A7
:1008A00043662B2FFC2F2BFF0929F620C0887E09D9
:1008B0000320545479410000447D413048484A3275
:1008C000384040227A007A0A0A727D0D19317D265D
:1008D00029292F28262929292630484D4020380843
:1008E00008080808080808382F10C8ACBA2F1028C4
:1008F00034FA00007B000008142A142222142A145F
:10090000085500550055AA55AA55AAFF55FF55FF91
:10091000000000FF00101010FF00141414FF00105E
:1009200010FF00FF1010F010F0141414FC00141449
:10093000F700FF0000FF00FF1414F404FC14141768
:10094000101F10101F101F1414141F00101010F08F
:10095000000000001F101010101F10101010F010D9
:10096000000000FF101010101010101010FF1000E9
:100970000000FF140000FF00FF00001F1017000020
:10098000FC04F414141710171414F404F40000FFFA
:1009900000F714141414141414F700F71414141793
:1009A0001410101F101F141414F4141010F010F071
:1009B00000001F101F0000001F14000000FC1400A6
:1009C00000F010F01010FF10FF141414FF1410109A
:1009D000101F00000000F010FFFFFFFFFFF0F0F01D
:1009E000F0F0FFFFFF0000000000FFFF0F0F0F0FF0
:1009F0000F3844443844FC4A4A4A347E0202060610
:100A0000027E027E0263554941633844443C0440FF
:100A10007E201E2006027E020299A5E7A5991C2AC7
:100A2000492A1C4C7201724C304A4D4D3030487886
:100A30004830BC625A463D3E494949007E010101A9
:100A40007E2A2A2A2A2A44445F444440514A444088
:100A500040444A51400000FF0103E080FF000008CD
:100A6000086B6B083612362436060F090F06000095
:100A700018180000001010003040FF0101001F0195
:100A8000011E00191D1712003C3C3C3C00000000F8
:100A900000000103070F1F3F7F0080C0E0F0F8FC5B
:100AA000FE0000000800020100000304070000002F
:100AB000000000000000000000250028002B0000BE
:100AC000000000240027002A000404040404040495
:100AD00004020202020202030303030303010204ED
:100AE00008102040800102040810200102040810B0
:100AF000202200FF21000726F82511241FBECFEF7A
:100B0000D8E0DEBFCDBF11E0A0E0B1E0ECE4F1E55C
:100B100002C005900D92AE35B107D9F722E0AEE5DF
:100B2000B1E001C01D92A93EB207E1F715E0CCE7A4
:100B3000D5E004C02197FE010E945A27CB37D10788
:100B4000C9F70E9488180C9499280C940000089505
:100B5000FC016370668B84819581268137816130C9
:100B600039F0633029F09187808733872287089591
:100B7000318720879387828708952F923F924F92E3
:100B80005F926F927F928F929F92AF92BF92CF921D
:100B9000DF92EF92FF920F931F93CF93DF93CDB726
:100BA000DEB76C970FB6F894DEBF0FBECDBF9C8F3B
:100BB0008B8F1B014A01198708873701A982DC0145
:100BC00059964D915C915A974115510509F0FFC016
:100BD00018968D919C911997681779070CF0E1C1CF
:100BE0001A968D919C911B97881699060CF0D9C185
:100BF000EC2DF0E0FB83EA83AB0166E0C69E400D7E
:100C0000511D11245D874C87141615060CF0C9C1BF
:100C10008A2D90E09B878A8733E0880F991F3A9549
:100C2000E1F79F878E87880D991D181619060CF01D
:100C3000B8C158968C91811103C0203B08F02F5FFA
:100C4000AB8DBC8DED91FC9111970284F385E02D65
:100C5000CD012A8F09952A8DB5E02B9F9001112493
:100C6000EC2DF0E0F98BE88BA1014B5F5F4F5B8BC4
:100C70004A8B3D822C822101B901621973097D8B57
:100C80006C8B9981892F90E09F8B8E8BD401189665
:100C9000B98FA88FEC89FD89E40DF51DEF56FA4F49
:100CA000D49054019F828E82D0FE16C0AB8DBC8D35
:100CB000ED91FC91B1E0CB1209C02981213031F4D2
:100CC0000484F585E02D2885398519C00684F785CB
:100CD000E02DE884F9841DC04885598564167506A1
:100CE00019F1AB8DBC8DED91FC91B1E0CB120DC033
:100CF0002981213051F40484F585E02D9301A5016B
:100D0000B2018B8D9C8D09950FC00684F785E02D6F
:100D100073010A851B852A813B814E815F816C812D
:100D20007D818B8D9C8D0995D6943FEFA31AB30AD4
:100D30004E815F816E897F89460F571F5F834E8387
:100D4000888D998DA816B90609F0AECF9FEF491A84
:100D5000590AAC81BD81E889F989AE0FBF1FBD83F7
:100D6000AC832A893B894216530609F093CF488504
:100D700059856416750609F4F2C0AB8DBC8DED91F2
:100D8000FC91B1E0CB1211C02981213071F4B10185
:100D90006B5F7F4F0088F189E02D830128E030E010
:100DA000A4018B8D9C8D0995DAC06C857D854A8167
:100DB0005B81641B750B0684F785E02D73010E853E
:100DC0001F859A01A4018B8D9C8D0995C8C0FA01DD
:100DD00034969491329765917491291BCB01B7E0B9
:100DE0002B9F800D911D1124FA01259134913B8B8D
:100DF0002A8BFC01A590B490FC0132965490319658
:100E000034913C87329614913196749041E04C15A0
:100E100018F05981523068F0612F012E000C770BC9
:100E20007B836A83872D072C000C990B9D838C8311
:100E300004C01D821C821B821A82AB8DBC8DED9179
:100E4000FC9111970284F385E02DCD010995412C89
:100E5000D12C612CF981EF2FF0E0FF83EE832C2D54
:100E600030E03B872A87A401470D511D77FC5A9536
:100E70005F8B4E8BB101610F711D17FD7A95798FD4
:100E8000688F5C85651608F06AC0262D30E04C81BD
:100E90005D81420F531F6E817F81469FC001479F36
:100EA000900D569F900D1124DC01A80DB91DB98B32
:100EB000A88B842D712CEE89FF89E20FF31FFD8B27
:100EC000EC8B751408F048C071E0780F7E8787704E
:100ED00041F4C5010196EA89FB89EA0DFB1DD49016
:100EE0005C01D7FE35C0AB8DBC8DED91FC91B1E0BE
:100EF000CB1212C02981213079F40484F585E02DCC
:100F0000288539854C895D89688D798D670D711DBE
:100F10008B8D9C8D09951CC08A819B81870D911DAD
:100F20004A855B85849FB001859F700D949F700DED
:100F30001124620D731D0684F785E02DE884F98481
:100F40000E811F819A01488959898B8D9C8D099545
:100F5000DD0C73948E85B5CF450C639492CFAB8D29
:100F6000BC8DED91FC9111970688F789E02DCD019C
:100F70006C960FB6F894DEBF0FBECDBFDF91CF9158
:100F80001F910F91FF90EF90DF90CF90BF90AF90A7
:100F90009F908F907F906F905F904F903F902F9099
:100FA00009946C960FB6F894DEBF0FBECDBFDF91EB
:100FB000CF911F910F91FF90EF90DF90CF90BF9056
:100FC000AF909F908F907F906F905F904F903F90E9
:100FD0002F9008958F929F92AF92CF92EF92FF92AF
:100FE0000F931F93CF93DF93EC01262F898D9A8D5A
:100FF000009709F042C06A3059F41D861C862D897D
:101000008E859F8538E0239F800D911D112443C05C
:101010006D3009F4AAC08F898823C9F03C898C857A
:101020009D8546E0349F800D911D1124488559858A
:101030004817590764F41D861C863D898E859F8557
:1010400048E0349F800D911D11249F878E87EA8888
:10105000FB88088919894E855F856C857D85AD88FB
:10106000CC88CE010E94BD052C898C859D8536E0FB
:10107000239F800D911D11243EC06A3079F41D8696
:101080001C862D89FC013896E4918E859F852E9FC4
:10109000800D911D11249F878E8767C06D3009F4E4
:1010A00064C0FC0134963491631708F45EC0329634
:1010B000E491E61708F459C0462F431B342FFC0176
:1010C00032968590949047E0349F800C911C1124B7
:1010D000F401329634913196E491332311F0E11109
:1010E0000DC0F4013496E4912C898C859D85E29F96
:1010F000800D911D11249D878C8737C0F401359692
:1011000044915F89552319F15C89E32FF0E0E40FE6
:10111000F11D47FDFA955E9FB0015F9F700D112490
:101120004C855D85460F571F68857985641775075F
:1011300074F41D861C863D89FC013896E4918E85E9
:101140009F853E9F800D911D11249F878E87EA8881
:10115000FB88088919894E855F856C857D85AD88FA
:10116000CC88CE010E94BD05BCCF81E090E0DF912C
:10117000CF911F910F91FF90EF90CF90AF909F90E4
:101180008F9008956F927F928F929F92AF92BF92AD
:10119000CF92DF92EF92FF920F931F93CF93DF9343
:1011A000EC014B015A0169013801E881F98102849F
:1011B000F385E02D0995E881F9810288F389E02D16
:1011C00087019601A501B401CE010995E881F98155
:1011D000A501460D571D415051090288F389E02DA4
:1011E0009601B401CE010995E881F9810088F18961
:1011F000E02D9301A501B401CE010995E881F981A3
:10120000C80CD91CB601615071090088F189E02D24
:101210009301A501CE010995E881F9810688F78936
:10122000E02DCE01DF91CF911F910F91FF90EF90B4
:10123000DF90CF90BF90AF909F908F907F906F90F6
:101240000994CF92DF92EF92FF920F931F93CF9367
:10125000DF9300D000D000D0CDB7DEB76C01DC0149
:10126000ED91FC916217730789F4041715072CF4AC
:10127000942F852FA801092F182F041B150B9801F7
:101280002F5F3F4F048CF58DE02D12C040175107A2
:1012900009F5261737072CF4962F872FB901292F28
:1012A000382F261B370B2F5F3F4F068CF78DE02D15
:1012B0008701C601099526960FB6F894DEBF0FBECA
:1012C000CDBFDF91CF911F910F91FF90EF90DF90F5
:1012D000CF9008950284F385E02D2D833E834B83C8
:1012E0005C8369837A830995D601ED91FC9104882A
:1012F000F589E02D2D813E814B815C8169817A8168
:10130000C6010995D601ED91FC910688F789E02D7B
:10131000C60126960FB6F894DEBF0FBECDBFDF9193
:10132000CF911F910F91FF90EF90DF90CF90099494
:10133000EF92FF920F931F93DC01ED91FC911197B7
:101340001A960D911C911B9718962D913C91199707
:1013500000A0F1A1E02D7B0140E050E060E070E0F2
:1013600009951F910F91FF90EF9008954F925F9212
:101370006F927F928F929F92AF92BF92CF92DF92A5
:10138000EF92FF920F931F93CF93DF9300D0CDB7CF
:10139000DEB76C015A0139014801DC01ED91FC9185
:1013A0000284F385E02D69837A8309956981462E4D
:1013B0007A81572E640C751CD601ED91FC91461470
:1013C00057046CF40088F189E02D87019401A50190
:1013D000B201C6010995BFEF4B1A5B0AEDCF068833
:1013E000F789E02DC6010F900F90DF91CF911F91EB
:1013F0000F91FF90EF90DF90CF90BF90AF909F90B4
:101400008F907F906F905F904F900994AF92BF92B2
:10141000CF92DF92EF92FF920F931F93CF93DF93C0
:1014200000D000D0CDB7DEB75C016901DC01ED91E1
:10143000FC910284F385E02D4B835C8369837A837E
:101440000995D501ED91FC9169817A819B012C0D63
:101450003D1D215031090488F589E02D78014B812B
:101460005C818A01C5010995D501ED91FC91068841
:10147000F789E02DC5010F900F900F900F90DF912D
:10148000CF911F910F91FF90EF90DF90CF90BF9081
:10149000AF900994AF92BF92CF92DF92EF92FF92FA
:1014A0000F931F93CF93DF9300D000D0CDB7DEB75B
:1014B0005C016901DC01ED91FC910284F385E02D72
:1014C0004B835C8369837A830995D501ED91FC9107
:1014D0004B815C81C40ED51EB1E0CB1AD1080488C3
:1014E000F589E02D7801860169817A819B01C5012A
:1014F0000995D501ED91FC910688F789E02DC5018C
:101500000F900F900F900F90DF91CF911F910F913F
:10151000FF90EF90DF90CF90BF90AF900994089527
:10152000EF92FF920F931F93DC01ED91FC9100A0CD
:10153000F1A1E02D09951F910F91FF90EF90089573
:101540000F931F93DC01ED91FC91068CF78DE02D3C
:1015500009951F910F9108950F931F93DC01ED9151
:10156000FC91048CF58DE02D09951F910F91089544
:10157000DC01ED91FC910084F185E02D0994089542
:101580002F923F924F925F926F927F928F929F9293
:10159000AF92BF92CF92DF92EF92FF920F931F9381
:1015A000CF93DF9300D01F92CDB7DEB74C017B8382
:1015B0006A836A01590117019801241B350B37FF13
:1015C00003C0319521953109C5014A815B81841B96
:1015D000950B97FF03C091958195910951E059832F
:1015E0008217930714F019820BC09A2D8B2D580186
:1015F000092F182F9A818B81DB82CA82C92ED82E9F
:101600008A819B81A816B9065CF49C2D8D2D6801FA
:10161000092F182F9A818B81BB82AA82A92EB82EFE
:101620002501AA81BB814A1A5B0A38016C187D0822
:1016300077FE03C0719461947108720157FE03C074
:10164000BFEFEB1AFB0AF594E794C016D1061CF025
:101650000FEF1FEF1FC001E010E01CC0D401ED919F
:10166000FC91B9810484F585E02D9101BB23C1F083
:101670004A815B81B601C4010995E618F708F7FEB7
:1016800004C0C00ED11EE40CF51CEA81FB8131962A
:10169000FB83EA834A815B81A416B506FCF604C08D
:1016A000A6016A817B81E7CF0F900F900F90DF91A9
:1016B000CF911F910F91FF90EF90DF90CF90BF904F
:1016C000AF909F908F907F906F905F904F903F90E2
:1016D0002F90089585ED8093BC008091BC0084FD1F
:1016E000FCCF1092600108954091A601262F30E0B2
:1016F000240F311D21323105DCF4209160012430AA
:10170000C9F4FC0180E090E0861758F43091A601FE
:101710002191DC01AC57BE4FA30FB11D2C93019654
:10172000F3CF8091A601680F6093A60180E0089531
:1017300081E0089582E00895089581E090E030917D
:10174000620120916101321710F480E090E09195E0
:1017500081959109089580916201909161018917A5
:1017600030F48F5F8093620180E090E008958FEF06
:101770009FEF08958091610190E020916201821BAA
:1017800091090895CF92DF92EF92FF920F931F93EA
:10179000CF93DF937C01262F972F8A018091FB0145
:1017A000882391F0C62FD72F6E01C40ED51ECC15FD
:1017B000DD0571F06991D701ED91FC910190F08107
:1017C000E02DC7010995F3CF642F822F0E94740B7F
:1017D000C801DF91CF911F910F91FF90EF90DF90A3
:1017E000CF900895CF93DF931F92CDB7DEB7698373
:1017F0002091FB012223D1F02091F801203240F00A
:1018000021E030E0FC013383228380E090E015C0CA
:101810008091F901E82FF0E0EC59FE4F9981908317
:101820008F5F8093F9018093F80105C061E0CE01DC
:1018300001960E94740B81E090E00F90DF91CF91B0
:101840000895089580E090E0089508958EBD000009
:101850000DB407FEFDCF8EB508958CBD9DBD0895D6
:101860001F920F920FB60F9211242F933F934F9315
:101870005F936F937F938F939F93AF93BF93EF93F8
:10188000FF938091B900887F803609F49CC068F589
:10189000883209F45BC090F4803109F454C038F404
:1018A000882309F4F6C0883009F44DC0F6C08831A9
:1018B00009F44CC0803209F45DC0EFC0803409F4F3
:1018C00068C048F4803309F455C0883309F0E5C096
:1018D0008093CB01D8C0803509F44FC0883509F416
:1018E0005DC0883409F0D9C0D6C0883909F4C7C0B2
:1018F000A8F4883709F467C038F4883609F463C05F
:10190000803709F460C0C9C0883809F4B8C080398C
:1019100009F45FC0803809F0C0C05BC0803B09F4A7
:1019200086C038F4803A09F466C0883A09F47FC06A
:10193000B4C0803C09F4A7C0883C09F4A4C0883B2B
:1019400009F48AC0AAC08091EE0110C09091ED0107
:101950008091EC01981770F5E091ED0181E08E0F18
:101960008093ED01F0E0E453FE4F80818093BB0053
:1019700085EC86C08093CB018EC0E091ED0181E0C3
:101980008E0F8093ED018091BB00F0E0E453FE4F99
:1019900080839091ED018091EC016EC0E091ED01AA
:1019A00081E08E0F8093ED018091BB00F0E0E45365
:1019B000FE4F808380915F0181116DC081E0809333
:1019C0005E0184EA61C083E0809360011092CA01E5
:1019D000CFCF8091CA01803208F051C0E091CA0196
:1019E00081E08E0F8093CA018091BB00F0E0E65544
:1019F000FE4F8083BDCF85EC8093BC0010926001C8
:101A00008091CA01803230F4E091CA01F0E0E655DD
:101A1000FE4F10826091CA0170E0E091A801F09140
:101A2000A9018AEA91E009951092CA0136C084E0C2
:101A3000809360011092A7011092A601E091A40189
:101A4000F091A50109958091A601811105C081E061
:101A50008093A60110928401E091A70181E08E0F8E
:101A60008093A701F0E0EC57FE4F80818093BB008C
:101A70009091A7018091A601981708F479CF85E885
:101A80008093BC000AC085EC8093BC00109260017A
:101A900004C01092CB010E946A0BFF91EF91BF919D
:101AA000AF919F918F917F916F915F914F913F91F6
:101AB0002F910F900FBE0F901F9018959B01AC01B6
:101AC00060E074E284EF90E00E941A27DA01C90115
:101AD0004097A109B109B695A795979587958093E9
:101AE000B80008952091F8019091FA01213208F090
:101AF0004AC0809160018111FCCF32E030936001D7
:101B000031E030935F013FEF3093CB011092ED0154
:101B10002093EC01A4E6B1E04CEC51E0FA013E2F39
:101B2000341B321718F43D913193F9CF1092EE0126
:101B30002091EE01990F922B9093EE0190915E010E
:101B4000913061F410925E019091EE019093BB0090
:101B50009091BC0093FDF8CF95EC01C095EE909369
:101B6000BC00909160019230E1F39091CB019F3FD6
:101B700079F08091CB01803241F08091CB018033AC
:101B800031F084E005C081E003C082E001C083E061
:101B90001092F9011092F8011092FB010895CF9272
:101BA000DF92EF92FF920F931F93CF93DF936C011D
:101BB0007A018B01C0E0D0E0CE15DF0589F0D801B5
:101BC0006D918D01D601ED91FC910190F081E02D98
:101BD000C6010995892B11F47E0102C02196ECCF34
:101BE000C701DF91CF911F910F91FF90EF90DF9090
:101BF000CF900895FC01538D448D252F30E0842F24
:101C000090E0821B930B541710F0CF960895019724
:101C10000895FC01918D828D981761F0828DDF010E
:101C2000A80FB11D5D968C91928D9F5F9F73928FCF
:101C300090E008958FEF9FEF0895FC01918D828DC4
:101C4000981731F0828DE80FF11D858D90E0089591
:101C50008FEF9FEF0895FC01918D228D892F90E0E9
:101C6000805C9F4F821B91098F73992708958CEF99
:101C700091E00E942B0E21E0892B09F420E0822FB5
:101C80000895FC01848DDF01A80FB11DA35ABF4F39
:101C90002C91848D90E001968F739927848FA6896B
:101CA000B7892C93A089B1898C9180648C93938D92
:101CB000848D981306C00288F389E02D80818F7D82
:101CC00080830895EF92FF920F931F93CF93DF933A
:101CD000EC0181E0888F9B8D8C8D981305C0E8897D
:101CE000F989808185FD24C0F62E0B8D10E00F5FF1
:101CF0001F4F0F731127E02E8C8DE8120CC00FB60A
:101D000007FCFACFE889F989808185FFF5CFCE01FC
:101D10000E94410EF1CF8B8DFE01E80FF11DE35AB9
:101D2000FF4FF0820B8FEA89FB898081806207C0B8
:101D3000EE89FF896083E889F989808180648083E6
:101D400081E090E0DF91CF911F910F91FF90EF9094
:101D50000895CF93DF93EC01888D8823C9F0EA8939
:101D6000FB89808185FD05C0A889B9898C9186FD94
:101D70000FC00FB607FCF5CF808185FFF2CFA88991
:101D8000B9898C9185FFEDCFCE010E94410EE7CF3E
:101D9000DF91CF91089580E090E0892B29F00E9497
:101DA000370E81110C94000008953FB7F89480918C
:101DB000F4019091F501A091F601B091F70126B5DB
:101DC000A89B05C02F3F19F00196A11DB11D3FBF73
:101DD000BA2FA92F982F8827820F911DA11DB11D01
:101DE000BC01CD0142E0660F771F881F991F4A95FD
:101DF000D1F708950F931F93CF93DF9377FF04C01C
:101E0000260F371F60E070E0DC011496CD91DC9165
:101E10001597FB01E20FF31FCE17DF071CF49E019D
:101E2000261B370B121613060CF046C0FA0157FD9D
:101E30003796DF01E3E0B595A795EA95E1F7AC9F0A
:101E4000F001AD9FF00DBC9FF00D11246E0F7F1FB0
:101E5000DC015F96ED91FC919097E60FF71F4770BC
:101E6000552781E090E001C0880F4A95EAF7482F96
:101E70000130110539F078F002301105E9F42E0F28
:101E80003F1F13C02E0F3F1FE217F307A9F08081F9
:101E9000842B8193F9CF80952E0F3F1FE217F30714
:101EA00059F0908198239193F9CFE217F30721F02D
:101EB000808184278193F9CFDF91CF911F910F917A
:101EC0000895EF92FF920F931F93CF93DF93EC014E
:101ED00077FDA4C0EC80FD806E157F050CF09EC0E0
:101EE00057FF04C0240F351F40E050E08E819F81D2
:101EF000FA01E20FF31F8E179F071CF49C01241BAD
:101F0000350B121613060CF089C0922F842F86957C
:101F1000869586958E9DD0018F9DB00D11246A0FF8
:101F20007B1FAF8DB8A1A60FB71F4770A9F188E03E
:101F3000841B482F682F70E0FB01E756F54FE491B2
:101F4000281790F4621B71092FEF30E002C035951D
:101F500027956A95E2F7E2230130110541F070F010
:101F60000230110579F05AC00130110519F48C9135
:101F7000E82B0AC00130110508F049C0E0958C91AA
:101F8000E82302C08C91E827EC932C813D819417C3
:101F900008F444C0A20FB31FE92FE41BE830F8F0A7
:101FA0000230110561F48E2F9C9190959C932C81A9
:101FB0003D81A20FB31F88508830B0F70FC081E079
:101FC0000115110509F480E081959E2F8C932C81D9
:101FD0003D81A20FB31F98509830C0F7E770EE23F1
:101FE000E9F0F0E0EF56F54FE4910130110539F0DA
:101FF00048F00230110591F48C91E82706C08C91CD
:10200000E82B03C0E0958C91E823EC9307C00230E5
:10201000110509F4B7CFAE0DBF1DBECFDF91CF9133
:102020001F910F91FF90EF9008950F931F93CF93FF
:10203000DF93DC015696EC915697E23071F0E33075
:10204000E9F0E13079F5FB0114960D90BC91A02DDB
:10205000A41BB50BA21BB30B18C0EC01EC81FD81D6
:10206000E61BF70BBF0161507109EE81FF81DF01B3
:10207000A41BB50BAD01421B530B14C0DA01EC01DC
:10208000EE81FF81E61BF70B3197F7FD0DC0EC01E8
:102090004E815F81E417F5073CF4AF01BD010E945A
:1020A000FA0E02C00E94610FDF91CF911F910F9134
:1020B00008950F931F93DC015696EC915697E230EA
:1020C00061F0E33009F1E13081F51496ED91FC9176
:1020D0001597E41BF50B319723C0DC011496ED91A5
:1020E000FC911597DF01A61BB70BBD01DC0116960D
:1020F000ED91FC911797DF01A41BB50BAD01415089
:102100005109621B730B11C0FA01DC0116964D9147
:102110005C911797DA01A61BB70BBD01621B730B0D
:10212000AB01BF010E94610F0CC057FD0AC0DC016A
:102130001696ED91FC9117974E175F0714F40E94C5
:10214000FA0E1F910F910895FC0177FDB9C08085AB
:102150009185681779070CF0B3C057FDB1C082852F
:102160009385481759070CF008958689823079F4D1
:1021700084819581DC01A61BB70BBD0161507109FB
:1021800086819781DC01A41BB50BAD010EC08330A5
:1021900009F084C064277527CB0184279527682719
:1021A000792746815781481B590B415051092130ED
:1021B000310531F048F12230310509F44AC0089563
:1021C000CA0157FD07969C01A3E035952795AA956E
:1021D000E1F7A481B5812A9FC0012B9F900D3A9F02
:1021E000900D1124680F791F078CF0A1E02DE60FE8
:1021F000F71F4770552781E090E001C0880F4A958E
:10220000EAF79081892B48C0CA0157FD07969C01C7
:1022100093E0359527959A95E1F7A481B5812A9F9A
:10222000C0012B9F900D3A9F900D1124680F791FCC
:10223000078CF0A1E02DE60FF71F4770552781E0CE
:1022400090E001C0880F4A95EAF780959081892334
:1022500023C0CA0157FD07969C0183E03595279559
:102260008A95E1F7A481B5812A9FC0012B9F900D2B
:102270003A9F900D1124680F791F078CF0A1E02D73
:10228000E60FF71F4770552781E090E001C0880FE7
:102290004A95EAF79081892780830895813009F073
:1022A00086CF64277527462757276427752784819B
:1022B0009581DC01A61BB70BBD016150710977CF79
:1022C00008950E948D28EF92FF920F931F93CF9352
:1022D000DF938C017B01C0E0D0E0F701EC0FFD1F24
:1022E0006491662361F0D801ED91FC910190F08139
:1022F000E02DC8010995892B11F02196EECFCE0172
:10230000DF91CF911F910F91FF90EF90089561158C
:10231000710579F0FB0101900020E9F73197AF01D9
:10232000461B570BDC01ED91FC910280F381E02DFF
:10233000099480E090E008954F925F926F927F92AF
:10234000EF92FF920F931F93CF93DF93CDB7DEB73A
:10235000A1970FB6F894DEBF0FBECDBF7C01FA0186
:10236000CB0119A2223008F42AE08E010F5D1F4F25
:10237000422E512C612C712CBF01A30192010E94AD
:102380001A27F901CA01015011096A3014F4605D7D
:1023900001C0695CD8016C93232B242B252B61F79A
:1023A000B801C7010E948711A1960FB6F894DEBF4D
:1023B0000FBECDBFDF91CF911F910F91FF90EF9096
:1023C0007F906F905F904F9008950F931F93CF93DE
:1023D000DF93EC010E9463118C016AE571E0CE018C
:1023E0000E948711800F911FDF91CF911F910F9154
:1023F00008951F920F920FB60F9211242F933F93BF
:102400004F935F936F937F938F939F93AF93BF93FC
:10241000EF93FF938CEF91E00E94410EFF91EF91BB
:10242000BF91AF919F918F917F916F915F914F91EC
:102430003F912F910F900FBE0F901F9018951F92F4
:102440000F920FB60F9211242F938F939F93EF93B8
:10245000FF93E0910C02F0910D028081E091120255
:10246000F091130282FD12C09081809115028F5F5E
:102470008F7320911602821751F0E0911502F0E05F
:10248000E450FE4F958F8093150201C08081FF912B
:10249000EF919F918F912F910F900FBE0F901F90F2
:1024A000189590E0FC01EF55F54F3491FC01E35293
:1024B000F54F2491FC01E753F54FE491EE2309F425
:1024C0003BC0332339F1333091F038F43130A9F087
:1024D000323001F584B58F7D12C0373091F038303D
:1024E000A1F03430B9F4809180008F7D03C08091D9
:1024F00080008F77809380000DC084B58F7784BD76
:1025000009C08091B0008F7703C08091B0008F7DAB
:102510008093B000F0E0EE0FFF1FEB54F54FA59154
:10252000B4918FB7F894EC91611103C020952E23DC
:1025300001C02E2B2C938FBF08958F929F92AF9244
:10254000BF92CF92DF92EF92FF926B017C010E94CB
:10255000D50E4B015C01C114D104E104F104F1F08A
:102560000E94D50EDC01CB0188199909AA09BB0983
:10257000883E9340A105B10570F321E0C21AD1084D
:10258000E108F10888EE880E83E0981EA11CB11CBA
:10259000C114D104E104F10419F7DDCFFF90EF90ED
:1025A000DF90CF90BF90AF909F908F9008951F9233
:1025B0000F920FB60F9211242F933F938F939F93F7
:1025C000AF93BF938091F0019091F101A091F2013E
:1025D000B091F3013091EF0123E0230F2D3720F468
:1025E0000196A11DB11D05C026E8230F0296A11D6D
:1025F000B11D2093EF018093F0019093F101A0931E
:10260000F201B093F3018091F4019091F501A09152
:10261000F601B091F7010196A11DB11D8093F4015F
:102620009093F501A093F601B093F701BF91AF919C
:102630009F918F913F912F910F900FBE0F901F9000
:1026400018951F93CF93DF93FC01858D968D00978E
:1026500029F1162FEF0121A131E03093FB012093E6
:10266000FA011092F9011092F801DC01ED91FC9150
:102670000190F081E02D60E009958D8D9E8DDC014B
:10268000ED91FC910190F081E02D612F09958D8DE8
:102690009E8DDF91CF911F910C94720DA5A5B6A5CB
:1026A0009C9183A9809589238C93838D948D892B0C
:1026B00031F0862FDF91CF911F910C94260C28E0EA
:1026C00030E080E8A1A5B2A591A9482F462319F0D2
:1026D0004C91942B03C04C91909594239C93A3A56B
:1026E000B4A54C9192A9942B9C93A3A5B4A54C910D
:1026F00092A9909594239C9386952150310911F7C6
:10270000DF91CF911F9108951F93CF93DF93EC0139
:10271000162F8D8D9E8D892B39F06DA97EA98FA9DD
:1027200098AD0E945E0D0FC08B8D9C8D892B21F082
:102730008EAD9FAD0E942D0CEFA5F8A990818CA9BC
:10274000809589238083111102C066EA01C067EA7F
:10275000CE010E9421138D8D9E8D892B49F069AD8C
:102760007AAD8BAD9CADDF91CF911F910C945E0D36
:10277000EFA5F8A990818CA9892B80838B8D9C8DE6
:10278000892B29F0DF91CF911F910C94250CDF91BB
:10279000CF911F910895EF92FF920F931F93CF93C4
:1027A000DF93C82FF92ED62F8091C2029091C302D9
:1027B000009709F45AC02091C60231E03093FB0122
:1027C0002093FA011092F9011092F801DC01ED91C9
:1027D000FC910190F081E02D60E009950C2F1F2DF8
:1027E000EE24E394F12CCD0FD1E08091C2029091C0
:1027F000C302C01791F1B0E2EB16F104D8F00E94C9
:10280000720D8091C602D093FB018093FA01109261
:10281000F9011092F8018091C2029091C302DC018B
:10282000ED91FC910190F081E02D60E00995EE249E
:10283000E394F12C8091C2029091C302F80164915B
:10284000DC01ED91FC910190F081E02D0995BFEF45
:10285000EB1AFB0A0F5F1F4FC8CFDF91CF911F917B
:102860000F91FF90EF900C94720DE091D202F091D5
:10287000D30220818091D8028095822380830C2FFF
:102880001F2DC60FC017C1F1F80184912091C0021D
:102890003091C102232B19F00E94260C2AC028E097
:1028A00030E040E8E091CE02F091CF029091D60264
:1028B000542F582319F05081952B03C050819095C7
:1028C00095239083E091D002F091D10250819091B4
:1028D000D702952B9083E091D002F091D1025081E4
:1028E0009091D70290959523908346952150310978
:1028F000C9F60F5F1F4FC6CFDF91CF911F910F9188
:10290000FF90EF900895DF92EF92FF920F931F9345
:10291000CF93DF938091C2029091C302892B59F02B
:102920006091DA027091DB028091DC029091DD020D
:102930000E945E0D16C08091C0029091C102892B49
:1029400031F08091E3029091E4020E942D0CE0911D
:10295000D402F091D50290818091D902809589238B
:10296000808365E081EF9AE00E94CB136091A90219
:10297000615085EA92E00E9421132091AB023091D0
:10298000AC02C901079697FD079623E095958795B8
:102990002A95E1F72091A9023091AA02829F800135
:1029A000839F100D929F100D1124C091C402D091ED
:1029B000C5028091C2029091C3020C0F1D1F0097A7
:1029C00009F451C02091C60231E03093FB012093FD
:1029D000FA011092F9011092F801DC01ED91FC91DD
:1029E0000190F081E02D60E40995EE24E394F12C50
:1029F000DD24D3948091C2029091C302C017D10705
:102A000079F1B0E2EB16F104D8F00E94720D8091DA
:102A1000C602D092FB018093FA011092F901109244
:102A2000F8018091C2029091C302DC01ED91FC910A
:102A30000190F081E02D60E40995EE24E394F12CFF
:102A40008091C2029091C3026991DC01ED91FC91E9
:102A50000190F081E02D0995BFEFEB1AFB0ACACF78
:102A60000E94720D41C0E091D202F091D302908198
:102A70008091D802892B8083C017D107A9F1899151
:102A80002091C0023091C102232B19F00E94260C24
:102A9000F3CF28E030E040E8E091CE02F091CF02A1
:102AA0009091D602542F582319F05081952B03C0D2
:102AB0005081909595239083E091D002F091D102BE
:102AC00050819091D702952B9083E091D002F091A4
:102AD000D10250819091D70290959523908346958D
:102AE00021503109C9F6C8CF8091C2029091C3022A
:102AF000892B89F06091DE027091DF028091E00203
:102B00009091E102DF91CF911F910F91FF90EF9093
:102B1000DF900C945E0DE091D402F091D50290818B
:102B20008091D902892B80838091C0029091C1024B
:102B3000892B49F0DF91CF911F910F91FF90EF907A
:102B4000DF900C94250CDF91CF911F910F91FF9096
:102B5000EF90DF9008952091AB023091AC02C90153
:102B6000079697FD079623E0959587952A95E1F7B7
:102B70002091A9023091AA02829FA001839F500D4B
:102B8000929F500D112460E070E08091C4029091FA
:102B9000C5020C9492282F923F924F925F926F92AF
:102BA0007F928F929F92AF92BF92CF92DF92EF92DD
:102BB000FF920F931F93CF93DF93CDB7DEB7289784
:102BC0000FB6F894DEBF0FBECDBF4C017C836B8384
:102BD00058874F8381E090E05C01A41AB50ACA01CE
:102BE000919581959109AC01440F551F5A834983F2
:102BF00018015FEF251A350A3B012101C12CD12CA8
:102C0000822F81708D8322702E83EF81F885CE16FE
:102C1000DF060CF071C0EF80F884B7FC0AC091E0C9
:102C2000E91AF108E981FA813296FA83E983AE0E56
:102C3000BF1EFFEFCF1ADF0AC601880F991F01964A
:102C4000A80EB91EEC14FD0454F14D81442391F0FB
:102C50009701220F331F220D331D02E010E04B813C
:102C60005C814E195F09B601680D791D85EA92E015
:102C70000E94AC0A5E81552391F09701220F331F09
:102C8000220D331D02E010E04B815C814E195F097B
:102C9000B4016C197D0985EA92E00E94AC0A8F812B
:102CA0009885E816F906F9F09D81992361F002E014
:102CB00010E09201A3016F817885680D791D85EA86
:102CC00092E00E94AC0AEE81EE2369F0B4014F81DC
:102CD0005885641B750B02E010E09201A30185EAA0
:102CE00092E00E94AC0A51E0651A710882E0480E39
:102CF000511CF886EF8289CF28960FB6F894DEBF74
:102D00000FBECDBFDF91CF911F910F91FF90EF903C
:102D1000DF90CF90BF90AF909F908F907F906F90FB
:102D20005F904F903F902F9008952F923F924F9237
:102D30005F926F927F928F929F92AF92BF92CF924B
:102D4000DF92EF92FF920F931F93CF93DF937C015B
:102D50006B01EA0181E090E05C01A41AB50A6624E7
:102D60007724641A750A660C771C00E010E088244A
:102D70008394912C822F8470582E822F8270482E3B
:102D8000822F8870382E2170222E0C171D070CF010
:102D900079C0B7FC06C0219782E0680E711CA60CB2
:102DA000B71C0F5F1F4F82E0880E911CA80CB91C46
:102DB0005520C1F021E030E0A6014C0F5D1FB801A5
:102DC0006E0D7F1D85EA92E00E94B80A21E030E096
:102DD000A8014C0D5D1DB7016C0F7D1F85EA92E0C7
:102DE0000E94B80A4420C1F021E030E0A6014C1B4B
:102DF0005D0BB8016E0D7F1D85EA92E00E94B80A56
:102E000021E030E0A601401B510BB7016C0F7D1F84
:102E100085EA92E00E94B80A3320C1F021E030E058
:102E2000A8014C0D5D1DB7016C1B7D0B85EA92E07E
:102E30000E94B80A21E030E0A6014C0F5D1FB701E7
:102E4000601B710B85EA92E00E94B80A222009F407
:102E50009CCF21E030E0A601401B510BB7016C1B59
:102E60007D0B85EA92E00E94B80A21E030E0A601DD
:102E70004C1B5D0BB701601B710B85EA92E00E9451
:102E8000B80A83CFDF91CF911F910F91FF90EF9000
:102E9000DF90CF90BF90AF909F908F907F906F907A
:102EA0005F904F903F902F9008958091C202909133
:102EB000C302892B59F06091DA027091DB02809194
:102EC000DC029091DD020E945E0D16C08091C0026E
:102ED0009091C102892B31F08091E3029091E4023C
:102EE0000E942D0CE091D402F091D5029081809146
:102EF000D9028095892380836EE285EA92E00E9460
:102F000021138091C2029091C302892B51F06091EC
:102F1000DE027091DF028091E0029091E1020C9458
:102F20005E0DE091D402F091D50290818091D9029A
:102F3000892B80838091C0029091C102892B11F06E
:102F40000C94250C08953F924F925F926F927F925E
:102F50008F929F92AF92BF92CF92DF92EF92FF92A9
:102F60000F931F93CF93DF93CDB7DEB728970FB69C
:102F7000F894DEBF0FBECDBF6C017E836D832A0146
:102F80003901DC01ED91FC910284F385E02D099576
:102F9000C801079697FD0796FC0193E0F595E79524
:102FA0009A95E1F7FA83E983812C912CA12CB12C1D
:102FB000312CC501840D951D9C838B83AE14BF04F9
:102FC0000CF03FC018861F82EF81F885E017F107EB
:102FD00084F58F81988587709927892B11F0330CA0
:102FE0000EC0EF81F885F7FD379683E0F595E795FC
:102FF0008A95E1F7E80DF91DE60DF71D349037FECF
:1030000012C0D601ED91FC910484F585E02D21E0FC
:1030100030E04B815C816D817E818F819885680F66
:10302000791FC6010995AF81B8851196B887AF831E
:10303000CBCFFFEFAF1ABF0A29813A81820E931ED0
:10304000B8CFD601ED91FC910688F789E02DC60135
:1030500028960FB6F894DEBF0FBECDBFDF91CF919B
:103060001F910F91FF90EF90DF90CF90BF90AF90A6
:103070009F908F907F906F905F904F903F900994BA
:10308000CF92DF92EF92FF92CF93DF936B017C019F
:10309000E091FC01F091FD010190F081E02D6DE2E5
:1030A0008CEF91E00995EC0144275527BA014C19A2
:1030B0005D096E097F092AE08CEF91E00E949C1166
:1030C0008C0F9D1FDF91CF91FF90EF90DF90CF90FD
:1030D000089590E0FC01E352F54F2491FC01E75381
:1030E000F54F8491882399F090E0880F991FFC0197
:1030F000E154F54FA591B491FC01EB54F54F859146
:1031000094918FB7F894EC91E22BEC938FBF0895D4
:10311000CF93DF93CDB7DEB7CA54D1090FB6F89479
:10312000DEBF0FBECDBF789484B5826084BD84B508
:10313000816084BD85B5826085BD85B5816085BDB2
:1031400080916E00816080936E001092810080916A
:1031500081008260809381008091810081608093F2
:103160008100809180008160809380008091B10017
:1031700084608093B1008091B00081608093B00042
:1031800080917A00846080937A0080917A008260D6
:1031900080937A0080917A00816080937A00809198
:1031A0007A00806880937A001092C100E0910C024E
:1031B000F0910D0282E08083E0910802F091090213
:1031C0001082E0910A02F0910B028FEC8083109242
:1031D0001402E0911002F091110286E08083E091E8
:1031E0000E02F0910F02808180618083E0910E02D7
:1031F000F0910F02808188608083E0910E02F0914F
:103200000F02808180688083E0910E02F0910F02AE
:1032100080818F7D80838091C4029091C502892B2B
:1032200041F52091AB023091AC02C901079697FDA0
:10323000079623E0959587952A95E1F72091A902B5
:103240003091AA02AC01429FC001439F900D529F52
:10325000900D11240E9460279093C5028093C402B0
:10326000892B39F467E775E08CEF91E00E94E51156
:10327000FFCF0E94AB158091AB029091AC026091A0
:10328000A9027091AA0281329105CCF0AC014054A0
:10329000510957FF02C04F5F5F4F559547956255E3
:1032A000710977FF02C06F5F7F4F7595679510E4D6
:1032B000E12EF12C02E510E02AE532E018C0AC0165
:1032C0004052510957FF02C04F5F5F4F55954795D8
:1032D0006357710977FF02C06F5F7F4F75956795E0
:1032E000F0E2EF2EF12C03E710E02AE730E085EA68
:1032F00092E00E94A31782E08093C7028091C202ED
:103300009091C302892B59F18CE38093C6021092ED
:103310006201109261011092F9011092F80110926D
:10332000600181E080935F0110925E0161E082E1C3
:103330000E94511261E083E10E9451128091B90014
:103340008E7F8093B9008091B9008D7F8093B90002
:1033500088E48093B80085E48093BC00B6C0809177
:10336000CB020E9469188091CC020E94691880915A
:10337000CB02082E000C990BFC01E753F54FE491AA
:10338000F0E0EE0FFF1FEB54F54F25913491309391
:10339000D3022093D202FC01E352F54FE491E09373
:1033A000D8028091CC02082E000C990BFC01E75347
:1033B000F54FE491F0E0EE0FFF1FEB54F54FA591B0
:1033C000B491B093D502A093D402FC01E352F54F1F
:1033D000E491E093D9028C91E82BEC938091C002A8
:1033E0009091C102892B89F11FB7F89480916301F4
:1033F000811124C0E3EDFAE08491E7EEFAE09491C4
:10340000E82FF0E0EE0FFF1FE154F54FA591B491C6
:10341000EC91E92321F461E08AE00E9451128AE0F4
:103420000E9469188CB580618CBD8CB580648CBDA0
:103430008DE00E9469188BE00E94691880916301F9
:103440008F5F809363011FBF40C08091C9020E94BB
:1034500069188091CA020E9469188091C902082ED9
:10346000000C990BFC01E753F54FE491F0E0EE0FEF
:10347000FF1FEB54F54F259134913093CF022093E9
:10348000CE02FC01E352F54FE491E093D602809125
:10349000CA02082E000C990BFC01E753F54FE4918A
:1034A000F0E0EE0FFF1FEB54F54FA591B491B093F0
:1034B000D102A093D002FC01E352F54FE491E093D6
:1034C000D7028C91E095E823EC938091CD0287FDA3
:1034D0001DC00E94691861E08091CD020E945112C6
:1034E00061E070E080E090E00E949D1260E08091D9
:1034F000CD020E9451126AE070E080E090E00E94EC
:103500009D1261E08091CD020E9451128091C20211
:103510009091C302892B59F06091DA027091DB021D
:103520008091DC029091DD020E945E0D16C08091B8
:10353000C0029091C102892B31F08091E3029091F9
:10354000E4020E942D0CE091D402F091D50290810A
:103550008091D90280958923808364E086E790E09A
:103560000E94CB136091AB02615085EA92E00E9409
:10357000211364E082E790E00E94CB138091C702A0
:10358000813011F064E101C060E185EA92E00E94BF
:10359000211364E08EE690E00E94CB138FE88093C5
:1035A000E2028091A9029091AA028038910591F4DB
:1035B0008091AB029091AC0280349105E9F4809146
:1035C000C702813011F08FEC01C08FE98093E202D5
:1035D00012E113C08036910579F48091AB0290918D
:1035E000AC02409749F48091C702813011F08FEA14
:1035F00001C080E18093E20212E06AED85EA92E088
:103600000E942113612F85EA92E00E94211361E854
:1036100085EA92E00E9421136091E20285EA92E03D
:103620000E94211369ED85EA92E00E9421138091A6
:10363000C702813011F061EF01C062E285EA92E0D9
:103640000E94211366E088E690E00E94CB138091EF
:10365000C2029091C302892B59F06091DE027091F1
:10366000DF028091E0029091E1020E945E0D11C0A4
:10367000E091D402F091D50290818091D902892BFA
:1036800080838091C0029091C102892B11F00E9429
:10369000250C0E94831460ED77E080E090E00E94AA
:1036A0009D120E94AB1521E030E04AE050E06AE054
:1036B00070E085EA92E00E94A4100E94831460EDFD
:1036C00077E080E090E00E949D120E94AB15C12C33
:1036D000D12C8091AD029091AE02C816D906F4F4B7
:1036E0000091AF021091B00201501109EE24E39451
:1036F000F12C960140E050E060E070E085EA92E055
:103700000E9421090E94831461E070E080E090E053
:103710000E949D1254E0C50ED11CDBCFC12CD12CD0
:103720008091AF029091B002C816D906F4F42091AE
:10373000AD023091AE0221503109EE24E394F12C18
:10374000860140E050E060E070E085EA92E00E948F
:1037500021090E94831461E070E080E090E00E9403
:103760009D1264E0C60ED11CDBCF6AEF70E080E0F2
:1037700090E00E949D120E94AB15A12CB12C80916B
:10378000AD029091AE02C090AF02D090B002A816E8
:10379000B906DCF4A60141505109EE24E394F12C62
:1037A00000E010E0950160E070E085EA92E00E94A0
:1037B00021090E94831461E070E080E090E00E94A3
:1037C0009D1274E0A70EB11CDACF81E0C81AD108AF
:1037D000D7FC22C02091AD023091AE0221503109B8
:1037E0004091AF025091B00241505109EE24E39450
:1037F000F12C860160E070E085EA92E00E942109E8
:103800000E94831461E070E080E090E00E949D12CD
:1038100094E0C91AD108DCCF6AEF70E080E090E054
:103820000E949D120E94AB15A090AD02B090AE0216
:10383000A1E0AA1AB108C090AF02D090B002B7FCC4
:103840001FC0A601415051096091AD027091AE02B6
:1038500061507109EE24E394F12C00E010E0950131
:1038600085EA92E00E9421090E94831461E070E0E1
:1038700080E090E00E949D12B4E0AB1AB108DBCF6B
:10388000E1E0CE1AD108D7FC22C04091AF0250919E
:10389000B002415051096091AD027091AE02615089
:1038A0007109EE24E394F12C860120E030E085EAF2
:1038B00092E00E9421090E94831461E070E080E0A0
:1038C00090E00E949D12F4E0CF1AD108DCCF6AEF9D
:1038D00070E080E090E00E949D120E94AB15C12C28
:1038E000D12C8091AF029091B002C816D906F4F4A1
:1038F0006091AD027091AE0261507109EE24E394C3
:10390000F12C860120E030E040E050E085EA92E0D2
:103910000E9421090E94831461E070E080E090E041
:103920000E949D1224E0C20ED11CDBCFC12CD12CF1
:103930006091AD027091AE02C616D706F4F4009104
:10394000AF021091B0020150110961507109EE24CB
:10395000E394F12C960140E050E085EA92E00E9469
:1039600021090E94831461E070E080E090E00E94F1
:103970009D1234E0C30ED11CDBCF60ED77E080E018
:1039800090E00E949D120E94AB15A12CB12CC12C7D
:10399000D12C0091AF021091B002C80117FD019621
:1039A00095958795C816D90604F50A0D1B1D20911B
:1039B000AD023091AE022A0D3B1DEE24E394F12CB2
:1039C000A601B60185EA92E00E94C2080E94831413
:1039D00061E070E080E090E00E949D1242E0C40E41
:1039E000D11C54E0A51AB108D4CF60ED77E080E097
:1039F00090E00E949D120E94AB15A12CB12CC12C0D
:103A0000D12C0091AF021091B002C80117FD0196B0
:103A100095958795C816D90604F50A0D1B1D2091AA
:103A2000AD023091AE022A0D3B1D42E0E42EF12C96
:103A3000A601B60185EA92E00E94B6090E948314AD
:103A400061E070E080E090E00E949D1263E0C60EAD
:103A5000D11C76E0A71AB108D4CF60ED77E080E002
:103A600090E00E949D120E94AB1518AA1FA6C12CBF
:103A7000D12CE090AD02F090AE024090AF02509099
:103A8000B0024E145F0424F4C701F7FE04C002C064
:103A9000C20157FC019695958795C816D9060CF07A
:103AA000D3C057FE03C08FEF481A580A5594479465
:103AB000F7FE03C09FEFE91AF90AF594E794A1E035
:103AC000B0E0AC19BD09BCA3ABA3EFA5F8A9FAA758
:103AD000E9A721E030E0A2014C0D5D1DB70185EAA8
:103AE00092E00E94B80A21E030E0A2014C195D0981
:103AF000B70185EA92E00E94B80AB7016C0D7D1DFE
:103B000021E030E0A20185EA92E00E94B80AB70104
:103B10006C197D0921E030E0A20185EA92E00E9463
:103B2000B80A8601212C312C21E030E03EA32DA3E0
:103B3000201631060CF077C04BA15CA157FD0CC0DC
:103B40000150110969A57AA56E5F7F4F7AA769A711
:103B5000460F571F5CA34BA37FEF271A370A8DA18F
:103B60009EA102969EA38DA3ABA1BCA1A80FB91FD5
:103B7000BCA3ABA331016E0C7F1C21E030E05201ED
:103B8000A00EB11EA501B30185EA92E00E94B80A19
:103B900047018218930821E030E0A501B40185EACD
:103BA00092E00E94B80A21E030E05201A01AB10A66
:103BB000A501B30185EA92E00E94B80A21E030E055
:103BC000A501B40185EA92E00E94B80A5101A40C53
:103BD000B51C21E030E0A5014701800E911EB40123
:103BE00085EA92E00E94B80A21E030E0A501570181
:103BF000A01AB10AB50185EA92E00E94B80A320122
:103C00006218730821E030E0A301B40185EA92E074
:103C10000E94B80A21E030E0A301B50185EA92E0F4
:103C20000E94B80A85CF0E94831461E070E080E0B2
:103C300090E00E949D12B2E0CB0ED11CEFA5F8A936
:103C40003497F8ABEFA715CF60ED77E080E090E018
:103C50000E949D120E94AB158091AD029091AE0220
:103C6000E090AF02F090B002E816F90664F47C012F
:103C700097FF03C0FFEFEF1AFF0AF594E79457018F
:103C8000AA0CBB1C3DC0F7FEF8CF2FEFE21AF20AD8
:103C9000F4CF6091AF027091B00277FF02C06F5F06
:103CA0007F4F4B01959487948091AD029091AE0225
:103CB00097FD01966C01D594C79495012F5F3F4FF6
:103CC000A4014E195F0902E010E0B60185EA92E016
:103CD0000E94AC0A00E010E023E0A701B401C60195
:103CE0000E94CB150E94831461E070E080E090E0B8
:103CF0000E949D1233E0E31AF10846E0A41AB108CD
:103D00001E141F0434F260ED77E080E090E00E9422
:103D10009D120E94AB15612C712CC12CD12C4090AE
:103D2000AF025090B002C20157FC0196959587955D
:103D30000297C816D9060CF091C0C20157FC039631
:103D40009595879595958795460C571C2090AD02C3
:103D50003090AE02260C371C241435043CF471015B
:103D600037FE0AC05FEFE51AF50A06C0720157FE7A
:103D700003C06FEFE61AF60AF594E7948E159F05D7
:103D80000CF47C01882499248E189F08880C991CB7
:103D9000C101880D991D9CA38BA35601AE0CBF1CBD
:103DA00001E010E09C01A601B50185EA92E00E94C5
:103DB000A00AD601A40DB51DBAA7A9A7AD0141500F
:103DC00051092BA13CA1B50185EA92E00E94A00A0D
:103DD000840C951C9401A501B60185EA92E00E942D
:103DE000AC0A2C0C3D1CB101615071099401A50174
:103DF00085EA92E00E94AC0A21E0A701B501C50165
:103E00000E9495162E183F08B1E02B1A310822E0C7
:103E1000A701B501C1010E94951609A51AA50E19A1
:103E20001F090150110924E0A701B801C1010E9436
:103E3000951628E0A701B801C5010E9495160E94B9
:103E4000831461E070E080E090E00E949D12E2E067
:103E5000CE0ED11CF4E06F1A710861CF60ED77E0EF
:103E600080E090E00E949D120E94AB151CA21BA254
:103E7000412C512CA090AF02B090B002C501B7FC0C
:103E80000196959587950297481659060CF067C0DC
:103E90009501B7FE02C02D5F3F4F359527953595AB
:103EA00027954BA15CA1A40EB51E8090AD02909009
:103EB000AE02840E951E8A149B043CF4640197FEA6
:103EC0000AC05FEFC51AD50A06C06501B7FE03C078
:103ED0006FEFC61AD60AD594C7942C153D050CF47D
:103EE0006901662477246C187D08660C771C120122
:103EF0002C0C3D1C9401260D371DB2E0EB2EF12C4D
:103F00008501A201B10185EA92E00E94900AA60C07
:103F1000B71C71E0A71AB108C201880D991D8C1950
:103F20009D09850121E0A601B10101970E94CB15F1
:103F300022E0A601B101C1010E94CB150E948314A9
:103F400061E070E080E090E00E949D1282E0480E07
:103F5000511CABA1BCA11497BCA3ABA38BCF60ED4C
:103F600077E080E090E00E949D120E94AB15812CCA
:103F7000912CA090AD02B090AE02C090AF02D09054
:103F8000B002CA14DB0424F4C501B7FE04C002C0A9
:103F9000C601D7FC019695958795881699060CF071
:103FA0003FC0D7FE03C0BFEFCB1ADB0AD594C7943E
:103FB0003601680C791CB7FE03C0EFEFAE1ABE0ADB
:103FC000B594A7941501280C391C250148185908E7
:103FD000C818D908EE24E394F12C83019201A601BC
:103FE000B50185EA92E00E9421099101A301B20185
:103FF00085EA92E00E94210986019501A301B101A1
:1040000085EA92E00E9421090E94831461E070E039
:1040100080E090E00E949D12F5E08F0E911CA9CFE8
:1040200060ED77E080E090E00E949D120E94AB1569
:104030008091AD029091AE028090AF029090B0025C
:10404000881699063CF44C0197FF09C02FEF821A9D
:10405000920A05C097FE03C03FEF831A930A959416
:104060008794181419040CF086C18091AF029091C6
:10407000B00297FD0196959587956C01C80CD91CE7
:104080006091AD027091AE0277FF02C06F5F7F4F0B
:10409000759567951B01280C391C7B01E818F908F8
:1040A000AC01481959095CA34BA3C416D50624F4E6
:1040B000C416D50679F50CC02BA13CA12C153D05E5
:1040C00009F07BC5922D832D17017B01692F782F75
:1040D0002E143F0454F09E2D8F2DE214F30414F49B
:1040E000922D832D1701E92EF82E621573052CF001
:1040F000E616F7060CF47B01B1019701261B370B7E
:104100002F5F3F4F02E010E0A60185EA92E00E9497
:10411000A00A25C191012E193F096BA17CA16C1940
:104120007D097AA769A7882799278819990998AFDF
:104130008FAB78AB6FA7D6011197BAAFA9AFDEA648
:10414000CDA680E090E0ADA4BEA41BAA1CAA1DAA27
:104150001EAA412C512C3201A401092C000C660B23
:10416000770B4BAF5CAF6DAF7EAFAC01990F660BB9
:10417000770B23964CAF5DAF6EAF7FAF239769A5EA
:104180007AA5072E000C880B990B27966CAF7DAF94
:104190008EAF9FAF2797C901330FAA0BBB0B2B968E
:1041A0008CAF9DAFAEAFBFAF2B97A9ADBAADAA157F
:1041B000BB050CF454C0C301B20123962CAD3DAD38
:1041C0004EAD5FAD23970E94E826D701A20FB31F23
:1041D000BEA3ADA36BA97CA98DA99EA927962CADE2
:1041E0003DAD4EAD5FAD27970E94E8262E0D3F1DD9
:1041F0002B964CAD5DAD6EAD7FAD2B97440E551E2D
:10420000661E771E8BA99CA9ADA9BEA94BAD5CAD5E
:104210006DAD7EAD840F951FA61FB71F8BAB9CABFA
:10422000ADABBEAB6DA17EA12617370734F49DA1BF
:104230008EA13EA32DA3292F382F8DA19EA1281B2F
:10424000390B2F5F3F4F02E010E0A501BC0185EA6A
:1042500092E00E94A00A9FEFA91AB90AA6CF2FA93F
:1042600038AD032E000C440B550B2BAB3CAB4DABC8
:104270005EABD501AC19BD092FA938AD0E944B2703
:104280002B013C01D5014DA55EA5A41BB50B9401E6
:104290000E944B276DA37EA38FA398A76FA578A933
:1042A000072E000C880B990B6FA778AB89AB9AABE4
:1042B00089A59AA5092E000CAA0BBB0B89A79AA762
:1042C000ABA7BCA76BA17CA16A157B050CF447C00A
:1042D000C301B2012FA538A949A95AA90E94E8260D
:1042E0006101C20ED31E6DA17EA18FA198A529A543
:1042F0003AA54BA55CA50E94E8262E0D3F1D4BA9B3
:104300005CA96DA97EA9440E551E661E771E8DA15F
:104310009EA1AFA1B8A54BAD5CAD6DAD7EAD840FD8
:10432000951FA61FB71F8DA39EA3AFA3B8A72C15DB
:104330003D052CF49C2D8D2D6901292F382F2C192A
:104340003D092F5F3F4F02E010E0A501B60185EA6D
:1043500092E00E94A00A5FEFA51AB50AB3CF0E94AF
:10436000831461E070E080E090E00E949D1275E0AF
:10437000871A910876CE60ED77E080E090E00E94A9
:104380009D120E94AB1581E08093B9028093BA021E
:1043900021E030E03093B8022093B7023093B602A8
:1043A0002093B5021092B2021092B1021092B402A0
:1043B0001092B3028093BD0200E010E00A301105B4
:1043C00011F460E201C0602F85EA92E00E94EA07E2
:1043D0000F5F1F4F011581E0180781F70E948314BA
:1043E00060ED77E080E090E00E949D120E94AB15A6
:1043F00081E08093B9028093BA0201E010E010934B
:10440000B8020093B7021093B6020093B50210925F
:10441000B2021092B1021092B4021092B3026DE196
:1044200075E085EA92E00E94E5111092B6021092C2
:10443000B5021093B8020093B7022AE043E050E0BF
:1044400060E070E085EA92E00E949C11E091A50294
:10445000F091A6020190F081E02D6EE285EA92E0F3
:1044600009952AE041E050E060E070E085EA92E0E2
:104470000E949C112AE044E050E060E070E085EA90
:1044800092E00E949C116AE571E085EA92E00E9448
:10449000871182E0F82EF092B902F092BA021093DE
:1044A000B8020093B7021093B6020093B5026AE116
:1044B00075E085EA92E00E94631120E14FEE5EEB29
:1044C0006DEA7EED85EA92E00E949C116AE571E05A
:1044D00085EA92E00E9487110E94831460ED77E0E4
:1044E00080E090E00E949D120E94AB15F092B9020C
:1044F000F092BA021093B8020093B7021093B6027A
:104500000093B5028AE090E09093B2028093B102EA
:104510001092B4021092B30261E475E085EA92E071
:104520000E94E5110E94831464E670E080E090E050
:104530000E949D128091C2029091C302892B59F072
:104540006091DA027091DB028091DC029091DD02D1
:104550000E945E0D16C08091C0029091C102892B0D
:1045600031F08091E3029091E4020E942D0CE091E1
:10457000D402F091D50290818091D902809589234F
:10458000808362E08EE295E00E94CB1360E085EAD2
:1045900092E00E94211360E085EA92E00E942113DC
:1045A0006FE085EA92E00E94211363E08BE295E0E0
:1045B0000E94CB138091C2029091C302892B59F0C3
:1045C0006091DE027091DF028091E0029091E10241
:1045D0000E945E0D11C0E091D402F091D50290814D
:1045E0008091D902892B80838091C0029091C10271
:1045F000892B11F00E94250C60ED77E080E090E0BF
:104600000E949D120E94551768EE73E080E090E0D2
:104610000E949D128091C2029091C302892B59F091
:104620006091DA027091DB028091DC029091DD02F0
:104630000E945E0D16C08091C0029091C102892B2C
:1046400031F08091E3029091E4020E942D0CE09100
:10465000D402F091D50290818091D902809589236E
:10466000808362E083E395E00E94CB1360E085EAFB
:1046700092E00E94211360E085EA92E00E942113FB
:104680006FE085EA92E00E94211363E080E395E009
:104690000E94CB138091C2029091C302892B59F0E2
:1046A0006091DE027091DF028091E0029091E10260
:1046B0000E945E0D11C0E091D402F091D50290816C
:1046C0008091D902892B80838091C0029091C10290
:1046D000892B11F00E94250C60ED77E080E090E0DE
:1046E0000E949D120E94551768EE73E080E090E0F2
:1046F0000E949D128091C2029091C302892B59F0B1
:104700006091DA027091DB028091DC029091DD020F
:104710000E945E0D16C08091C0029091C102892B4B
:1047200031F08091E3029091E4020E942D0CE0911F
:10473000D402F091D50290818091D902809589238D
:10474000808362E089E395E00E94CB136091AB0225
:1047500085EA92E00E94211362E087E395E00E94DF
:10476000CB1360E085EA92E00E94211360E085EAC5
:1047700092E00E94211367E085EA92E00E942113F3
:1047800062E085E395E00E94CB138091C202909194
:10479000C302892B59F06091DE027091DF02809193
:1047A000E0029091E1020E945E0D11C0E091D402FE
:1047B000F091D50290818091D902892B80838091DC
:1047C000C0029091C102892B11F00E94250C60ED6E
:1047D00077E080E090E00E949D128091C20290916B
:1047E000C302892B59F06091DA027091DB0280914B
:1047F000DC029091DD020E945E0D16C08091C00225
:104800009091C102892B31F08091E3029091E402F2
:104810000E942D0CE091D402F091D50290818091FC
:10482000D90280958923808362E08FE395E00E941E
:10483000CB136091AB0285EA92E00E94211362E003
:104840008DE395E00E94CB1360E085EA92E00E9440
:10485000211360E085EA92E00E94211367E085EA77
:1048600092E00E94211362E08BE395E00E94CB135B
:104870008091C2029091C302892B59F06091DE02AF
:104880007091DF028091E0029091E1020E945E0D42
:1048900011C0E091D402F091D50290818091D902AB
:1048A000892B80838091C0029091C102892B11F0E5
:1048B0000E94250C60ED77E080E090E00E949D1260
:1048C0000E94551768EE73E080E090E00E949D1210
:1048D0000E94AB158091AF029091B002AC014051A3
:1048E000510957FF02C04F5F5F4F55954795809123
:1048F000AD029091AE02BC016051710977FF02C018
:104900006F5F7F4F75956795E0E1EE2EF12C00E12A
:1049100010E027E535E085EA92E00E94A3170E94A7
:10492000831468EE73E080E090E00E949D1261E0E5
:1049300085EA92E00E94841368EE73E080E090E0E4
:104940000E949D1260E085EA92E00E94841368EE66
:1049500073E080E090E00E949D128E010F5F1F4F78
:10496000DE0112965D01FAE09F2EA0EF8A2EB5E0DF
:104970004B2E512C612C712CC090AD02D090AE0208
:104980000D2C000CEE08FF08B2EFCB16BFEFDB06D4
:10499000EB06FB0684F00E94DA26A7019601215F50
:1049A0003F4F4F4F5F4F0E94E826DC01CB010F972E
:1049B000A109B10904C081EF9FEFAFEFBFEFF8018C
:1049C0008083D5018C920E94DA26A30192010E9475
:1049D000E8266B017C01BFEFCB1ADB0AEB0AFB0A6E
:1049E000F801C28263E575E08CEF91E00E946311EB
:1049F000D8014C91042E000C550B660B770B77FFFA
:104A000005C0CB01BA010E94401805C02AE08CEF16
:104A100091E00E949C116EE475E08CEF91E00E94A1
:104A20006311F5014081042E000C550B660B770BCA
:104A300077FF05C0CB01BA010E94401805C02AE0EB
:104A40008CEF91E00E949C1168E475E08CEF91E09E
:104A50000E946311F7FE05C0C701B6010E9440180D
:104A600007C02AE0B701A6018CEF91E00E949C11DB
:104A70006AE571E08CEF91E00E9487119A94F3E06F
:104A8000AF0EB11C0D5F1F4F911076CF9E01215EBE
:104A90003F4F38A32F8FAE014F5D5F4F5AA349A3FD
:104AA00090EF392E25E0422E512C612C712C0E9462
:104AB000AB15BE016F5F7F4F6B01D60111964C9114
:104AC0001197042E000C550B6C91062E000C770BE1
:104AD00080E1E82EF12C00E110E027E535E085EAE1
:104AE00092E00E94A317B3E0CB0ED11CEF8DF8A18A
:104AF000CE16DF0611F70E94831468EC70E080E0A8
:104B000090E00E949D129E012D5F3F4F7901AE0102
:104B10004E5F5F4F6A01D7019C91F6018081890F3A
:104B20008083082E000C990B2091AF023091B002C7
:104B300082179307ACF12091AD023091AE0249018A
:104B4000330FAA08BB08F2EF8F16FFEF9F06AF06E0
:104B5000BF0684F00E94DA26A5019401215F3F4F31
:104B60004F4F5F4F0E94E826DC01CB010F97A10950
:104B7000B10904C081EF9FEFAFEFBFEFF7013297AC
:104B80008083D6013C920E94DA26A30192010E9402
:104B9000E826DC01CB010196A11DB11DF701808340
:104BA000F3E0CF0ED11C23E0E20EF11C49A15AA183
:104BB000E416F50609F0AFCF7ACF2227332728195C
:104BC0003909C601ABA1BCA18A1B9B0B9AA789A777
:104BD000F101EE19FF09F8AFEFAB17017B01BEA79A
:104BE000ADA7DCA2CBA2DAAEC9AE18AA1FA6ABCA8B
:104BF00082E391E09093A6028093A5028091C40283
:104C00009091C502009711F00C94F5270895ECEFF0
:104C1000F1E01382128248EE53E060E070E04483DA
:104C20005583668377838EE091E09183808385EC62
:104C300090E09587848784EC90E09787868780EC66
:104C400090E0918B808B81EC90E0938B828B82EC57
:104C500090E0958B848B86EC90E0978B868B118E01
:104C6000128E138E148EA9E9B2E013961C921E9236
:104C7000129714964D935D936D937C93179780E2F2
:104C800091E011969C938E93E5EAF2E013821282F2
:104C900020E830E03583248380E490E097838683A6
:104CA0003187208793878287168A15861486178610
:104CB000168681E0858B848B2FEF3FEF338B228B21
:104CC000318B208B878B108E128E118E82E391E0B8
:104CD00091838083148E138EB68FA58F10A2178EAA
:104CE0008FEF84A385A386A387A380A780E89AE19A
:104CF000A6E0B0E085AB96ABA7ABB0AF80EA96E894
:104D0000A1E0B0E081AF92AFA3AFB4AF80E58093F4
:104D1000E3021092E40208958F929F92AF92BF92A5
:104D2000CF92DF92EF92FF92CF93DF93EC016881F5
:104D300079818A819B81611571058105910521F435
:104D400064E279ED8BE597E02DE133EF41E050E04F
:104D50000E94E82649015A019B01AC01A7EAB1E48F
:104D60000E9407276B017C01ACEEB4EFA501940112
:104D70000E941527DC01CB018C0D9D1DAE1DBF1DB2
:104D8000B7FF03C00197A109B04888839983AA831C
:104D9000BB83BC01CD019F77DF91CF91FF90EF9056
:104DA000DF90CF90BF90AF909F908F9008950E941A
:104DB0008C26089580E091E00E948C2608956093EF
:104DC0000001709301018093020190930301089503
:104DD000052E97FB1EF400940E94FF2657FD07D076
:104DE0000E941A2707FC03D04EF40C94FF2650951E
:104DF0004095309521953F4F4F4F5F4F08959095C7
:104E00008095709561957F4F8F4F9F4F08950E94B9
:104E10003C27A59F900DB49F900DA49F800D911DE0
:104E200011240895B7FF0C9407270E940727821BBF
:104E3000930B0895A1E21A2EAA1BBB1BFD010DC006
:104E4000AA1FBB1FEE1FFF1FA217B307E407F5073A
:104E500020F0A21BB30BE40BF50B661F771F881F16
:104E6000991F1A9469F760957095809590959B01AC
:104E7000AC01BD01CF010895A29FB001B39FC00155
:104E8000A39F700D811D1124911DB29F700D811D76
:104E90001124911D08950E943C27332312F48A1B8C
:104EA0009B0B0C9455270E943C27B7FF0895821B4B
:104EB000930B0895EE0FFF1F0590F491E02D0994D8
:104EC000CF93DF938230910510F482E090E0E0917F
:104ED000E702F091E80220E030E0C0E0D0E0309757
:104EE00011F14081518148175907C0F048175907FF
:104EF00061F482819381209719F09B838A832BC070
:104F00009093E8028093E70226C02115310519F03D
:104F10004217530718F49A01BE01DF01EF01028026
:104F2000F381E02DDCCF2115310509F1281B390B68
:104F30002430310590F412968D919C911397611550
:104F4000710521F0FB019383828304C09093E802F2
:104F50008093E702FD01329644C0FD01E20FF31F8A
:104F600081939193225031092D933C933AC0209123
:104F7000E5023091E602232B41F4209106013091A5
:104F800007013093E6022093E5022091040130915D
:104F900005012115310541F42DB73EB740910801B7
:104FA00050910901241B350BE091E502F091E602D6
:104FB000E217F307A0F42E1B3F0B2817390778F0F0
:104FC000AC014E5F5F4F2417350748F04E0F5F1F4F
:104FD0005093E6024093E5028193919302C0E0E092
:104FE000F0E0CF01DF91CF9108950F931F93CF93FE
:104FF000DF93009709F48CC0FC0132971382128270
:105000000091E7021091E8020115110581F4208159
:105010003181820F931F2091E5023091E60228171B
:10502000390779F5F093E602E093E50271C0D80103
:1050300040E050E0AE17BF0750F412962D913C911E
:105040001397AD012115310509F1D901F3CF9D0168
:10505000DA013383228360817181860F971F821763
:10506000930769F4EC0128813981260F371F2E5FE1
:105070003F4F318320838A819B8193838283452B99
:1050800029F4F093E802E093E70242C01396FC9300
:10509000EE931297ED01499159919E01240F351F0E
:1050A000E217F30771F480819181840F951F0296B6
:1050B00011969C938E938281938113969C938E93E9
:1050C0001297E0E0F0E0D80112968D919C91139731
:1050D000009719F0F8018C01F6CF8D919C91980101
:1050E0002E5F3F4F820F931F2091E5023091E60221
:1050F0002817390769F4309729F41092E8021092C2
:10510000E70202C0138212821093E6020093E502C6
:10511000DF91CF911F910F91089581E090E0F89475
:105120000C949928DC0101C06D9341505040E0F788
:10513000089515E0CCE7D5E004C0FE010E945A278F
:0C5140002196CD37D107C9F7F894FFCFB6
:10514C00010000000000E902800000000000620E77
:10515C00CF0DFA0DA90E2B0E090E1D0E000000002E
:10516C00F20BC20B220C9C0BBA0BAB0B9D0B000071
:10517C000000EA07CF0D220C210CA410BF0AB80ABC
:10518C00900AAC0AA00AC00A8F0AA805841315104D
:0E519C005910B60998092109C2080D0A000031
:00000001FF
