:100000000C944D050C9475050C9475050C947505B0
:100010000C9475050C9475050C9475050C94750578
:100020000C9475050C9475050C9475050C94750568
:100030000C9475050C9475050C9475050C94750558
:100040000C94070F0C9475050C9475050C947505AC
:100050000C9475050C9475050C9475050C94750538
:100060000C945C0F0C94750500000000003E5B4F83
:100070005B3E3E6B4F6B3E1C3E7C3E1C183C7E3C08
:10008000181C577D571C1C5E7F5E1C00183C180016
:10009000FFE7C3E7FF0018241800FFE7DBE7FF30A6
:1000A000483A060E2629792926407F050507407F14
:1000B00005253F5A3CE73C5A7F3E1C1C08081C1C87
:1000C0003E7F14227F22145F5F005F5F06097F017D
:1000D0007F006689956A606060606094A2FFA29468
:1000E00008047E040810207E201008082A1C080836
:1000F0001C2A08081E101010100C1E0C1E0C303884
:100100003E3830060E3E0E06000000000000005F84
:1001100000000007000700147F147F14242A7F2AA0
:100120001223130864623649562050000807030062
:10013000001C2241000041221C002A1C7F1C2A08AE
:10014000083E080800807030000808080808000011
:1001500060600020100804023E5149453E00427F85
:10016000400072494949462141494D331814127FD4
:100170001027454545393C4A494931412111090774
:100180003649494936464949291E000014000000F5
:1001900040340000000814224114141414140041C7
:1001A00022140802015909063E415D594E7C121184
:1001B000127C7F494949363E414141227F414141BC
:1001C0003E7F494949417F090909013E4141517337
:1001D0007F0808087F00417F41002040413F017FA8
:1001E000081422417F404040407F021C027F7F0470
:1001F00008107F3E4141413E7F090909063E4151B9
:10020000215E7F09192946264949493203017F01A8
:10021000033F4040403F1F2040201F3F4038403FA9
:10022000631408146303047804036159494D4300BF
:100230007F4141410204081020004141417F0402F6
:10024000010204404040404000030708002054548D
:1002500078407F284444383844444428384444286B
:100260007F385454541800087E090218A4A49C78BE
:100270007F0804047800447D40002040403D007F1A
:100280001028440000417F40007C047804787C08FA
:100290000404783844444438FC18242418182424CE
:1002A00018FC7C08040408485454542404043F44B3
:1002B000243C4040207C1C2040201C3C4030403CE2
:1002C00044281028444C9090907C4464544C440042
:1002D00008364100000077000000413608000201A6
:1002E0000204023C2623263C1EA1A161123A404092
:1002F000207A38545455592155557941225454780F
:1003000042215554784020545579400C1E527212A7
:100310003955555559395454545939555454580030
:1003200000457C410002457D420001457C407D1234
:1003300011127DF0282528F07C5455450020545496
:100340007C547C0A097F4932494949323A44444441
:100350003A324A4848303A4141217A3A424020787C
:10036000009DA0A07D3D4242423D3D4040403D3C7D
:1003700024FF2424487E4943662B2FFC2F2BFF09A2
:1003800029F620C0887E0903205454794100004496
:100390007D413048484A32384040227A007A0A0A81
:1003A000727D0D19317D2629292F282629292926F4
:1003B00030484D4020380808080808080808382F39
:1003C00010C8ACBA2F102834FA00007B00000814C3
:1003D0002A142222142A14085500550055AA55AA99
:1003E00055AAFF55FF55FF000000FF00101010FF39
:1003F00000141414FF001010FF00FF1010F010F094
:10040000141414FC001414F700FF0000FF00FF1484
:1004100014F404FC141417101F10101F101F1414D0
:10042000141F00101010F0000000001F101010101A
:100430001F10101010F010000000FF10101010100E
:1004400010101010FF10000000FF140000FF00FF4C
:1004500000001F10170000FC04F4141417101714E8
:1004600014F404F40000FF00F7141414141414140A
:10047000F700F7141414171410101F101F1414147D
:10048000F4141010F010F000001F101F0000001FE7
:1004900014000000FC140000F010F01010FF10FF1A
:1004A000141414FF141010101F00000000F010FFAF
:1004B000FFFFFFFFF0F0F0F0F0FFFFFF0000000093
:1004C00000FFFF0F0F0F0F0F3844443844FC4A4A17
:1004D0004A347E02020606027E027E0263554941CC
:1004E000633844443C04407E201E2006027E020203
:1004F00099A5E7A5991C2A492A1C4C7201724C3017
:100500004A4D4D303048784830BC625A463D3E49ED
:100510004949007E0101017E2A2A2A2A2A44445F91
:10052000444440514A444040444A51400000FF0185
:1005300003E080FF000008086B6B08361236243693
:10054000060F090F060000181800000010100030F8
:1005500040FF0101001F01011E00191D1712003C80
:100560003C3C3C0000000000000103070F1F3F7FE0
:100570000080C0E0F0F8FCFE00000008000201006E
:10058000000304070000000000000000DB40A4A6F8
:100590002EAF2000A1C8D300408DAED580A80000AA
:1005A000600000000000000000000000000000E00B
:1005B0000000000000000000000000000001E0005A
:1005C00000000000000000000000000001F000003A
:1005D000000000000000000000000003F000000028
:1005E0000000000000000000000007F00000000014
:1005F00000000000000000000007F80000000000FC
:1006000000000000000000000FF800000003C00020
:100610007E000001E0007F0FF800000003C000FE34
:10062000000001E000FFEFF800000003C000FE0042
:100630000001E000FFFFF800000003C000F0000030
:10064000000F007FFE7FC0000003C000F00000002C
:100650000F003FFE7FF83FF1FBCFFCFEF3BC3DEF08
:10066000E01FFE7FFF7FFBFFDFFEFEFFBC3DEFE0F4
:100670001FC6FFFF7FFBFFDFFEFEFFBC3DEFE00F6D
:10068000E3C7FE787BC3DE1EF0FFBC3DEF0007FF33
:1006900087FC787BC3DE1EF0F83C3DEF0001FFFFD6
:1006A000F0007BC3C01EF0F03C3DEF0001F37FE0A3
:1006B0003FFBC3CFFEF0F03C3DEF0003E33F807F04
:1006C000FBC3DFFEF0F03C3DEF0007E73C00787B2A
:1006D000C3DE1EF0F03C3DEF0007FFBE00787BC399
:1006E000DE1EF0F03C3DEF0007FFFE00787BC3DE2E
:1006F0001EF0F03C3DEF000FFFFE007FFBFFDFFE32
:10070000F0F03FFDEFE00FFFFF007FFBFFDFFEF0AB
:10071000F03FFDEFE00FF9FF003E79F9CF9EF0F0DA
:100720001F3DE7E01FF1FF00000000000000000097
:100730000000001F80FF007FFFFFFFFFFFFFFFFFA4
:10074000FFE01C007F007FFFFFFFFEB46D888D1867
:10075000E000001F007FFFFFFFFE95AD7DB577E055
:1007600000000F007FFFFFFFFEA5AD9D8D19E0008B
:100770000006007FFFFFFFFEB5ADEDB57EE0000097
:100780000000000180000000000000000000038065
:1007900000000000000000000007C0000000000092
:1007A0000000000007C00000000000000000000F73
:1007B000C00000000000000000001FE0000000007A
:1007C00000000000001FE00000000000000000002A
:1007D0003FE00000000000000000003FF0000000CB
:1007E0000000000000007FF0000000000000001F7B
:1007F000F87FF0000000000000003FFE7FF00000E6
:1008000000000000003FFF7FF0000000000000003B
:100810001FFFFBE0000000000000000FFFF9FFC019
:100820000000000000000FFFF9FFF80000000000CA
:100830000007FFF1FFFF00000000000003FC73FF52
:10084000FF80000000000001FE3FFFFF800000006D
:10085000000000FF1E0FFF000000000000007FFEF0
:100860001FFC000000000000003FFFFFF800000038
:10087000000000000FDFFFE0000000000000001F8C
:1008800019FFC0000000000000003F3CFF00000016
:1008900000000000007E7CF8000000000000000066
:1008A0007FFE7C0000000000000000FFFFFC000055
:1008B000000000000000FFFFFE000000000000003C
:1008C00000FFFFFE0000000000000001FFEFFE003F
:1008D00000000000000001FFCFFE0000000000004B
:1008E0000003FF07FE0000000000000003FC07FEFD
:1008F0000000000000000003F003FE000000000004
:100900000000018000FE0000000000000000000068
:100910007E000000000000000000003E000000001B
:100920000000000000000C00000000000007800034
:10093000FC000003C0000000078001FC000003C0B1
:10094000000000078001FC000003C00000000780D9
:1009500001E00000001E000000078001E000000030
:100960001E007FE3F79FF9FDE7787BDFC0FFF7FF0D
:10097000BFFDFDFF787BDFC0FFF7FFBFFDFDFF7808
:100980007BDFC0F0F787BC3DE1FF787BDE00F0F74E
:1009900087BC3DE1F0787BDE0000F787803DE1E039
:1009A000787BDE007FF7879FFDE1E0787BDE00FF4C
:1009B000F787BFFDE1E0787BDE00F0F787BC3DE123
:1009C000E0787BDE00F0F787BC3DE1E0787BDE007D
:1009D000F0F787BC3DE1E0787BDE00FFF7FFBFFD6D
:1009E000E1E07FFBDFC0FFF7FFBFFDE1E07FFBDF62
:1009F000C07CF3F39F3DE1E03E7BCFC000000000F0
:100A000000000000000000FFFFFFFFFFFFFFFFFFEF
:100A1000FFC0FFFFFFFFFD68DB111A31C0FFFFFFC2
:100A2000FFFD2B5AFB6AEFC0FFFFFFFFFD4B5B3B57
:100A30001A33C0FFFFFFFFFD6B5BDB6AFDC000FFE9
:100A40002F260000FF2F2700012F2900A300012FD0
:100A50002A00A30000000000250028002B00000051
:100A60000000240027002A000404040404040404F1
:100A70000202020202020303030303030102040849
:100A800010204080010204081020010204081020F8
:100A90002200FF210000A519DC1411241FBECFEF96
:100AA000D8E0DEBFCDBF11E0A0E0B1E0E0EEF6E3BC
:100AB00002C005900D92A437B107D9F722E0A4E750
:100AC000B1E001C01D92A236B207E1F715E0CCE417
:100AD000D5E004C02197FE010E94241ACB34D1072F
:100AE000C9F70E94EB140C94631B0C9400003FB7F1
:100AF000F8948091040290910502A0910602B091B1
:100B0000070226B5A89B05C02F3F19F00196A11D2D
:100B1000B11D3FBFBA2FA92F982F8827820F911D93
:100B2000A11DB11DBC01CD0142E0660F771F881FDA
:100B3000991F4A95D1F708950F931F93CF93DF9391
:100B400077FF04C0260F371F60E070E0DC011496C9
:100B5000CD91DC911597FB01E20FF31FCE17DF0754
:100B60001CF49E01261B370B121613060CF046C010
:100B7000FA0157FD3796DF01E3E0B595A795EA95B1
:100B8000E1F7AC9FF001AD9FF00DBC9FF00D11247B
:100B90006E0F7F1FDC015F96ED91FC919097E60F41
:100BA000F71F4770552781E090E001C0880F4A95F4
:100BB000EAF7482F0130110539F078F002301105BD
:100BC000E9F42E0F3F1F13C02E0F3F1FE217F3074C
:100BD000A9F08081842B8193F9CF80952E0F3F1F40
:100BE000E217F30759F0908198239193F9CFE21718
:100BF000F30721F0808184278193F9CFDF91CF9192
:100C00001F910F910895EF92FF920F931F93CF932F
:100C1000DF93EC0177FDA4C0EC80FD806E157F05AD
:100C20000CF09EC057FF04C0240F351F40E050E079
:100C30008E819F81FA01E20FF31F8E179F071CF42C
:100C40009C01241B350B121613060CF089C0922F41
:100C5000842F8695869586958E9DD0018F9DB00DAB
:100C600011246A0F7B1FAF8DB8A1A60FB71F477065
:100C7000A9F188E0841B482F682F70E0FB01E05940
:100C8000FA4FE491281790F4621B71092FEF30E0BE
:100C900002C0359527956A95E2F7E22301301105E8
:100CA00041F070F00230110579F05AC001301105A1
:100CB00019F48C91E82B0AC00130110508F049C0E5
:100CC000E0958C91E82302C08C91E827EC932C816D
:100CD0003D81941708F444C0A20FB31FE92FE41B11
:100CE000E830F8F00230110561F48E2F9C91909558
:100CF0009C932C813D81A20FB31F88508830B0F7A0
:100D00000FC081E00115110509F480E081959E2F47
:100D10008C932C813D81A20FB31F98509830C0F75F
:100D2000E770EE23E9F0F0E0E859FA4FE491013082
:100D3000110539F048F00230110591F48C91E82743
:100D400006C08C91E82B03C0E0958C91E823EC93CE
:100D500007C00230110509F4B7CFAE0DBF1DBECFDD
:100D6000DF91CF911F910F91FF90EF9008950F9316
:100D70001F93CF93DF93DC015696EC915697E230A8
:100D800071F0E330E9F0E13079F5FB0114960D9054
:100D9000BC91A02DA41BB50BA21BB30B18C0EC017A
:100DA000EC81FD81E61BF70BBF0161507109EE81FB
:100DB000FF81DF01A41BB50BAD01421B530B14C017
:100DC000DA01EC01EE81FF81E61BF70B3197F7FDAD
:100DD0000DC0EC014E815F81E417F5073CF4AF01D3
:100DE000BD010E949C0502C00E940306DF91CF91C5
:100DF0001F910F9108950F931F93DC015696EC916C
:100E00005697E23061F0E33009F1E13081F5149654
:100E1000ED91FC911597E41BF50B319723C0DC0194
:100E20001496ED91FC911597DF01A61BB70BBD0140
:100E3000DC011696ED91FC911797DF01A41BB50B11
:100E4000AD0141505109621B730B11C0FA01DC0165
:100E500016964D915C911797DA01A61BB70BBD0151
:100E6000621B730BAB01BF010E9403060CC057FD50
:100E70000AC0DC011696ED91FC9117974E175F079B
:100E800014F40E949C051F910F910895FC0177FDB9
:100E9000B9C080859185681779070CF0B3C057FDFC
:100EA000B1C082859385481759070CF0089586894B
:100EB000823079F484819581DC01A61BB70BBD01DA
:100EC0006150710986819781DC01A41BB50BAD01CE
:100ED0000EC0833009F084C064277527CB018427B6
:100EE00095276827792746815781481B590B415020
:100EF00051092130310531F048F12230310509F432
:100F00004AC00895CA0157FD07969C01A3E0359594
:100F10002795AA95E1F7A481B5812A9FC0012B9F4F
:100F2000900D3A9F900D1124680F791F078CF0A146
:100F3000E02DE60FF71F4770552781E090E001C0D4
:100F4000880F4A95EAF79081892B48C0CA0157FD5E
:100F500007969C0193E0359527959A95E1F7A48132
:100F6000B5812A9FC0012B9F900D3A9F900D1124AF
:100F7000680F791F078CF0A1E02DE60FF71F47706F
:100F8000552781E090E001C0880F4A95EAF78095E7
:100F90009081892323C0CA0157FD07969C0183E0F5
:100FA000359527958A95E1F7A481B5812A9FC001DF
:100FB0002B9F900D3A9F900D1124680F791F078C7D
:100FC000F0A1E02DE60FF71F4770552781E090E074
:100FD00001C0880F4A95EAF7908189278083089598
:100FE000813009F086CF6427752746275727642765
:100FF000752784819581DC01A61BB70BBD0161506B
:10100000710977CF08950895FC016370668B848120
:10101000958126813781613039F0633029F09187DD
:101020008087338722870895318720879387828737
:1010300008952F923F924F925F926F927F928F927C
:101040009F92AF92BF92CF92DF92EF92FF920F9357
:101050001F93CF93DF93CDB7DEB76C970FB6F8949D
:10106000DEBF0FBECDBF9C8F8B8F1B014A0119873E
:1010700008873701A982DC0159964D915C915A97F6
:101080004115510509F0FFC018968D919C91199753
:10109000681779070CF0E1C11A968D919C911B9706
:1010A000881699060CF0D9C1EC2DF0E0FB83EA8399
:1010B000AB0166E0C69E400D511D11245D874C8733
:1010C000141615060CF0C9C18A2D90E09B878A87FB
:1010D00033E0880F991F3A95E1F79F878E87880D37
:1010E000991D181619060CF0B8C158968C918111EB
:1010F00003C0203B08F02F5FAB8DBC8DED91FC91C0
:1011000011970284F385E02DCD012A8F09952A8D50
:10111000B5E02B9F90011124EC2DF0E0F98BE88BCA
:10112000A1014B5F5F4F5B8B4A8B3D822C8221017B
:10113000B901621973097D8B6C8B9981892F90E0BD
:101140009F8B8E8BD4011896B98FA88FEC89FD895F
:10115000E40DF51DE859FF4FD49054019F828E8213
:10116000D0FE16C0AB8DBC8DED91FC91B1E0CB12E1
:1011700009C02981213031F40484F585E02D2885CA
:10118000398519C00684F785E02DE884F9841DC0EF
:10119000488559856416750619F1AB8DBC8DED91A6
:1011A000FC91B1E0CB120DC02981213051F40484AF
:1011B000F585E02D9301A501B2018B8D9C8D0995DC
:1011C0000FC00684F785E02D73010A851B852A81EF
:1011D0003B814E815F816C817D818B8D9C8D0995DA
:1011E000D6943FEFA31AB30A4E815F816E897F893F
:1011F000460F571F5F834E83888D998DA816B906B9
:1012000009F0AECF9FEF491A590AAC81BD81E88938
:10121000F989AE0FBF1FBD83AC832A893B89421673
:10122000530609F093CF488559856416750609F46D
:10123000F2C0AB8DBC8DED91FC91B1E0CB1211C031
:101240002981213071F4B1016B5F7F4F0088F189F2
:10125000E02D830128E030E0A4018B8D9C8D099561
:10126000DAC06C857D854A815B81641B750B0684C1
:10127000F785E02D73010E851F859A01A4018B8DE2
:101280009C8D0995C8C0FA01349694913297659166
:101290007491291BCB01B7E02B9F800D911D112468
:1012A000FA01259134913B8B2A8BFC01A590B490D7
:1012B000FC0132965490319634913C8732961491C9
:1012C0003196749041E04C1518F05981523068F015
:1012D000612F012E000C770B7B836A83872D072CEF
:1012E000000C990B9D838C8304C01D821C821B8281
:1012F0001A82AB8DBC8DED91FC9111970284F38520
:10130000E02DCD010995412CD12C612CF981EF2FD5
:10131000F0E0FF83EE832C2D30E03B872A87A40189
:10132000470D511D77FC5A955F8B4E8BB101610FB4
:10133000711D17FD7A95798F688F5C85651608F0A9
:101340006AC0262D30E04C815D81420F531F6E81B3
:101350007F81469FC001479F900D569F900D11249D
:10136000DC01A80DB91DB98BA88B842D712CEE89D9
:10137000FF89E20FF31FFD8BEC8B751408F048C05A
:1013800071E0780F7E87877041F4C5010196EA8984
:10139000FB89EA0DFB1DD4905C01D7FE35C0AB8DF7
:1013A000BC8DED91FC91B1E0CB1212C029812130AE
:1013B00079F40484F585E02D288539854C895D898B
:1013C000688D798D670D711D8B8D9C8D09951CC065
:1013D0008A819B81870D911D4A855B85849FB00121
:1013E000859F700D949F700D1124620D731D0684EE
:1013F000F785E02DE884F9840E811F819A014889E0
:1014000059898B8D9C8D0995DD0C73948E85B5CF94
:10141000450C639492CFAB8DBC8DED91FC911197EF
:101420000688F789E02DCD016C960FB6F894DEBFE3
:101430000FBECDBFDF91CF911F910F91FF90EF9025
:10144000DF90CF90BF90AF909F908F907F906F90E4
:101450005F904F903F902F9009946C960FB6F89440
:10146000DEBF0FBECDBFDF91CF911F910F91FF90D7
:10147000EF90DF90CF90BF90AF909F908F907F9034
:101480006F905F904F903F902F9008958F929F9212
:10149000AF92CF92EF92FF920F931F93CF93DF9370
:1014A000EC01262F898D9A8D009709F042C06A3091
:1014B00059F41D861C862D898E859F8538E0239FD3
:1014C000800D911D112443C06D3009F4AAC08F898D
:1014D0008823C9F03C898C859D8546E0349F800D2A
:1014E000911D1124488559854817590764F41D86B4
:1014F0001C863D898E859F8548E0349F800D911D17
:1015000011249F878E87EA88FB88088919894E8570
:101510005F856C857D85AD88CC88CE010E941908D9
:101520002C898C859D8536E0239F800D911D11248B
:101530003EC06A3079F41D861C862D89FC013896E0
:10154000E4918E859F852E9F800D911D11249F878C
:101550008E8767C06D3009F464C0FC013496349105
:10156000631708F45EC03296E491E61708F459C098
:10157000462F431B342FFC0132968590949047E010
:10158000349F800C911C1124F401329634913196D1
:10159000E491332311F0E1110DC0F4013496E4918C
:1015A0002C898C859D85E29F800D911D11249D873E
:1015B0008C8737C0F401359644915F89552319F122
:1015C0005C89E32FF0E0E40FF11D47FDFA955E9F83
:1015D000B0015F9F700D11244C855D85460F571F2C
:1015E000688579856417750774F41D861C863D89A6
:1015F000FC013896E4918E859F853E9F800D911D5C
:1016000011249F878E87EA88FB88088919894E856F
:101610005F856C857D85AD88CC88CE010E941908D8
:10162000BCCF81E090E0DF91CF911F910F91FF90AF
:10163000EF90CF90AF909F908F9008956F927F9290
:101640008F929F92AF92BF92CF92DF92EF92FF92D2
:101650000F931F93CF93DF93EC014B015A01690164
:101660003801E881F9810284F385E02D0995E8814C
:10167000F9810288F389E02D87019601A501B40163
:10168000CE010995E881F981A501460D571D41500C
:1016900051090288F389E02D9601B401CE01099524
:1016A000E881F9810088F189E02D9301A501B40159
:1016B000CE010995E881F981C80CD91CB6016150A9
:1016C00071090088F189E02D9301A501CE010995EA
:1016D000E881F9810688F789E02DCE01DF91CF916D
:1016E0001F910F91FF90EF90DF90CF90BF90AF9040
:1016F0009F908F907F906F900994CF92DF92EF929E
:10170000FF920F931F93CF93DF9300D000D000D0B0
:10171000CDB7DEB76C01DC01ED91FC916217730768
:1017200089F4041715072CF4942F852FA801092F8D
:10173000182F041B150B98012F5F3F4F048CF58D5C
:10174000E02D12C04017510709F5261737072CF472
:10175000962F872FB901292F382F261B370B2F5F84
:101760003F4F068CF78DE02D8701C601099526961F
:101770000FB6F894DEBF0FBECDBFDF91CF911F91A2
:101780000F91FF90EF90DF90CF9008950284F38542
:10179000E02D2D833E834B835C8369837A83099597
:1017A000D601ED91FC910488F589E02D2D813E81D3
:1017B0004B815C8169817A81C6010995D601ED91E1
:1017C000FC910688F789E02DC60126960FB6F8949D
:1017D000DEBF0FBECDBFDF91CF911F910F91FF9064
:1017E000EF90DF90CF900994EF92FF920F931F93A9
:1017F000DC01ED91FC9111971A960D911C911B97AC
:1018000018962D913C91199700A0F1A1E02D7B0134
:1018100040E050E060E070E009951F910F91FF906B
:10182000EF9008954F925F926F927F928F929F9266
:10183000AF92BF92CF92DF92EF92FF920F931F93DE
:10184000CF93DF9300D0CDB7DEB76C015A013901D9
:101850004801DC01ED91FC910284F385E02D698360
:101860007A8309956981462E7A81572E640C751CFE
:10187000D601ED91FC91461457046CF40088F1896F
:10188000E02D87019401A501B201C6010995BFEFC2
:101890004B1A5B0AEDCF0688F789E02DC6010F9041
:1018A0000F90DF91CF911F910F91FF90EF90DF90FC
:1018B000CF90BF90AF909F908F907F906F905F90F0
:1018C0004F900994AF92BF92CF92DF92EF92FF9226
:1018D0000F931F93CF93DF9300D000D0CDB7DEB727
:1018E0005C016901DC01ED91FC910284F385E02D3E
:1018F0004B835C8369837A830995D501ED91FC91D3
:1019000069817A819B012C0D3D1D2150310904888C
:10191000F589E02D78014B815C818A01C50109952B
:10192000D501ED91FC910688F789E02DC5010F9056
:101930000F900F900F90DF91CF911F910F91FF901B
:10194000EF90DF90CF90BF90AF900994AF92BF928D
:10195000CF92DF92EF92FF920F931F93CF93DF937B
:1019600000D000D0CDB7DEB75C016901DC01ED919C
:10197000FC910284F385E02D4B835C8369837A8339
:101980000995D501ED91FC914B815C81C40ED51E6A
:10199000B1E0CB1AD1080488F589E02D78018601E1
:1019A00069817A819B01C5010995D501ED91FC9171
:1019B0000688F789E02DC5010F900F900F900F90CA
:1019C000DF91CF911F910F91FF90EF90DF90CF901B
:1019D000BF90AF9009940895EF92FF920F931F93D9
:1019E000DC01ED91FC9100A0F1A1E02D09951F9182
:1019F0000F91FF90EF9008950F931F93DC01ED91ED
:101A0000FC91068CF78DE02D09951F910F9108959B
:101A10000F931F93DC01ED91FC91048CF58DE02D6B
:101A200009951F910F910895DC01ED91FC910084BF
:101A3000F185E02D099408952F923F924F925F9285
:101A40006F927F928F929F92AF92BF92CF92DF92CE
:101A5000EF92FF920F931F93CF93DF9300D01F92CB
:101A6000CDB7DEB74C017B836A836A015901170148
:101A70009801241B350B37FF03C03195219531099F
:101A8000C5014A815B81841B950B97FF03C091952B
:101A90008195910951E059838217930714F01982B7
:101AA0000BC09A2D8B2D5801092F182F9A818B81ED
:101AB000DB82CA82C92ED82E8A819B81A816B906DC
:101AC0005CF49C2D8D2D6801092F182F9A818B8134
:101AD000BB82AA82A92EB82E2501AA81BB814A1AEF
:101AE0005B0A38016C187D0877FE03C0719461941D
:101AF0007108720157FE03C0BFEFEB1AFB0AF594A1
:101B0000E794C016D1061CF00FEF1FEF1FC001E0D5
:101B100010E01CC0D401ED91FC91B9810484F585DD
:101B2000E02D9101BB23C1F04A815B81B601C40164
:101B30000995E618F708F7FE04C0C00ED11EE40CA4
:101B4000F51CEA81FB813196FB83EA834A815B8144
:101B5000A416B506FCF604C0A6016A817B81E7CF16
:101B60000F900F900F90DF91CF911F910F91FF90E9
:101B7000EF90DF90CF90BF90AF909F908F907F902D
:101B80006F905F904F903F902F90089585ED8093D8
:101B9000BC008091BC0084FDFCCF10920A02089525
:101BA0004091B601262F30E0240F311D213231053E
:101BB000DCF420910A022430C9F4FC0180E090E0BA
:101BC000861758F43091B6012191DC01AC56BE4F16
:101BD000A30FB11D2C930196F3CF8091B601680F2E
:101BE0006093B60180E0089581E0089582E0089551
:101BF000089581E090E030910C0220910B023217A1
:101C000010F480E090E0919581959109089580917C
:101C10000C0290910B02891730F48F5F80930C02B5
:101C200080E090E008958FEF9FEF089580910B0280
:101C300090E020910C02821B91090895CF92DF92CF
:101C4000EF92FF920F931F93CF93DF937C01262F88
:101C5000972F8A0180911102882391F0C62FD72FE8
:101C60006E01C40ED51ECC15DD0571F06991D7014A
:101C7000ED91FC910190F081E02DC7010995F3CF22
:101C8000642F822F0E94D00DC801DF91CF911F9148
:101C90000F91FF90EF90DF90CF900895CF93DF9357
:101CA0001F92CDB7DEB76983209111022223D1F0B4
:101CB00020910E02203240F021E030E0FC0133831D
:101CC000228380E090E015C080910F02E82FF0E0C1
:101CD000EC58FE4F998190838F5F80930F02809321
:101CE0000E0205C061E0CE0101960E94D00D81E098
:101CF00090E00F90DF91CF910895089580E090E0FB
:101D0000089590E0FC01E858FA4F3491FC01E45842
:101D1000F54F2491FC01E859F54FE491EE2309F4C5
:101D20003BC0332339F1333091F038F43130A9F02E
:101D3000323001F584B58F7D12C0373091F03830E4
:101D4000A1F03430B9F4809180008F7D03C0809180
:101D500080008F77809380000DC084B58F7784BD1D
:101D600009C08091B0008F7703C08091B0008F7D53
:101D70008093B000F0E0EE0FFF1FEC5AF54FA591F5
:101D8000B4918FB7F894EC91611103C020952E2384
:101D900001C02E2B2C938FBF08958F929F92AF92EC
:101DA000BF92CF92DF92EF92FF926B017C010E9473
:101DB00077054B015C01C114D104E104F104F1F099
:101DC0000E947705DC01CB0188199909AA09BB0992
:101DD000883E9340A105B10570F321E0C21AD108F5
:101DE000E108F10888EE880E83E0981EA11CB11C62
:101DF000C114D104E104F10419F7DDCFFF90EF9095
:101E0000DF90CF90BF90AF909F908F9008951F92DA
:101E10000F920FB60F9211242F933F938F939F939E
:101E2000AF93BF938091000290910102A0910202B2
:101E3000B09103023091FF0123E0230F2D3720F4EE
:101E40000196A11DB11D05C026E8230F0296A11D14
:101E5000B11D2093FF018093000290930102A09393
:101E60000202B09303028091040290910502A091B6
:101E70000602B09107020196A11DB11D80930402D4
:101E800090930502A0930602B0930702BF91AF9111
:101E90009F918F913F912F910F900FBE0F901F90A8
:101EA000189508958EBD00000DB407FEFDCF8EB5C8
:101EB00008958CBD9DBD08951F920F920FB60F928D
:101EC00011242F933F934F935F936F937F938F933F
:101ED0009F93AF93BF93EF93FF938091B900887F57
:101EE000803609F49CC068F5883209F45BC090F430
:101EF000803109F454C038F4882309F4F6C08830DE
:101F000009F44DC0F6C0883109F44CC0803209F4A0
:101F10005DC0EFC0803409F468C048F4803309F430
:101F200055C0883309F0E5C08093DB01D8C0803507
:101F300009F44FC0883509F45DC0883409F0D9C070
:101F4000D6C0883909F4C7C0A8F4883709F467C037
:101F500038F4883609F463C0803709F460C0C9C01A
:101F6000883809F4B8C0803909F45FC0803809F0B6
:101F7000C0C05BC0803B09F486C038F4803A09F4E5
:101F800066C0883A09F47FC0B4C0803C09F4A7C099
:101F9000883C09F4A4C0883B09F48AC0AAC0809197
:101FA000FE0110C09091FD018091FC01981770F521
:101FB000E091FD0181E08E0F8093FD01F0E0E4529D
:101FC000FE4F80818093BB0085EC86C08093DB014F
:101FD0008EC0E091FD0181E08E0F8093FD01809124
:101FE000BB00F0E0E452FE4F80839091FD018091B0
:101FF000FC016EC0E091FD0181E08E0F8093FD0138
:102000008091BB00F0E0E452FE4F80838091090292
:1020100081116DC081E08093080284EA61C083E091
:1020200080930A021092DA01CFCF8091DA018032D8
:1020300008F051C0E091DA0181E08E0F8093DA015F
:102040008091BB00F0E0E654FE4F8083BDCF85EC6D
:102050008093BC0010920A028091DA01803230F441
:10206000E091DA01F0E0E654FE4F10826091DA016F
:1020700070E0E091B801F091B9018AEB91E0099527
:102080001092DA0136C084E080930A021092B70100
:102090001092B601E091B401F091B50109958091DB
:1020A000B601811105C081E08093B60110929401C0
:1020B000E091B70181E08E0F8093B701F0E0EC561C
:1020C000FE4F80818093BB009091B7018091B60153
:1020D000981708F479CF85E88093BC000AC085EC96
:1020E0008093BC0010920A0204C01092DB010E948F
:1020F000C60DFF91EF91BF91AF919F918F917F910D
:102100006F915F914F913F912F910F900FBE0F9064
:102110001F9018959B01AC0160E074E284EF90E0A1
:102120000E94021ADA01C9014097A109B109B695C6
:10213000A795979587958093B800089520910E02F2
:1021400090911002213208F04AC080910A02811158
:10215000FCCF32E030930A0231E0309309023FEFC6
:102160003093DB011092FD012093FC01A4E7B1E064
:102170004CED51E0FA013E2F341B321718F43D911B
:102180003193F9CF1092FE012091FE01990F922B0D
:102190009093FE0190910802913061F41092080230
:1021A0009091FE019093BB009091BC0093FDF8CFFD
:1021B00095EC01C095EE9093BC0090910A0292308C
:1021C000E1F39091DB019F3F79F08091DB01803258
:1021D00041F08091DB01803331F084E005C081E083
:1021E00003C082E001C083E010920F0210920E0241
:1021F0001092110208951F93CF93DF93FC01858DF8
:10220000968D009729F1162FEF0121A131E030932F
:1022100011022093100210920F0210920E02DC01A4
:10222000ED91FC910190F081E02D60E009958D8D9C
:102230009E8DDC01ED91FC910190F081E02D612FEC
:1022400009958D8D9E8DDF91CF911F910C949E10DD
:10225000A5A5B6A59C9183A9809589238C93838D90
:10226000948D892B31F0862FDF91CF911F910C94A3
:10227000520F28E030E080E8A1A5B2A591A9482F2F
:10228000462319F04C91942B03C04C9190959423C4
:102290009C93A3A5B4A54C9192A9942B9C93A3A520
:1022A000B4A54C9192A9909594239C938695215026
:1022B000310911F7DF91CF911F9108951F93CF93AB
:1022C000DF93EC01162F8D8D9E8D892B39F06DA932
:1022D0007EA98FA998AD0E948A100FC08B8D9C8D0E
:1022E000892B21F08EAD9FAD0E94590FEFA5F8A963
:1022F00090818CA9809589238083111102C066EAA0
:1023000001C067EACE010E94FB108D8D9E8D892B46
:1023100049F069AD7AAD8BAD9CADDF91CF911F9146
:102320000C948A10EFA5F8A990818CA9892B808341
:10233000DF91CF911F910895CF92DF92EF92FF929C
:102340000F931F93CF93DF936C017A018B01C0E051
:10235000D0E0CE15DF0589F0D8016D918D01D60151
:10236000ED91FC910190F081E02DC6010995892B3A
:1023700011F47E0102C02196ECCFC701DF91CF910D
:102380001F910F91FF90EF90DF90CF9008950E94E2
:10239000571B2091240230912502C901079697FD11
:1023A000079623E0959587952A95E1F720912202DB
:1023B00030912302829FA001839F500D929F500D68
:1023C000112460E070E080913D0290913E020C94F7
:1023D0005C1B80913B0290913C02892B59F06091EB
:1023E00053027091540280915502909156020E94BE
:1023F0008A1016C08091390290913A02892B31F0EF
:1024000080915C0290915D020E94590FE0914D0213
:10241000F0914E02908180915202809589238083B1
:102420006EE28EE192E00E94FB1080913B0290915F
:102430003C02892B51F060915702709158028091B3
:10244000590290915A020C948A10E0914D02F09139
:102450004E02908180915202892B808380913902B3
:1024600090913A02892B11F00C94510F0895EF923C
:10247000FF920F931F93CF93DF93C82FF92ED62F80
:1024800080913B0290913C02009709F45AC0209140
:102490003F0231E0309311022093100210920F029C
:1024A00010920E02DC01ED91FC910190F081E02D83
:1024B00060E009950C2F1F2DEE24E394F12CCD0F35
:1024C000D1E080913B0290913C02C01791F1B0E2C3
:1024D000EB16F104D8F00E949E1080913F02D09339
:1024E00011028093100210920F0210920E0280913E
:1024F0003B0290913C02DC01ED91FC910190F08156
:10250000E02D60E00995EE24E394F12C80913B02EC
:1025100090913C02F8016491DC01ED91FC910190F5
:10252000F081E02D0995BFEFEB1AFB0A0F5F1F4FFB
:10253000C8CFDF91CF911F910F91FF90EF900C9436
:102540009E10E0914B02F0914C022081809151024B
:102550008095822380830C2F1F2DC60FC017C1F1D9
:10256000F80184912091390230913A02232B19F01D
:102570000E94520F2AC028E030E040E8E091470274
:10258000F091480290914F02542F582319F0508136
:10259000952B03C05081909595239083E09149023B
:1025A000F0914A02508190915002952B9083E091D6
:1025B0004902F0914A0250819091500290959523E2
:1025C0009083469521503109C9F60F5F1F4FC6CF42
:1025D000DF91CF911F910F91FF90EF900895DF92BF
:1025E000EF92FF920F931F93CF93DF9380913B0263
:1025F00090913C02892B59F06091530270915402E2
:1026000080915502909156020E948A1016C08091C6
:10261000390290913A02892B31F080915C029091BD
:102620005D020E94590FE0914D02F0914E0290819F
:102630008091520280958923808365E080E99AE049
:102640000E9437126091220261508EE192E00E9456
:10265000FB102091240230912502C901079697FDB5
:10266000079623E0959587952A95E1F72091220218
:1026700030912302829F8001839F100D929F100D45
:102680001124C0913D02D0913E0280913B02909175
:102690003C020C0F1D1F009709F451C020913F020E
:1026A00031E0309311022093100210920F02109229
:1026B0000E02DC01ED91FC910190F081E02D60E4CF
:1026C0000995EE24E394F12CDD24D39480913B0210
:1026D00090913C02C017D10779F1B0E2EB16F104FA
:1026E000D8F00E949E1080913F02D09211028093F8
:1026F000100210920F0210920E0280913B029091F4
:102700003C02DC01ED91FC910190F081E02D60E450
:102710000995EE24E394F12C80913B0290913C02C8
:102720006991DC01ED91FC910190F081E02D09951A
:10273000BFEFEB1AFB0ACACF0E949E1041C0E09186
:102740004B02F0914C02908180915102892B808341
:10275000C017D107A9F189912091390230913A022D
:10276000232B19F00E94520FF3CF28E030E040E80D
:10277000E0914702F091480290914F02542F582364
:1027800019F05081952B03C050819095952390832B
:10279000E0914902F0914A02508190915002952BAC
:1027A0009083E0914902F0914A0250819091500249
:1027B000909595239083469521503109C9F6C8CF4D
:1027C00080913B0290913C02892B89F060915702E5
:1027D000709158028091590290915A02DF91CF91E5
:1027E0001F910F91FF90EF90DF900C948A10E09171
:1027F0004D02F0914E02908180915202892B80838C
:102800008091390290913A02892B49F0DF91CF9162
:102810001F910F91FF90EF90DF900C94510FDF917B
:10282000CF911F910F91FF90EF90DF900895CF937C
:10283000DF93009779F0FC0101900020E9F73197D0
:10284000AF01481B590BBC018EE192E00E949C1124
:10285000EC0102C0C0E0D0E042E050E061E771E08E
:102860008EE192E00E949C118C0F9D1FDF91CF9111
:1028700008953F924F925F926F927F928F929F92B4
:10288000AF92BF92CF92DF92EF92FF920F931F937E
:10289000CF93DF9300D000D000D0CDB7DEB72C01AE
:1028A0003B014A015901C901079697FD07969C0112
:1028B00093E0359527959A95E1F73A832983C12CC2
:1028C000D12CE12CF12C312CC701860D971D9C8356
:1028D0008B83E016F106CCF51E821D82ED81FE8110
:1028E000EA15FB0554F58D819E8187709927892B08
:1028F00011F0330C0EC0ED81FE81F7FD379683E0B9
:10290000F595E7958A95E1F7EC0DFD1DE80DF91DAC
:10291000349037FE0CC021E030E04B815C816D814A
:102920007E81640D751D8EE192E00E94140D8D81F3
:102930009E8101969E838D83D1CFFFEFEF1AFF0A10
:1029400029813A81C20ED31EBFCF26960FB6F894C6
:10295000DEBF0FBECDBFDF91CF911F910F91FF90D2
:10296000EF90DF90CF90BF90AF909F908F907F902F
:102970006F905F904F903F90089590E0FC01E45875
:10298000F54F2491FC01E859F54F8491882399F083
:1029900090E0880F991FFC01E25AF54FA591B49180
:1029A000FC01EC5AF54F859194918FB7F894EC9116
:1029B000E22BEC938FBF08958CE191E090931F027E
:1029C00080931E0280913D0290913E02009711F08B
:1029D0000C94BF1A0895789484B5826084BD84B540
:1029E000816084BD85B5826085BD85B5816085BD0A
:1029F00080916E00816080936E00109281008091C2
:102A00008100826080938100809181008160809349
:102A10008100809180008160809380008091B1006E
:102A200084608093B1008091B00081608093B00099
:102A300080917A00846080937A0080917A0082602D
:102A400080937A0080917A00816080937A008091EF
:102A50007A00806880937A001092C10080913D02D4
:102A600090913E02892B11F520912402309125028C
:102A7000C901079697FD0796B3E095958795BA9596
:102A8000E1F72091220230912302AC01429FC00164
:102A9000439F900D529F900D11240E942A1A9093EB
:102AA0003E0280933D02892B09F401C10E94C911A5
:102AB0008091240290912502813291050CF432C359
:102AC000BC016054710977FF02C06F5F7F4F75953D
:102AD000679580912202909123028255910997FD7A
:102AE000019600E410E022E530E04EE757E09595CE
:102AF00087950E94391482E08093400280913B02C6
:102B000090913C02892B09F425C38CE380933F020A
:102B100010920C0210920B0210920F0210920E02F1
:102B200010920A0281E0809309021092080261E08B
:102B300082E10E94810E61E083E10E94810E80911A
:102B4000B9008E7F8093B9008091B9008D7F80930A
:102B5000B90088E48093B80085E48093BC0080913C
:102B6000460287FD1DC00E94BD1461E080914602AF
:102B70000E94810E61E070E080E090E00E94CD0E46
:102B800060E0809146020E94810E6AE070E080E081
:102B900090E00E94CD0E61E0809146020E94810E7D
:102BA00080913B0290913C02892B09F48AC3609189
:102BB00053027091540280915502909156020E94E6
:102BC0008A1064E08AE995E00E943712609124023D
:102BD00061508EE192E00E94FB1064E086E995E08E
:102BE0000E94371280914002813009F481C364E170
:102BF0008EE192E00E94FB1064E082E995E00E9481
:102C000037128FE880935B02809122029091230219
:102C10008038910509F070C38091240290912502BB
:102C20008034910509F07AC380914002813009F423
:102C300061C38FEC80935B02C2E16AED8EE192E0AA
:102C40000E94FB106C2F8EE192E00E94FB1061E865
:102C50008EE192E00E94FB1060915B028EE192E0B7
:102C60000E94FB1069ED8EE192E00E94FB108091C2
:102C70004002813009F454C361EF8EE192E00E947A
:102C8000FB1066E08CE895E00E94371280913B02D1
:102C900090913C02892B09F445C3609157027091D1
:102CA00058028091590290915A020E948A100E9403
:102CB000C91182E08093320280933302C1E0D0E0F8
:102CC000D0933102C0933002D0932F02C0932E02D2
:102CD00010922B0210922A0207E110E010932D02AD
:102CE00000932C0284E491E00E9417140E94EF12DA
:102CF00068E873E180E090E00E94CD0E0E94C91167
:102D000010922F0210922E02D0933102C093300203
:102D100010922B0210922A0210932D0200932C0283
:102D200084E491E00E9417140E94EF1268E873E1B6
:102D300080E090E00E94CD0E0E94C911D093310234
:102D4000C0933002D0932F02C0932E0210922B0218
:102D500010922A0210922D0210922C0281E0809390
:102D600032028093330289E591E00E9417148FE5C7
:102D700091E00E94171488E691E00E9417140E94C7
:102D8000EF1280913B0290913C02892B59F06091A7
:102D900053027091540280915502909156020E9404
:102DA0008A1016C08091390290913A02892B31F035
:102DB00080915C0290915D020E94590FE0914D025A
:102DC000F0914E02908180915202809589238083F8
:102DD00062E081E49AE00E94371260E08EE192E0C6
:102DE0000E94FB1060E08EE192E00E94FB1067E021
:102DF0008EE192E00E94FB1063E08EE39AE00E9475
:102E0000371280913B0290913C02892B59F06091DE
:102E10005702709158028091590290915A020E9473
:102E20008A1011C0E0914D02F0914E029081809184
:102E30005202892B80838091390290913A02892B2A
:102E400011F00E94510F60ED77E080E090E00E9469
:102E5000CD0E0E94E91168EE73E080E090E00E94E0
:102E6000CD0E80913B0290913C02892B59F06091EC
:102E700053027091540280915502909156020E9423
:102E80008A1016C08091390290913A02892B31F054
:102E900080915C0290915D020E94590FE0914D0279
:102EA000F0914E0290818091520280958923808317
:102EB00062E086E49AE00E94371260E08EE192E0E0
:102EC0000E94FB1060E08EE192E00E94FB1067E040
:102ED0008EE192E00E94FB1063E083E49AE00E949E
:102EE000371280913B0290913C02892B59F06091FE
:102EF0005702709158028091590290915A020E9493
:102F00008A1011C0E0914D02F0914E0290818091A3
:102F10005202892B80838091390290913A02892B49
:102F200011F00E94510F60ED77E080E090E00E9488
:102F3000CD0E0E94E91168EE73E080E090E00E94FF
:102F4000CD0E80913B0290913C02892B59F060910B
:102F500053027091540280915502909156020E9442
:102F60008A1016C08091390290913A02892B31F073
:102F700080915C0290915D020E94590FE0914D0298
:102F8000F0914E0290818091520280958923808336
:102F900062E08CE49AE00E943712609124028EE194
:102FA00092E00E94FB1062E08AE49AE00E943712ED
:102FB00060E08EE192E00E94FB1060E08EE192E022
:102FC0000E94FB1067E08EE192E00E94FB1062E03D
:102FD00088E49AE00E94371280913B0290913C0273
:102FE000892B59F0609157027091580280915902D3
:102FF00090915A020E948A1011C0E0914D02F09106
:103000004E02908180915202892B808380913902F7
:1030100090913A02892B11F00E94510F60ED77E0F8
:1030200080E090E00E94CD0E80913B0290913C02A6
:10303000892B59F06091530270915402809155028E
:10304000909156020E948A1016C080913902909188
:103050003A02892B31F080915C0290915D020E94CE
:10306000590FE0914D02F0914E02908180915202F1
:1030700080958923808362E082E59AE00E9437127E
:10308000609124028EE192E00E94FB1062E080E5F4
:103090009AE00E94371260E08EE192E00E94FB10FD
:1030A00060E08EE192E00E94FB1067E08EE192E02A
:1030B0000E94FB1062E08EE49AE00E943712809139
:1030C0003B0290913C02892B59F06091570270911C
:1030D00058028091590290915A020E948A1011C0A0
:1030E000E0914D02F0914E02908180915202892B25
:1030F00080838091390290913A02892B11F00E94CD
:10310000510F60ED77E080E090E00E94CD0E0E94CC
:10311000E9110E94C911C0E0D0E02097F1F30E94AC
:103120000000FBCFBC016052710977FF02C06F5FE6
:103130007F4F759567958091220290912302835766
:10314000910997FD019600E210E023E730E04EE997
:1031500055E0CDCC809144020E94BD14809145027F
:103160000E94BD1480914402082E000C990BFC01B2
:10317000E859F54FE491F0E0EE0FFF1FEC5AF54FE0
:103180002591349130934C0220934B02FC01E4587A
:10319000F54FE491E093510280914502082E000C16
:1031A000990BFC01E859F54FE491F0E0EE0FFF1F99
:1031B000EC5AF54FA591B491B0934E02A0934D02F5
:1031C000FC01E458F54FE491E09352028C91E82B16
:1031D000EC938091390290913A02892B89F1CFB713
:1031E000F89480910D02811124C0E2E7FAE0849105
:1031F000E6E8FAE09491E82FF0E0EE0FFF1FE25AC4
:10320000F54FA591B491EC91E92321F461E08AE0B6
:103210000E94810E8AE00E94BD148CB580618CBD35
:103220008CB580648CBD8DE00E94BD148BE00E9443
:10323000BD1480910D028F5F80930D02CFBF8FCCA4
:10324000809142020E94BD14809143020E94BD14ED
:1032500080914202082E000C990BFC01E859F54FB1
:10326000E491F0E0EE0FFF1FEC5AF54F25913491F9
:103270003093480220934702FC01E458F54FE49153
:10328000E0934F0280914302082E000C990BFC0141
:10329000E859F54FE491F0E0EE0FFF1FEC5AF54FBF
:1032A000A591B491B0934A02A0934902FC01E4585D
:1032B000F54FE491E09350028C91E095E823EC9374
:1032C0004ECC8091390290913A02892B31F0809155
:1032D0005C0290915D020E94590FE0914D02F091C5
:1032E0004E0290818091520280958923808369CC1F
:1032F00060E17ECC8FE99ECC8036910579F4809197
:10330000240290912502409749F480914002813037
:1033100011F08FEA01C080E180935B02C2E08DCCA6
:1033200062E2ABCCE0914D02F0914E02908180912F
:103330005202892B80838091390290913A02892B25
:1033400009F4B5CC0E94510FB2CCA2E1B2E01396C1
:103350001C921E92129748EE53E060E070E01496C3
:103360004D935D936D937C9317978AE091E011964E
:103370009C938E93EEE1F2E01382128220E830E01B
:103380003583248380E490E0978386833187208788
:1033900093878287168A158614861786168681E09B
:1033A000858B848B2FEF3FEF338B228B318B208BE0
:1033B000878B108E128E118E8CE191E09183808329
:1033C000148E138EB68FA58F10A2178E8FEF84A345
:1033D00085A386A387A380A780E89AE1A6E0B0E052
:1033E00085AB96ABA7ABB0AF80EA96E8A1E0B0E0C2
:1033F00081AF92AFA3AFB4AF80E580935C0210922F
:103400005D020895A1E21A2EAA1BBB1BFD010DC08F
:10341000AA1FBB1FEE1FFF1FA217B307E407F50784
:1034200020F0A21BB30BE40BF50B661F771F881F60
:10343000991F1A9469F760957095809590959B01F6
:10344000AC01BD01CF010895EE0FFF1F0590F4916F
:10345000E02D0994CF93DF938230910510F482E040
:1034600090E0E0916002F091610220E030E0C0E085
:10347000D0E0309711F14081518148175907C0F0D1
:103480004817590761F482819381209719F09B8333
:103490008A832BC0909361028093600226C021151D
:1034A000310519F04217530718F49A01BE01DF01E4
:1034B000EF010280F381E02DDCCF2115310509F108
:1034C000281B390B2430310590F412968D919C9174
:1034D00013976115710521F0FB019383828304C06A
:1034E0009093610280936002FD01329644C0FD0119
:1034F000E20FF31F81939193225031092D933C9356
:103500003AC020915E0230915F02232B41F420915A
:1035100002013091030130935F0220935E022091FB
:103520000001309101012115310541F42DB73EB75D
:103530004091040150910501241B350BE0915E027E
:10354000F0915F02E217F307A0F42E1B3F0B281740
:10355000390778F0AC014E5F5F4F2417350748F00C
:103560004E0F5F1F50935F0240935E0281939193D1
:1035700002C0E0E0F0E0CF01DF91CF9108950F931A
:103580001F93CF93DF93009709F48CC0FC0132970F
:1035900013821282009160021091610201151105DF
:1035A00081F420813181820F931F20915E0230913E
:1035B0005F022817390779F5F0935F02E0935E0206
:1035C00071C0D80140E050E0AE17BF0750F412962A
:1035D0002D913C911397AD012115310509F1D901C8
:1035E000F3CF9D01DA013383228360817181860FDD
:1035F000971F8217930769F4EC0128813981260F00
:10360000371F2E5F3F4F318320838A819B819383B5
:103610008283452B29F4F0936102E093600242C05B
:103620001396FC93EE931297ED01499159919E01E7
:10363000240F351FE217F30771F480819181840F05
:10364000951F029611969C938E9382819381139677
:103650009C938E931297E0E0F0E0D80112968D9142
:103660009C911397009719F0F8018C01F6CF8D917A
:103670009C9198012E5F3F4F820F931F20915E0215
:1036800030915F022817390769F4309729F41092B6
:1036900061021092600202C01382128210935F02D4
:1036A00000935E02DF91CF911F910F91089581E009
:1036B00090E0F8940C94631BDC0101C06D934150C1
:1036C0005040E0F7089515E0CCE4D5E004C0FE01D9
:1036D0000E94241A2196CD34D107C9F7F894FFCF60
:1036E000000062028000000000004E0E1E0E7E0EE2
:1036F000F80D160E070EF90D00000000460A9C1189
:103700007E0E7D0E46071B0D140DEC0C080DFC0CF7
:103710001C0DEB0C04085E11B706FB06120CF40B33
:103720007D0B1E0B2020205761726E6120202050DF
:10373000617261626F6C6120005761726E6100504E
:10374000617261626F6C6100506F6E6F726F676F54
:04375000000D0A005E
:00000001FF
