:100000000C9434020C9451020C9451020C94510241
:100010000C9451020C9451020C9451020C94510214
:100020000C9451020C9451020C9451020C94510204
:100030000C9451020C9451020C9451020C945102F4
:100040000C941D060C9451020C9451020C94510214
:100050000C9451020C9451020C9451020C945102D4
:100060000C9451020C9451020000000000000000AA
:100070007E8195B1B195817E7EFFEBCFCFEBFF7E88
:100080000E1F3F7E3F1F0E00081C3E7F3E1C0800D7
:10009000389A9FFF9F9A380010B8FCFEFCB81000F9
:1000A0000000183C3C180000FFFFE7C3C3E7FFFF58
:1000B000003C664242663C00FFC399BDBD99C3FF48
:1000C00070F88888FD7F070F004E5FF1F15F4E00EA
:1000D000C0E0FF7F05050707C0FF7F0505657F3F7F
:1000E000995A3CE7E73C5A997F3E3E1C1C080800A1
:1000F00008081C1C3E3E7F00002466FFFF662400AB
:10010000005F5F00005F5F00060F097F7F017F7F58
:10011000C09ABFA5BDD943020070707070707000A6
:100120008094B6FFFFB694800004067F7F0604002B
:100130000010307F7F3010000808082A3E1C08009D
:10014000081C3E2A080808003C3C202020202000F3
:10015000081C3E08083E1C0830383C3E3E3C383007
:10016000060E1E3E3E1E0E060000000000000000AF
:100170000000065F5F060000000707000707000099
:10018000147F7F147F7F1400242E2A6B6B3A120099
:10019000466630180C666200307A4F5D377A480048
:1001A0000004070300000000001C3E634100000043
:1001B0000041633E1C000000082A3E1C1C3E2A0829
:1001C0000008083E3E080800000080E060000000D3
:1001D000000808080808080000000060600000002F
:1001E0006030180C060301003E7F594D477F3E00EA
:1001F00040427F7F40400000627359496F660000B3
:10020000226349497F360000181C16537F7F500037
:10021000276745457D3900003C7E4B497930000019
:10022000030371790F070000367F49497F360000CC
:10023000064F49693F1E000000000066660000008E
:10024000000080E666000000081C366341000000E4
:100250000014141414141400004163361C08000028
:10026000000203595D0702003E7F415D5D5F0E00A5
:100270007C7E13137E7C0000417F7F49497F3600DE
:100280001C3E634141632200417F7F41633E1C006D
:10029000417F7F495D416300417F7F491D0103002C
:1002A0001C3E6341513372007F7F08087F7F00004E
:1002B00000417F7F41000000307040417F3F0100DE
:1002C000417F7F081C776300417F7F414060700061
:1002D0007F7F0E1C0E7F7F007F7F060C187F7F00C4
:1002E0001C3E6341633E1C00417F7F49090F0600AD
:1002F0001E3F2131617F5E00417F7F09197F6600CB
:10030000266F4D495973320003417F7F410300003E
:100310007F7F40407F7F00001F3F60603F1F0000E5
:100320003F7F6030607F3F0063771C081C7763006D
:10033000074F78784F070000476371594D67730086
:10034000007F7F41410000000103060C183060006F
:100350000041417F7F000000080C0603060C0800E6
:10036000808080808080808000000307040000007F
:10037000207454543C784000417F3F484878300016
:10038000387C44446C280000307848493F7F400066
:10039000387C54545C180000487E7F4903060000F6
:1003A00098BCA4A4F87C0400417F7F08047C7800FA
:1003B00000447D7D4000000060E08084FD7D000001
:1003C000417F7F10386C440000417F7F4000000077
:1003D0007C7C18781C7C78007C7804047C78000095
:1003E000387C44447C38000084FCF8A4243C180089
:1003F000183C24A4F8FC8400447C784C040C1800BD
:10040000485C54746424000004043E7F44240000CB
:100410003C7C40403C7C40001C3C60603C1C00003C
:100420003C7C6030607C3C00446C3810386C44008C
:100430009CBCA0A0FC7C00004C64745C4C6400007C
:1004400008083E7741410000000000777700000077
:100450004141773E08080000020301030203010046
:1004600070784C464C78700011241FBECFEFD8E056
:10047000DEBFCDBF11E0A0E0B1E0E6E4F6E102C0EE
:1004800005900D92AE37B107D9F725E0AEE7B1E0A0
:1004900001C01D92AA38B207E1F70E9467060C94CA
:1004A000210B0C9400003FB7F8948091810190914A
:1004B0008201A0918301B091840126B5A89B05C05B
:1004C0002F3F19F00196A11DB11D3FBFBA2FA92FD3
:1004D000982F8827820F911DA11DB11DBC01CD0150
:1004E00042E0660F771F881F991F4A95D1F708953C
:1004F0008F929F92AF92BF92CF92DF92EF92FF9234
:100500006B017C010E9453024B015C01C114D104B8
:10051000E104F104F1F00E945302DC01CB018819DF
:100520009909AA09BB09883E9340A105B10570F35A
:1005300021E0C21AD108E108F10888EE880E83E0B4
:10054000981EA11CB11CC114D104E104F10419F7D7
:10055000DDCFFF90EF90DF90CF90BF90AF909F9056
:100560008F900895309185012BB12C602BB92AB161
:100570002C602AB95A985B98330F2BB1237F48E03F
:100580002B7F37FD24602BB95B9A5B98330F41506A
:10059000B9F72B7F2BB95B9A5B982BB1237FFC01BA
:1005A0006150F0F081919FEF980F9E3F58F02B7FA4
:1005B0008F3F09F424602BB988E05B9A5B988150E7
:1005C000E1F70AC098E02B7F87FD24602BB95B9A86
:1005D0005B98880F9150B9F75A985B9A5B98E0CF77
:1005E0005A985B9A5A9A8AB1837F8AB90895CF93B1
:1005F000DF9300D0CDB7DEB719828A8362E070E066
:10060000CE0101960E94B2020F900F90DF91CF9120
:1006100008950F931F93CF93DF93EC018B01862FE7
:10062000806B0E94F7028C2F8F700E94F702CE0120
:1006300024E0959587952A95E1F78F7080610E9457
:10064000F7021695102F002717950795C00FD11F99
:10065000D0937F01C0937E01DF91CF911F910F91C5
:100660000895CF92DF92EF92FF920F931F93CF9353
:10067000DF93CDB7DEB7C158D1090FB6F894DEBF0E
:100680000FBECDBF6C018B0180E48983AB01B60145
:10069000CE0102960E943908B8016F5F7F4FCE01EC
:1006A00001960E94B202E0907E01F0907F01A801C5
:1006B000B601C70186579E4F0E9439080E0D1F1DB7
:1006C00010937F0100937E01CF57DF4F0FB6F89450
:1006D000DEBF0FBECDBFDF91CF911F910F91FF9075
:1006E000EF90DF90CF9008952F923F924F925F92BC
:1006F0006F927F928F929F92AF92BF92CF92DF9232
:10070000EF92FF920F931F93CF93DF93CDB7DEB796
:1007100027970FB6F894DEBF0FBECDBF7C018B01CB
:100720006A0149018038910508F086C140385105B9
:1007300008F082C16034710508F07EC160E486165D
:10074000910408F079C12A01481A590A3401601A43
:10075000710A920157FE04C0222733272419350954
:10076000C30177FE04C08827992786199709821745
:1007700093070CF0A6C0CE14DF046CF4519441949E
:100780005108902F812F8401892E982E9E2D8F2D18
:100790007601C92ED82EA401401B510B12013594AD
:1007A000279457FF06C05195419551092FEF3FEF10
:1007B00002C021E030E03B832A83580183E0B594F6
:1007C000A7948A95E1F7B694BA2CAA24B794A79473
:1007D000B7016A0D7B1DCB0186579E4F5C0181E0FE
:1007E00098012770332701C0880F2A95EAF79701EF
:1007F0002F5F3F4F3501B90161507109C616D70609
:100800000CF44DC045019FEF891A990AF5019081BA
:10081000982B9083241A350A37FE3DC0240C351CD2
:10082000AA80BB80A00EB11E6A817B8161307105F8
:1008300019F4880F79F508C0682F70E075956795F1
:10084000862F672B39F5D9C0B80193E07595679568
:100850009A95E1F7C7012F833E834C835D830E9405
:100860000903B40166197709C3010E9431032F817E
:100870003E8179010F5F1F4F80E890E04C815D81E0
:10088000880E991E0770112781E001C0880F0A9514
:10089000EAF7340185012F5F3F4F5401ACCFA61416
:1008A000B70409F4C9C0B801A3E075956795AA9586
:1008B000E1F7C7010E940903B50166197709C30171
:1008C00099C0801691066CF4719461947108902F10
:1008D000812F8401892E982E9E2D8F2D7601C92E71
:1008E000D82E580173E0B594A7947A95E1F7B694A1
:1008F000BA2CAA24B794A794C7018A0D9B1DFC01AA
:10090000E657FE4F5F019081998321E0A80147706F
:10091000552701C0220F4A95EAF7CE18DF082301B8
:1009200055944794D7FE07C0D194C194D10822248E
:100930002A94322C28C022242394312C24C0822BC8
:1009400089834C185D08220F19F5981789F0F50175
:100950008083B80143E0759567954A95E1F7C70133
:100960000E94090361E070E0CE0101960E9431030C
:10097000F501E058FF4F9081998357FC58C05F0103
:1009800021E00F5F1F4F898180169106C4F621C0B8
:1009900057FEF7CF460C571C981799F0F501808346
:1009A000B80133E0759567953A95E1F7C7012F8354
:1009B0000E94090361E070E0CE0101960E943103BC
:1009C0002F81A20CB31CE20CF31CF50190819983DA
:1009D000D8CF981789F1F5018083B40123E075958C
:1009E00067952A95E1F7C7010E94090361E070E06D
:1009F000CE0101960E9431031FC0B80183E07595B6
:100A000067958A95E1F7C7012F833E834C835D8309
:100A10000E940903B40166197709C3010E943103DA
:100A20002F813E817901850180E89FEF27CF460C19
:100A3000571C5F0121E0C5CF27960FB6F894DEBFA3
:100A40000FBECDBFDF91CF911F910F91FF90EF901F
:100A5000DF90CF90BF90AF909F908F907F906F90DE
:100A60005F904F903F902F9008950F931F93CF93D7
:100A7000DF93C0912001D0E0BE0180E091E00E94B0
:100A8000B202219700917E0110917F01AE0161E0D9
:100A900071E0C80186579E4F0E943908C00FD11FD0
:100AA000D0937F01C0937E0181E080932001DF918C
:100AB000CF911F910F910895BF92CF92DF92EF9245
:100AC000FF920F931F93CF93DF93CDB7DEB760975D
:100AD0000FB6F894DEBF0FBECDBF7B01FB010190C6
:100AE0000020E9F731978F01061B170B6801BC0145
:100AF00080E090E00E940903C80123E0880F991F5D
:100B00002A95E1F7813891051CF417FF04C039C01C
:100B100090E1C92ED12C870188E0B82EC8018E192A
:100B20009F098C159D0544F5F80181918F01F8E02E
:100B30008F9FC0011124BC0168597F4F48E050E0ED
:100B4000CE0101960E94E6078091200190E049972E
:100B500014F00E94350580912001A82FB0E0A0502C
:100B6000BF4FFE0131969B2D01900D929A95E1F7B2
:100B7000885F80932001D2CF0E94350580E090E00D
:100B800002C08FEF9FEF60960FB6F894DEBF0FBEE6
:100B9000CDBFDF91CF911F910F91FF90EF90DF902C
:100BA000CF90BF900895CF92DF92EF92FF920F9374
:100BB0001F93CF93DF93CDB7DEB760970FB6F8944E
:100BC000DEBF0FBECDBF9E012F5F3F4F690180E1A9
:100BD000D9011D928A95E9F700E010E0B80180E0A4
:100BE00090E00E94090388E0E82EF12C60E170E0BB
:100BF000C6010E943103B1E0EB1AF108B9F70F5FAB
:100C00001F4F0830110551F780E094E0EAE8F1E069
:100C1000DF019C011D9221503040E1F760960FB634
:100C2000F894DEBF0FBECDBFDF91CF911F910F9122
:100C3000FF90EF90DF90CF9008951F920F920FB624
:100C40000F9211242F933F938F939F93AF93BF9352
:100C50008091860190918701A0918801B0918901CE
:100C60003091800123E0230F2D3720F40196A11D40
:100C7000B11D05C026E8230F0296A11DB11D2093CA
:100C800080018093860190938701A0938801B0939F
:100C900089018091810190918201A0918301B0919D
:100CA00084010196A11DB11D809381019093820161
:100CB000A0938301B0938401BF91AF919F918F91D5
:100CC0003F912F910F900FBE0F901F901895CF93CB
:100CD000DF93CDB7DEB7A0970FB6F894DEBF0FBE97
:100CE000CDBF789484B5826084BD84B5816084BDB5
:100CF00085B5826085BD85B5816085BD80916E00BA
:100D0000816080936E0010928100809181008260EA
:100D10008093810080918100816080938100809127
:100D200080008160809380008091B1008460809316
:100D3000B1008091B00081608093B00080917A0012
:100D4000846080937A0080917A00826080937A0038
:100D500080917A00816080937A0080917A00806827
:100D600080937A001092C10062E370E080E090E02E
:100D70000E94780286E1E1E2F1E08E010F5F1F4FF1
:100D8000D80101900D928A95E1F78CE3809385015B
:100D9000529853985A9A5B9A66E170E0C8010E9493
:100DA000B2024AE0242E312C0E94D30567E371E0A1
:100DB00080E090E00E945C0564E471E081E090E0F6
:100DC0000E945C0563E571E082E090E00E945C05B2
:100DD0006BE571E083E090E00E945C0560EA7FE0F3
:100DE00080E090E00E9478020E94D3058FB7F894CB
:100DF000409186015091870160918801709189012D
:100E00008FBFE12CF12C4FE750E04E195F092FE323
:100E100030E060E070E0C7010E94740382E0E80EF9
:100E2000F11C90E8E916F10471F73EE3E32EF12C92
:100E30002FE330E02E193F094FE750E0B70180E083
:100E400090E00E94740382E0E81AF1089EEFE91630
:100E50009FEFF90669F760ED77E080E090E00E948F
:100E6000780224E0422E512C0E94D305E12CF12C73
:100E7000370180E4680E711C6701D594C794560150
:100E800090E2A90EB11C90E4892E912C8E189F0837
:100E90009501A301B501C4010E94740380E290E0B2
:100EA0008C199D096C019C01A301BC01C4010E9425
:100EB00074039501A401B601C4010E947403950155
:100EC000A301B601C3010E94740392E0E90EF11C74
:100ED00080E4E816F10461F691E0491A510821F620
:100EE00060EA7FE080E090E00E947802198A8FB784
:100EF000F8948090860190908701A0908801B0902E
:100F000089018FBFE12CF12CC701B1010E94EF07CD
:100F1000BC01605D7F4F40E150E0C8010E94420883
:100F2000C12CD12CB801C6010E945C058FEFC81AF4
:100F3000D80A98E0C916D104A9F78FEFE81AF80A81
:100F400094E1E916F10401F78FB7F8944091860116
:100F50005091870160918801709189018FBF9A013A
:100F6000AB01281939094A095B0960E47DE083E097
:100F700090E00E94030879010E94D305C701B101E6
:100F80000E94EF079F938F937F936F938CE691E07E
:100F90009F938F931F930F930E944908B80180E09D
:100FA00090E00E945C0560EA7FE080E090E00E94B3
:100FB00078020FB6F894DEBF0FBECDBF80E090E0A0
:100FC000892B09F4F1CE0E940000EBCEFB01DC017D
:100FD00002C005900D9241505040D8F7089597FBFC
:100FE000072E16F4009407D077FD09D00E9425083B
:100FF00007FC05D03EF4909581959F4F089570951C
:1010000061957F4F0895A1E21A2EAA1BBB1BFD011B
:101010000DC0AA1FBB1FEE1FFF1FA217B307E407D7
:10102000F50720F0A21BB30BE40BF50B661F771F2F
:10103000881F991F1A9469F760957095809590950F
:101040009B01AC01BD01CF010895AA1BBB1B51E15F
:1010500007C0AA1FBB1FA617B70710F0A61BB70B28
:10106000881F991F5A95A9F780959095BC01CD01CD
:101070000895FB01DC0102C001900D9241505040E7
:10108000D8F70895DC0101C06D9341505040E0F75E
:101090000895AEE0B0E0EFE4F8E00C94F80A0D89B2
:1010A0001E8986E08C831A8309838FEF9FE79E83D6
:1010B0008D83AE01475E5F4F6F89788DCE010196BB
:1010C0000E946C082F813885F801E20FF31F10820F
:1010D0002E96E4E00C94140BACE0B0E0E2E7F8E00C
:1010E0000C94EA0A7C016B018A01FC0117821682CA
:1010F000838181FFBDC1CE0101964C01F70193812F
:10110000F60193FD859193FF81916F01882309F486
:10111000ABC1853239F493FD859193FF81916F01C5
:10112000853229F4B70190E00E94540AE7CF512C90
:10113000312C20E02032A0F48B3269F030F4803280
:1011400059F0833269F420612CC08D3239F080333C
:1011500039F4216026C02260246023C0286021C0A9
:1011600027FD27C030ED380F3A3078F426FF06C04F
:10117000FAE05F9E300D1124532E13C08AE0389E92
:10118000300D1124332E20620CC08E3221F426FD46
:101190006BC1206406C08C3611F4206802C088360A
:1011A00041F4F60193FD859193FF81916F018111C7
:1011B000C1CF982F9F7D9554933028F40C5F1F4F1B
:1011C000FFE3F9830DC0833631F0833771F0833547
:1011D00009F05BC022C0F801808189830E5F1F4F38
:1011E00044244394512C540115C03801F2E06F0E91
:1011F000711CF801A080B18026FF03C0652D70E04E
:1012000002C06FEF7FEFC5012C870E94490A2C01B5
:1012100083012C852F77222E17C03801F2E06F0E44
:10122000711CF801A080B18026FF03C0652D70E01D
:1012300002C06FEF7FEFC5012C870E943E0A2C0190
:101240002C852068222E830123FC1BC0832D90E077
:1012500048165906B0F4B70180E290E00E94540AA3
:101260003A94F4CFF50127FC859127FE81915F0127
:10127000B70190E00E94540A31103A94F1E04F1AFD
:1012800051084114510471F7E5C0843611F08936D4
:1012900039F5F80127FF07C0608171818281938150
:1012A0000C5F1F4F08C060817181072E000C880BF6
:1012B000990B0E5F1F4F2F76722E97FF09C09095E6
:1012C0008095709561957F4F8F4F9F4F2068722E4C
:1012D0002AE030E0A4010E948C0AA82EA81844C07D
:1012E000853729F42F7EB22E2AE030E025C0F22F78
:1012F000F97FBF2E8F36C1F018F4883579F0B4C06D
:10130000803719F0883721F0AFC02F2F2061B22E1F
:10131000B4FE0DC08B2D8460B82E09C024FF0AC016
:101320009F2F9660B92E06C028E030E005C020E16E
:1013300030E002C020E132E0F801B7FE07C0608172
:101340007181828193810C5F1F4F06C06081718122
:1013500080E090E00E5F1F4FA4010E948C0AA82E2F
:10136000A818FB2DFF777F2E76FE0BC0372D3E7F12
:10137000A51450F474FE0AC072FC08C0372D3E7EDE
:1013800005C0BA2C372D03C0BA2C01C0B52C34FFD0
:101390000DC0FE01EA0DF11D8081803311F4397E0C
:1013A00009C032FF06C0B394B39404C0832F86787B
:1013B00009F0B39433FD13C030FF06C05A2CB314A8
:1013C00018F4530C5B18B32CB31468F4B70180E223
:1013D00090E03C870E94540AB3943C85F5CFB31447
:1013E00010F43B1801C0312C34FF12C0B70180E368
:1013F00090E03C870E94540A3C8532FF17C031FDC3
:1014000003C088E790E002C088E590E0B7010CC017
:10141000832F867859F031FF02C08BE201C080E251
:1014200037FD8DE2B70190E00E94540AA51438F40C
:10143000B70180E390E00E94540A5A94F7CFAA942F
:10144000F401EA0DF11D8081B70190E00E94540A79
:10145000A110F5CF332009F451CEB70180E290E01E
:101460000E94540A3A94F6CFF7018681978102C010
:101470008FEF9FEF2C96E2E10C94060BFC01059098
:10148000615070400110D8F7809590958E0F9F1F86
:101490000895FC016150704001900110D8F78095CB
:1014A00090958E0F9F1F08950F931F93CF93DF93F7
:1014B000FB01238121FD03C08FEF9FEF28C022FF96
:1014C00016C046815781248135814217530744F461
:1014D000A081B1819D012F5F3F4F318320838C9389
:1014E000268137812F5F3F4F3783268310C0EB0162
:1014F000092F182F0084F185E02D0995892BE1F63D
:101500008E819F8101969F838E83812F902FDF9103
:10151000CF911F910F910895FA01AA27283051F118
:10152000203181F1E8946F936E7F6E5F7F4F8F4F14
:101530009F4FAF4FB1E03ED0B4E03CD0670F781F73
:10154000891F9A1FA11D680F791F8A1F911DA11D58
:101550006A0F711D811D911DA11D20D009F4689491
:101560003F912AE0269F11243019305D3193DEF639
:10157000CF010895462F4770405D4193B3E00FD0EF
:10158000C9F7F6CF462F4F70405D4A3318F0495DDA
:1015900031FD4052419302D0A9F7EACFB4E0A695BD
:1015A0009795879577956795BA95C9F700976105DF
:1015B000710508959B01AC010A2E06945795479535
:1015C00037952795BA95C9F7620F731F841F951F2A
:1015D000A01D08952F923F924F925F926F927F923B
:1015E0008F929F92AF92BF92CF92DF92EF92FF9233
:1015F0000F931F93CF93DF93CDB7DEB7CA1BDB0BDF
:101600000FB6F894DEBF0FBECDBF09942A88398883
:1016100048885F846E847D848C849B84AA84B9848A
:10162000C884DF80EE80FD800C811B81AA81B98196
:10163000CE0FD11D0FB6F894DEBF0FBECDBFED01AA
:061640000895F894FFCFAD
:101646004000000000000000000000000000000054
:101656000000000000000000000000000000000084
:101666000100AEA83FD30040A1C8DA1281FFA4A6AC
:10167600D5808D14AF200241626F757420746F207F
:1016860072756E004F4C4544205065726620746535
:10169600737400312D4C696E657300322D387838BD
:1016A6002063686172616374657273005261746568
:0E16B600203D2025642E256420465053000060
:00000001FF
