:100000000C9451050C9479050C9479050C947905A0
:100010000C9479050C9479050C9479050C94790568
:100020000C9479050C9479050C9479050C94790558
:100030000C9479050C9479050C9479050C94790548
:100040000C94420F0C9479050C94CE120C94A812C7
:100050000C9479050C9479050C9479050C94790528
:100060000C94970F0C94790500000000003E5B4F44
:100070005B3E3E6B4F6B3E1C3E7C3E1C183C7E3C08
:10008000181C577D571C1C5E7F5E1C00183C180016
:10009000FFE7C3E7FF0018241800FFE7DBE7FF30A6
:1000A000483A060E2629792926407F050507407F14
:1000B00005253F5A3CE73C5A7F3E1C1C08081C1C87
:1000C0003E7F14227F22145F5F005F5F06097F017D
:1000D0007F006689956A606060606094A2FFA29468
:1000E00008047E040810207E201008082A1C080836
:1000F0001C2A08081E101010100C1E0C1E0C303884
:100100003E3830060E3E0E06000000000000005F84
:1001100000000007000700147F147F14242A7F2AA0
:100120001223130864623649562050000807030062
:10013000001C2241000041221C002A1C7F1C2A08AE
:10014000083E080800807030000808080808000011
:1001500060600020100804023E5149453E00427F85
:10016000400072494949462141494D331814127FD4
:100170001027454545393C4A494931412111090774
:100180003649494936464949291E000014000000F5
:1001900040340000000814224114141414140041C7
:1001A00022140802015909063E415D594E7C121184
:1001B000127C7F494949363E414141227F414141BC
:1001C0003E7F494949417F090909013E4141517337
:1001D0007F0808087F00417F41002040413F017FA8
:1001E000081422417F404040407F021C027F7F0470
:1001F00008107F3E4141413E7F090909063E4151B9
:10020000215E7F09192946264949493203017F01A8
:10021000033F4040403F1F2040201F3F4038403FA9
:10022000631408146303047804036159494D4300BF
:100230007F4141410204081020004141417F0402F6
:10024000010204404040404000030708002054548D
:1002500078407F284444383844444428384444286B
:100260007F385454541800087E090218A4A49C78BE
:100270007F0804047800447D40002040403D007F1A
:100280001028440000417F40007C047804787C08FA
:100290000404783844444438FC18242418182424CE
:1002A00018FC7C08040408485454542404043F44B3
:1002B000243C4040207C1C2040201C3C4030403CE2
:1002C00044281028444C9090907C4464544C440042
:1002D00008364100000077000000413608000201A6
:1002E0000204023C2623263C1EA1A161123A404092
:1002F000207A38545455592155557941225454780F
:1003000042215554784020545579400C1E527212A7
:100310003955555559395454545939555454580030
:1003200000457C410002457D420001457C407D1234
:1003300011127DF0282528F07C5455450020545496
:100340007C547C0A097F4932494949323A44444441
:100350003A324A4848303A4141217A3A424020787C
:10036000009DA0A07D3D4242423D3D4040403D3C7D
:1003700024FF2424487E4943662B2FFC2F2BFF09A2
:1003800029F620C0887E0903205454794100004496
:100390007D413048484A32384040227A007A0A0A81
:1003A000727D0D19317D2629292F282629292926F4
:1003B00030484D4020380808080808080808382F39
:1003C00010C8ACBA2F102834FA00007B00000814C3
:1003D0002A142222142A14085500550055AA55AA99
:1003E00055AAFF55FF55FF000000FF00101010FF39
:1003F00000141414FF001010FF00FF1010F010F094
:10040000141414FC001414F700FF0000FF00FF1484
:1004100014F404FC141417101F10101F101F1414D0
:10042000141F00101010F0000000001F101010101A
:100430001F10101010F010000000FF10101010100E
:1004400010101010FF10000000FF140000FF00FF4C
:1004500000001F10170000FC04F4141417101714E8
:1004600014F404F40000FF00F7141414141414140A
:10047000F700F7141414171410101F101F1414147D
:10048000F4141010F010F000001F101F0000001FE7
:1004900014000000FC140000F010F01010FF10FF1A
:1004A000141414FF141010101F00000000F010FFAF
:1004B000FFFFFFFFF0F0F0F0F0FFFFFF0000000093
:1004C00000FFFF0F0F0F0F0F3844443844FC4A4A17
:1004D0004A347E02020606027E027E0263554941CC
:1004E000633844443C04407E201E2006027E020203
:1004F00099A5E7A5991C2A492A1C4C7201724C3017
:100500004A4D4D303048784830BC625A463D3E49ED
:100510004949007E0101017E2A2A2A2A2A44445F91
:10052000444440514A444040444A51400000FF0185
:1005300003E080FF000008086B6B08361236243693
:10054000060F090F060000181800000010100030F8
:1005500040FF0101001F01011E00191D1712003C80
:100560003C3C3C0000000000000103070F1F3F7FE0
:100570000080C0E0F0F8FCFE00000008000201006E
:10058000000304070000000000000000DB40A4A6F8
:100590002EAF2000A1C8D300408DAED580A80000AA
:1005A000600000000000000000000000000000E00B
:1005B0000000000000000000000000000001E0005A
:1005C00000000000000000000000000001F000003A
:1005D000000000000000000000000003F000000028
:1005E0000000000000000000000007F00000000014
:1005F00000000000000000000007F80000000000FC
:1006000000000000000000000FF800000003C00020
:100610007E000001E0007F0FF800000003C000FE34
:10062000000001E000FFEFF800000003C000FE0042
:100630000001E000FFFFF800000003C000F0000030
:10064000000F007FFE7FC0000003C000F00000002C
:100650000F003FFE7FF83FF1FBCFFCFEF3BC3DEF08
:10066000E01FFE7FFF7FFBFFDFFEFEFFBC3DEFE0F4
:100670001FC6FFFF7FFBFFDFFEFEFFBC3DEFE00F6D
:10068000E3C7FE787BC3DE1EF0FFBC3DEF0007FF33
:1006900087FC787BC3DE1EF0F83C3DEF0001FFFFD6
:1006A000F0007BC3C01EF0F03C3DEF0001F37FE0A3
:1006B0003FFBC3CFFEF0F03C3DEF0003E33F807F04
:1006C000FBC3DFFEF0F03C3DEF0007E73C00787B2A
:1006D000C3DE1EF0F03C3DEF0007FFBE00787BC399
:1006E000DE1EF0F03C3DEF0007FFFE00787BC3DE2E
:1006F0001EF0F03C3DEF000FFFFE007FFBFFDFFE32
:10070000F0F03FFDEFE00FFFFF007FFBFFDFFEF0AB
:10071000F03FFDEFE00FF9FF003E79F9CF9EF0F0DA
:100720001F3DE7E01FF1FF00000000000000000097
:100730000000001F80FF007FFFFFFFFFFFFFFFFFA4
:10074000FFE01C007F007FFFFFFFFEB46D888D1867
:10075000E000001F007FFFFFFFFE95AD7DB577E055
:1007600000000F007FFFFFFFFEA5AD9D8D19E0008B
:100770000006007FFFFFFFFEB5ADEDB57EE0000097
:100780000000000180000000000000000000038065
:1007900000000000000000000007C0000000000092
:1007A0000000000007C00000000000000000000F73
:1007B000C00000000000000000001FE0000000007A
:1007C00000000000001FE00000000000000000002A
:1007D0003FE00000000000000000003FF0000000CB
:1007E0000000000000007FF0000000000000001F7B
:1007F000F87FF0000000000000003FFE7FF00000E6
:1008000000000000003FFF7FF0000000000000003B
:100810001FFFFBE0000000000000000FFFF9FFC019
:100820000000000000000FFFF9FFF80000000000CA
:100830000007FFF1FFFF00000000000003FC73FF52
:10084000FF80000000000001FE3FFFFF800000006D
:10085000000000FF1E0FFF000000000000007FFEF0
:100860001FFC000000000000003FFFFFF800000038
:10087000000000000FDFFFE0000000000000001F8C
:1008800019FFC0000000000000003F3CFF00000016
:1008900000000000007E7CF8000000000000000066
:1008A0007FFE7C0000000000000000FFFFFC000055
:1008B000000000000000FFFFFE000000000000003C
:1008C00000FFFFFE0000000000000001FFEFFE003F
:1008D00000000000000001FFCFFE0000000000004B
:1008E0000003FF07FE0000000000000003FC07FEFD
:1008F0000000000000000003F003FE000000000004
:100900000000018000FE0000000000000000000068
:100910007E000000000000000000003E000000001B
:100920000000000000000C00000000000007800034
:10093000FC000003C0000000078001FC000003C0B1
:10094000000000078001FC000003C00000000780D9
:1009500001E00000001E000000078001E000000030
:100960001E007FE3F79FF9FDE7787BDFC0FFF7FF0D
:10097000BFFDFDFF787BDFC0FFF7FFBFFDFDFF7808
:100980007BDFC0F0F787BC3DE1FF787BDE00F0F74E
:1009900087BC3DE1F0787BDE0000F787803DE1E039
:1009A000787BDE007FF7879FFDE1E0787BDE00FF4C
:1009B000F787BFFDE1E0787BDE00F0F787BC3DE123
:1009C000E0787BDE00F0F787BC3DE1E0787BDE007D
:1009D000F0F787BC3DE1E0787BDE00FFF7FFBFFD6D
:1009E000E1E07FFBDFC0FFF7FFBFFDE1E07FFBDF62
:1009F000C07CF3F39F3DE1E03E7BCFC000000000F0
:100A000000000000000000FFFFFFFFFFFFFFFFFFEF
:100A1000FFC0FFFFFFFFFD68DB111A31C0FFFFFFC2
:100A2000FFFD2B5AFB6AEFC0FFFFFFFFFD4B5B3B57
:100A30001A33C0FFFFFFFFFD6B5BDB6AFDC02200C6
:100A4000FF210000FF2F2600416464726573206956
:100A5000326320616E64612053616C6168202121E2
:100A6000210000000000250028002B0000000000ED
:100A7000240027002A0004040404040404040202DD
:100A8000020202020303030303030102040810200D
:100A900040800102040810200102040810201419EB
:100AA0009D1411241FBECFEFD8E0DEBFCDBF11E0F3
:100AB000A0E0B1E0EEE0F6E302C005900D92A23AAC
:100AC000B107D9F723E0A2EAB1E001C01D92AD322F
:100AD000B207E1F715E0C0E5D5E004C02197FE01BB
:100AE0000E94BB19CF34D107C9F70E94AC140C94F3
:100AF000FA1A0C940000FC01918D228D892F90E050
:100B0000805C9F4F821B91098F739927089580E025
:100B100090E0892B29F00E94351281110C9400007D
:100B200008953FB7F8948091320290913302A091DA
:100B30003402B091350226B5A89B05C02F3F19F0AD
:100B40000196A11DB11D3FBFBA2FA92F982F88274D
:100B5000820F911DA11DB11DBC01CD0142E0660FA8
:100B6000771F881F991F4A95D1F708950F931F93F8
:100B7000CF93DF9377FF04C0260F371F60E070E04C
:100B8000DC011496CD91DC911597FB01E20FF31F68
:100B9000CE17DF071CF49E01261B370B1216130617
:100BA0000CF046C0FA0157FD3796DF01E3E0B5953A
:100BB000A795EA95E1F7AC9FF001AD9FF00DBC9FC2
:100BC000F00D11246E0F7F1FDC015F96ED91FC91FB
:100BD0009097E60FF71F4770552781E090E001C01E
:100BE000880F4A95EAF7482F0130110539F078F05F
:100BF00002301105E9F42E0F3F1F13C02E0F3F1FC7
:100C0000E217F307A9F08081842B8193F9CF8095B7
:100C10002E0F3F1FE217F30759F09081982391930D
:100C2000F9CFE217F30721F0808184278193F9CF70
:100C3000DF91CF911F910F910895EF92FF920F9343
:100C40001F93CF93DF93EC0177FDA4C0EC80FD8070
:100C50006E157F050CF09EC057FF04C0240F351F92
:100C600040E050E08E819F81FA01E20FF31F8E1762
:100C70009F071CF49C01241B350B121613060CF065
:100C800089C0922F842F8695869586958E9DD0015A
:100C90008F9DB00D11246A0F7B1FAF8DB8A1A60FD9
:100CA000B71F4770A9F188E0841B482F682F70E0B8
:100CB000FB01E059FA4FE491281790F4621B710987
:100CC0002FEF30E002C0359527956A95E2F7E223D1
:100CD0000130110541F070F00230110579F05AC071
:100CE0000130110519F48C91E82B0AC0013011056F
:100CF00008F049C0E0958C91E82302C08C91E82768
:100D0000EC932C813D81941708F444C0A20FB31FCB
:100D1000E92FE41BE830F8F00230110561F48E2F62
:100D20009C9190959C932C813D81A20FB31F88507C
:100D30008830B0F70FC081E00115110509F480E09B
:100D400081959E2F8C932C813D81A20FB31F9850CB
:100D50009830C0F7E770EE23E9F0F0E0E859FA4F79
:100D6000E4910130110539F048F00230110591F499
:100D70008C91E82706C08C91E82B03C0E0958C91FC
:100D8000E823EC9307C00230110509F4B7CFAE0D8C
:100D9000BF1DBECFDF91CF911F910F91FF90EF90BC
:100DA00008950F931F93CF93DF93DC015696EC9138
:100DB0005697E23071F0E330E9F0E13079F5FB016C
:100DC00014960D90BC91A02DA41BB50BA21BB30BC8
:100DD00018C0EC01EC81FD81E61BF70BBF016150EF
:100DE0007109EE81FF81DF01A41BB50BAD01421B30
:100DF000530B14C0DA01EC01EE81FF81E61BF70B07
:100E00003197F7FD0DC0EC014E815F81E417F507C6
:100E10003CF4AF01BD010E94B60502C00E941D0650
:100E2000DF91CF911F910F9108950F931F93DC01D4
:100E30005696EC915697E23061F0E33009F1E130DB
:100E400081F51496ED91FC911597E41BF50B319704
:100E500023C0DC011496ED91FC911597DF01A61BD0
:100E6000B70BBD01DC011696ED91FC911797DF01E0
:100E7000A41BB50BAD0141505109621B730B11C08E
:100E8000FA01DC0116964D915C911797DA01A61BC9
:100E9000B70BBD01621B730BAB01BF010E941D06A6
:100EA0000CC057FD0AC0DC011696ED91FC91179716
:100EB0004E175F0714F40E94B6051F910F91089515
:100EC000FC0177FDB9C080859185681779070CF022
:100ED000B3C057FDB1C082859385481759070CF000
:100EE00008958689823079F484819581DC01A61B7E
:100EF000B70BBD016150710986819781DC01A41B8C
:100F0000B50BAD010EC0833009F084C0642775278E
:100F1000CB01842795276827792746815781481B6D
:100F2000590B415051092130310531F048F122303F
:100F3000310509F44AC00895CA0157FD07969C017E
:100F4000A3E035952795AA95E1F7A481B5812A9F5D
:100F5000C0012B9F900D3A9F900D1124680F791FAF
:100F6000078CF0A1E02DE60FF71F4770552781E0B1
:100F700090E001C0880F4A95EAF79081892B48C01C
:100F8000CA0157FD07969C0193E0359527959A95E0
:100F9000E1F7A481B5812A9FC0012B9F900D3A9F54
:100FA000900D1124680F791F078CF0A1E02DE60F3A
:100FB000F71F4770552781E090E001C0880F4A95E0
:100FC000EAF780959081892323C0CA0157FD0796CF
:100FD0009C0183E0359527958A95E1F7A481B58139
:100FE0002A9FC0012B9F900D3A9F900D1124680FEE
:100FF000791F078CF0A1E02DE60FF71F47705527EA
:1010000081E090E001C0880F4A95EAF79081892736
:1010100080830895813009F086CF6427752746279D
:1010200057276427752784819581DC01A61BB70BA0
:10103000BD016150710977CF08950895FC01637077
:10104000668B8481958126813781613039F06330E8
:1010500029F09187808733872287089531872087F9
:101060009387828708952F923F924F925F926F925B
:101070007F928F929F92AF92BF92CF92DF92EF9228
:10108000FF920F931F93CF93DF93CDB7DEB76C978B
:101090000FB6F894DEBF0FBECDBF9C8F8B8F1B01A8
:1010A0004A01198708873701A982DC0159964D91B9
:1010B0005C915A974115510509F0FFC018968D9122
:1010C0009C911997681779070CF0E1C11A968D91D8
:1010D0009C911B97881699060CF0D9C1EC2DF0E075
:1010E000FB83EA83AB0166E0C69E400D511D1124CF
:1010F0005D874C87141615060CF0C9C18A2D90E047
:101100009B878A8733E0880F991F3A95E1F79F877D
:101110008E87880D991D181619060CF0B8C15896BF
:101120008C91811103C0203B08F02F5FAB8DBC8DEB
:10113000ED91FC9111970284F385E02DCD012A8F6A
:1011400009952A8DB5E02B9F90011124EC2DF0E03C
:10115000F98BE88BA1014B5F5F4F5B8B4A8B3D8224
:101160002C822101B901621973097D8B6C8B9981E5
:10117000892F90E09F8B8E8BD4011896B98FA88F02
:10118000EC89FD89E40DF51DE859FF4FD490540119
:101190009F828E82D0FE16C0AB8DBC8DED91FC91EE
:1011A000B1E0CB1209C02981213031F40484F585E6
:1011B000E02D2885398519C00684F785E02DE8845F
:1011C000F9841DC0488559856416750619F1AB8DE3
:1011D000BC8DED91FC91B1E0CB120DC02981213085
:1011E00051F40484F585E02D9301A501B2018B8DA6
:1011F0009C8D09950FC00684F785E02D73010A8543
:101200001B852A813B814E815F816C817D818B8D25
:101210009C8D0995D6943FEFA31AB30A4E815F8146
:101220006E897F89460F571F5F834E83888D998D06
:10123000A816B90609F0AECF9FEF491A590AAC813A
:10124000BD81E889F989AE0FBF1FBD83AC832A89B0
:101250003B894216530609F093CF48855985641699
:10126000750609F4F2C0AB8DBC8DED91FC91B1E037
:10127000CB1211C02981213071F4B1016B5F7F4F16
:101280000088F189E02D830128E030E0A4018B8DF6
:101290009C8D0995DAC06C857D854A815B81641BD4
:1012A000750B0684F785E02D73010E851F859A0165
:1012B000A4018B8D9C8D0995C8C0FA013496949138
:1012C000329765917491291BCB01B7E02B9F800D5C
:1012D000911D1124FA01259134913B8B2A8BFC013D
:1012E000A590B490FC0132965490319634913C878D
:1012F000329614913196749041E04C1518F0598152
:10130000523068F0612F012E000C770B7B836A83CB
:10131000872D072C000C990B9D838C8304C01D82A4
:101320001C821B821A82AB8DBC8DED91FC911197B2
:101330000284F385E02DCD010995412CD12C612C3F
:10134000F981EF2FF0E0FF83EE832C2D30E03B8717
:101350002A87A401470D511D77FC5A955F8B4E8B50
:10136000B101610F711D17FD7A95798F688F5C85CA
:10137000651608F06AC0262D30E04C815D81420F71
:10138000531F6E817F81469FC001479F900D569FDE
:10139000900D1124DC01A80DB91DB98BA88B842DEB
:1013A000712CEE89FF89E20FF31FFD8BEC8B751416
:1013B00008F048C071E0780F7E87877041F4C5015E
:1013C0000196EA89FB89EA0DFB1DD4905C01D7FEEA
:1013D00035C0AB8DBC8DED91FC91B1E0CB1212C04C
:1013E0002981213079F40484F585E02D288539851B
:1013F0004C895D89688D798D670D711D8B8D9C8DF4
:1014000009951CC08A819B81870D911D4A855B854A
:10141000849FB001859F700D949F700D1124620D03
:10142000731D0684F785E02DE884F9840E811F8101
:101430009A01488959898B8D9C8D0995DD0C73948F
:101440008E85B5CF450C639492CFAB8DBC8DED915D
:10145000FC9111970688F789E02DCD016C960FB6A7
:10146000F894DEBF0FBECDBFDF91CF911F910F91DA
:10147000FF90EF90DF90CF90BF90AF909F908F90B4
:101480007F906F905F904F903F902F9009946C9653
:101490000FB6F894DEBF0FBECDBFDF91CF911F9185
:1014A0000F91FF90EF90DF90CF90BF90AF909F9003
:1014B0008F907F906F905F904F903F902F90089506
:1014C0008F929F92AF92CF92EF92FF920F931F93C2
:1014D000CF93DF93EC01262F898D9A8D009709F029
:1014E00042C06A3059F41D861C862D898E859F85E1
:1014F00038E0239F800D911D112443C06D3009F405
:10150000AAC08F898823C9F03C898C859D8546E0D7
:10151000349F800D911D112448855985481759071E
:1015200064F41D861C863D898E859F8548E0349F26
:10153000800D911D11249F878E87EA88FB8808897A
:1015400019894E855F856C857D85AD88CC88CE01F7
:101550000E9433082C898C859D8536E0239F800D61
:10156000911D11243EC06A3079F41D861C862D8998
:10157000FC013896E4918E859F852E9F800D911DEC
:1015800011249F878E8767C06D3009F464C0FC0109
:1015900034963491631708F45EC03296E491E617EE
:1015A00008F459C0462F431B342FFC013296859016
:1015B000949047E0349F800C911C1124F4013296E2
:1015C00034913196E491332311F0E1110DC0F4010F
:1015D0003496E4912C898C859D85E29F800D911D28
:1015E00011249D878C8737C0F401359644915F891B
:1015F000552319F15C89E32FF0E0E40FF11D47FD5D
:10160000FA955E9FB0015F9F700D11244C855D853A
:10161000460F571F688579856417750774F41D8612
:101620001C863D89FC013896E4918E859F853E9FFE
:10163000800D911D11249F878E87EA88FB88088979
:1016400019894E855F856C857D85AD88CC88CE01F6
:101650000E943308BCCF81E090E0DF91CF911F91D1
:101660000F91FF90EF90CF90AF909F908F90089543
:101670006F927F928F929F92AF92BF92CF92DF92A2
:10168000EF92FF920F931F93CF93DF93EC014B01E7
:101690005A0169013801E881F9810284F385E02D5E
:1016A0000995E881F9810288F389E02D8701960187
:1016B000A501B401CE010995E881F981A501460D86
:1016C000571D415051090288F389E02D9601B4015C
:1016D000CE010995E881F9810088F189E02D930117
:1016E000A501B401CE010995E881F981C80CD91C86
:1016F000B601615071090088F189E02D9301A501BF
:10170000CE010995E881F9810688F789E02DCE019F
:10171000DF91CF911F910F91FF90EF90DF90CF90CD
:10172000BF90AF909F908F907F906F900994CF92D1
:10173000DF92EF92FF920F931F93CF93DF9300D02E
:1017400000D000D0CDB7DEB76C01DC01ED91FC918B
:101750006217730789F4041715072CF4942F852F4B
:10176000A801092F182F041B150B98012F5F3F4F5D
:10177000048CF58DE02D12C04017510709F526178E
:1017800037072CF4962F872FB901292F382F261BC6
:10179000370B2F5F3F4F068CF78DE02D8701C60179
:1017A000099526960FB6F894DEBF0FBECDBFDF9128
:1017B000CF911F910F91FF90EF90DF90CF90089500
:1017C0000284F385E02D2D833E834B835C83698304
:1017D0007A830995D601ED91FC910488F589E02D75
:1017E0002D813E814B815C8169817A81C601099599
:1017F000D601ED91FC910688F789E02DC601269669
:101800000FB6F894DEBF0FBECDBFDF91CF911F9111
:101810000F91FF90EF90DF90CF900994EF92FF929D
:101820000F931F93DC01ED91FC9111971A960D9186
:101830001C911B9718962D913C91199700A0F1A12E
:10184000E02D7B0140E050E060E070E009951F91E1
:101850000F91FF90EF9008954F925F926F927F9259
:101860008F929F92AF92BF92CF92DF92EF92FF92B0
:101870000F931F93CF93DF9300D0CDB7DEB76C01EA
:101880005A0139014801DC01ED91FC910284F38594
:10189000E02D69837A8309956981462E7A81572ED6
:1018A000640C751CD601ED91FC91461457046CF440
:1018B0000088F189E02D87019401A501B201C601DC
:1018C0000995BFEF4B1A5B0AEDCF0688F789E02D2B
:1018D000C6010F900F90DF91CF911F910F91FF9054
:1018E000EF90DF90CF90BF90AF909F908F907F90C0
:1018F0006F905F904F900994AF92BF92CF92DF921A
:10190000EF92FF920F931F93CF93DF9300D000D0FD
:10191000CDB7DEB75C016901DC01ED91FC91028479
:10192000F385E02D4B835C8369837A830995D50128
:10193000ED91FC9169817A819B012C0D3D1D215017
:1019400031090488F589E02D78014B815C818A0199
:10195000C5010995D501ED91FC910688F789E02D27
:10196000C5010F900F900F900F90DF91CF911F91B5
:101970000F91FF90EF90DF90CF90BF90AF900994C0
:10198000AF92BF92CF92DF92EF92FF920F931F938D
:10199000CF93DF9300D000D0CDB7DEB75C016901F3
:1019A000DC01ED91FC910284F385E02D4B835C8397
:1019B00069837A830995D501ED91FC914B815C8116
:1019C000C40ED51EB1E0CB1AD1080488F589E02DEC
:1019D0007801860169817A819B01C5010995D5014C
:1019E000ED91FC910688F789E02DC5010F900F90CD
:1019F0000F900F90DF91CF911F910F91FF90EF907B
:101A0000DF90CF90BF90AF9009940895EF92FF922E
:101A10000F931F93DC01ED91FC9100A0F1A1E02D4B
:101A200009951F910F91FF90EF9008950F931F93C9
:101A3000DC01ED91FC91068CF78DE02D09951F914D
:101A40000F9108950F931F93DC01ED91FC91048C8D
:101A5000F58DE02D09951F910F910895DC01ED9111
:101A6000FC910084F185E02D099408952F923F9216
:101A70004F925F926F927F928F929F92AF92BF929E
:101A8000CF92DF92EF92FF920F931F93CF93DF934A
:101A900000D01F92CDB7DEB74C017B836A836A0109
:101AA000590117019801241B350B37FF03C03195ED
:101AB00021953109C5014A815B81841B950B97FFF4
:101AC00003C091958195910951E05983821793073D
:101AD00014F019820BC09A2D8B2D5801092F182F45
:101AE0009A818B81DB82CA82C92ED82E8A819B8102
:101AF000A816B9065CF49C2D8D2D6801092F182FAE
:101B00009A818B81BB82AA82A92EB82E2501AA8137
:101B1000BB814A1A5B0A38016C187D0877FE03C046
:101B2000719461947108720157FE03C0BFEFEB1A04
:101B3000FB0AF594E794C016D1061CF00FEF1FEFD7
:101B40001FC001E010E01CC0D401ED91FC91B981EF
:101B50000484F585E02D9101BB23C1F04A815B81AE
:101B6000B601C4010995E618F708F7FE04C0C00ED7
:101B7000D11EE40CF51CEA81FB813196FB83EA83DC
:101B80004A815B81A416B506FCF604C0A6016A81F1
:101B90007B81E7CF0F900F900F90DF91CF911F9136
:101BA0000F91FF90EF90DF90CF90BF90AF909F90FC
:101BB0008F907F906F905F904F903F902F900895FF
:101BC00085ED8093BC008091BC0084FDFCCF109219
:101BD000380208954091E401262F30E0240F311D92
:101BE00021323105DCF4209138022430C9F4FC01A3
:101BF00080E090E0861758F43091E4012191DC01F7
:101C0000AE53BE4FA30FB11D2C930196F3CF80911D
:101C1000E401680F6093E40180E0089581E0089595
:101C200082E00895089581E090E030913A02209199
:101C30003902321710F480E090E091958195910976
:101C4000089580913A0290913902891730F48F5F9C
:101C500080933A0280E090E008958FEF9FEF08951F
:101C60008091390290E020913A02821B91090895F7
:101C7000CF92DF92EF92FF920F931F93CF93DF9358
:101C80007C01262F972F8A0180913F02882391F0B3
:101C9000C62FD72F6E01C40ED51ECC15DD0571F0F1
:101CA0006991D701ED91FC910190F081E02DC70180
:101CB0000995F3CF642F822F0E94EA0DC801DF91AE
:101CC000CF911F910F91FF90EF90DF90CF900895EB
:101CD000CF93DF931F92CDB7DEB7698320913F0288
:101CE0002223D1F020913C02203240F021E030E06C
:101CF000FC013383228380E090E015C080913D0297
:101D0000E82FF0E0EE55FE4F998190838F5F80932E
:101D10003D0280933C0205C061E0CE0101960E9425
:101D2000EA0D81E090E00F90DF91CF910895089542
:101D300080E090E00895FC01848DDF01A80FB11DC3
:101D4000A35ABF4F2C91848D90E001968F739927F1
:101D5000848FA689B7892C93A089B1898C918064DE
:101D60008C93938D848D981306C00288F389E02D9F
:101D700080818F7D8083089590E0FC01E858FA4FC0
:101D80003491FC01E657F54F2491FC01EA58F54FD8
:101D9000E491EE2309F43BC0332339F1333091F061
:101DA00038F43130A9F0323001F584B58F7D12C09E
:101DB000373091F03830A1F03430B9F480918000A0
:101DC0008F7D03C0809180008F77809380000DC04D
:101DD00084B58F7784BD09C08091B0008F7703C030
:101DE0008091B0008F7D8093B000F0E0EE0FFF1F78
:101DF000EE59F54FA591B4918FB7F894EC9161111C
:101E000003C020952E2301C02E2B2C938FBF089545
:101E10008F929F92AF92BF92CF92DF92EF92FF92FA
:101E20006B017C010E9491054B015C01C114D1043E
:101E3000E104F104F1F00E949105DC01CB01881965
:101E40009909AA09BB09883E9340A105B10570F321
:101E500021E0C21AD108E108F10888EE880E83E07B
:101E6000981EA11CB11CC114D104E104F10419F79E
:101E7000DDCFFF90EF90DF90CF90BF90AF909F901D
:101E80008F9008951F920F920FB60F9211242F93E7
:101E90003F938F939F93AF93BF9380912E02909126
:101EA0002F02A0913002B091310230912D0223E037
:101EB000230F2D3720F40196A11DB11D05C026E882
:101EC000230F0296A11DB11D20932D0280932E0297
:101ED00090932F02A0933002B0933102809132028E
:101EE00090913302A0913402B09135020196A11D68
:101EF000B11D8093320290933302A0933402B093C9
:101F00003502BF91AF919F918F913F912F910F908B
:101F10000FBE0F901F90189508958EBD00000DB450
:101F200007FEFDCF8EB508958CBD9DBD08951F920F
:101F30000F920FB60F9211242F933F934F935F93FD
:101F40006F937F938F939F93AF93BF93EF93FF9381
:101F50008091B900887F803609F49CC068F588328A
:101F600009F45BC090F4803109F454C038F488233C
:101F700009F4F6C0883009F44DC0F6C0883109F480
:101F80004CC0803209F45DC0EFC0803409F468C0F1
:101F900048F4803309F455C0883309F0E5C08093D4
:101FA0000902D8C0803509F44FC0883509F45DC0F6
:101FB000883409F0D9C0D6C0883909F4C7C0A8F45C
:101FC000883709F467C038F4883609F463C080376D
:101FD00009F460C0C9C0883809F4B8C0803909F470
:101FE0005FC0803809F0C0C05BC0803B09F486C088
:101FF00038F4803A09F466C0883A09F47FC0B4C066
:10200000803C09F4A7C0883C09F4A4C0883B09F4CB
:102010008AC0AAC080912C0210C090912B0280919E
:102020002A02981770F5E0912B0281E08E0F8093C1
:102030002B02F0E0E65FFD4F80818093BB0085ECD2
:1020400086C0809309028EC0E0912B0281E08E0F42
:1020500080932B028091BB00F0E0E65FFD4F808310
:1020600090912B0280912A026EC0E0912B0281E0B8
:102070008E0F80932B028091BB00F0E0E65FFD4F56
:1020800080838091370281116DC081E08093360298
:1020900084EA61C083E08093380210920802CFCFB7
:1020A00080910802803208F051C0E091080281E07E
:1020B0008E0F809308028091BB00F0E0E851FE4F44
:1020C0008083BDCF85EC8093BC0010923802809154
:1020D0000802803230F4E0910802F0E0E851FE4F4F
:1020E00010826091080270E0E091E601F091E70152
:1020F00088EE91E009951092080236C084E0809342
:1021000038021092E5011092E401E091E201F091B1
:10211000E30109958091E401811105C081E080937C
:10212000E4011092C201E091E50181E08E0F8093FD
:10213000E501F0E0EE53FE4F80818093BB0090916B
:10214000E5018091E401981708F479CF85E8809340
:10215000BC000AC085EC8093BC001092380204C019
:10216000109209020E94E00DFF91EF91BF91AF9193
:102170009F918F917F916F915F914F913F912F919F
:102180000F900FBE0F901F9018959B01AC0160E05F
:1021900074E284EF90E00E949919DA01C901409736
:1021A000A109B109B695A795979587958093B80031
:1021B000089520913C0290913E02213208F04AC0DD
:1021C000809138028111FCCF32E03093380231E047
:1021D000309337023FEF3093090210922B02209385
:1021E0002A02A2EAB1E04AE052E0FA013E2F341B93
:1021F000321718F43D913193F9CF10922C022091AF
:102200002C02990F922B90932C02909136029130D0
:1022100061F41092360290912C029093BB00909141
:10222000BC0093FDF8CF95EC01C095EE9093BC00F7
:10223000909138029230E1F3909109029F3F79F03A
:1022400080910902803241F080910902803331F09F
:1022500084E005C081E003C082E001C083E0109209
:102260003D0210923C0210923F0208951F93CF93BB
:10227000DF93FC01858D968D009729F1162FEF01D4
:1022800021A131E030933F0220933E0210923D02A3
:1022900010923C02DC01ED91FC910190F081E02D67
:1022A00060E009958D8D9E8DDC01ED91FC91019092
:1022B000F081E02D612F09958D8D9E8DDF91CF915D
:1022C0001F910C94D910A5A5B6A59C9183A98095C2
:1022D00089238C93838D948D892B31F0862FDF9108
:1022E000CF911F910C948D0F28E030E080E8A1A5DC
:1022F000B2A591A9482F462319F04C91942B03C005
:102300004C91909594239C93A3A5B4A54C9192A92C
:10231000942B9C93A3A5B4A54C9192A9909594233A
:102320009C9386952150310911F7DF91CF911F9130
:1023300008951F93CF93DF93EC01162F8D8D9E8D03
:10234000892B39F06DA97EA98FA998AD0E94C5107F
:102350000FC08B8D9C8D892B21F08EAD9FAD0E947F
:10236000940FEFA5F8A990818CA98095892380838B
:10237000111102C066EA01C067EACE010E9436115F
:102380008D8D9E8D892B49F069AD7AAD8BAD9CAD5D
:10239000DF91CF911F910C94C510EFA5F8A9908102
:1023A0008CA9892B8083DF91CF911F910895CF92C3
:1023B000DF92EF92FF920F931F93CF93DF936C0105
:1023C0007A018B01C0E0D0E0CE15DF0589F0D8019D
:1023D0006D918D01D601ED91FC910190F081E02D80
:1023E000C6010995892B11F47E0102C02196ECCF1C
:1023F000C701DF91CF911F910F91FF90EF90DF9078
:10240000CF900895FC01538D448D252F30E0842F0B
:1024100090E0821B930B541710F0CF96089501970C
:102420000895FC01918D828D981761F0828DDF01F6
:10243000A80FB11D5D968C91928D9F5F9F73928FB7
:1024400090E008958FEF9FEF0895FC01918D828DAC
:10245000981731F0828DE80FF11D858D90E0089579
:102460008FEF9FEF08950E94EE1A80E492E00E94A1
:102470007B0521E0892B09F420E0822F0895EF925B
:10248000FF920F931F93CF93DF93EC0181E0888F2E
:102490009B8D8C8D981305C0E889F989808185FD15
:1024A00024C0F62E0B8D10E00F5F1F4F0F73112706
:1024B000E02E8C8DE8120CC00FB607FCFACFE8892D
:1024C000F989808185FFF5CFCE010E949B0EF1CF67
:1024D0008B8DFE01E80FF11DE35AFF4FF0820B8F49
:1024E000EA89FB898081806207C0EE89FF89608369
:1024F000E889F98980818064808381E090E0DF91C0
:10250000CF911F910F91FF90EF900895CF93DF939C
:10251000EC01888D8823C9F0EA89FB89808185FDDB
:1025200005C0A889B9898C9186FD0FC00FB607FC3C
:10253000F5CF808185FFF2CFA889B9898C9185FF7D
:10254000EDCFCE010E949B0EE7CFDF91CF91089592
:102550001F920F920FB60F9211242F933F934F9318
:102560005F936F937F938F939F93AF93BF93EF93FB
:10257000FF9380E492E00E949B0EFF91EF91BF9148
:10258000AF919F918F917F916F915F914F913F910B
:102590002F910F900FBE0F901F9018951F920F92C2
:1025A0000FB60F9211242F938F939F93EF93FF9366
:1025B000E0915002F09151028081E0915602F09139
:1025C000570282FD12C09081809159028F5F8F73F4
:1025D00020915A02821751F0E0915902F0E0E05C3C
:1025E000FD4F958F8093590201C08081FF91EF913B
:1025F0009F918F912F910F900FBE0F901F90189564
:10260000EF92FF920F931F93CF93DF93C82FF92E72
:10261000D62F8091060390910703009709F45AC0C2
:1026200020910A0331E030933F0220933E02109242
:102630003D0210923C02DC01ED91FC910190F08191
:10264000E02D60E009950C2F1F2DEE24E394F12C72
:10265000CD0FD1E08091060390910703C01791F14F
:10266000B0E2EB16F104D8F00E94D91080910A0371
:10267000D0933F0280933E0210923D0210923C02A2
:102680008091060390910703DC01ED91FC9101908C
:10269000F081E02D60E00995EE24E394F12C809127
:1026A000060390910703F8016491DC01ED91FC9120
:1026B0000190F081E02D0995BFEFEB1AFB0A0F5F47
:1026C0001F4FC8CFDF91CF911F910F91FF90EF90D7
:1026D0000C94D910E0911603F0911703208180919A
:1026E0001C038095822380830C2F1F2DC60FC017DB
:1026F000C1F1F80184912091040330910503232B4B
:1027000019F00E948D0F2AC028E030E040E8E091E7
:102710001203F091130390911A03542F582319F0C8
:102720005081952B03C05081909595239083E09123
:102730001403F0911503508190911B03952B908306
:10274000E0911403F0911503508190911B03909533
:1027500095239083469521503109C9F60F5F1F4F8D
:10276000C6CFDF91CF911F910F91FF90EF90089509
:10277000CF93DF93009779F0FC0101900020E9F7F7
:102780003197AF01481B590BBC0189EE92E00E94C2
:10279000D711EC0102C0C0E0D0E042E050E066E5B5
:1027A00071E089EE92E00E94D7118C0F9D1FDF919E
:1027B000CF9108952091EF023091F002C901079660
:1027C00097FD079623E0959587952A95E1F7209147
:1027D000ED023091EE02829FA001839F500D929FE7
:1027E000500D112460E070E080910803909109037E
:1027F0000C94F31A3F924F925F926F927F928F9256
:102800009F92AF92BF92CF92DF92EF92FF920F937F
:102810001F93CF93DF9300D000D000D0CDB7DEB7A9
:102820002C013B014A015901C901079697FD079602
:102830009C0193E0359527959A95E1F73A83298392
:10284000C12CD12CE12CF12C312CC701860D971D08
:102850009C838B83E016F106CCF51E821D82ED81F0
:10286000FE81EA15FB0554F58D819E8187709927BD
:10287000892B11F0330C0EC0ED81FE81F7FD3796E8
:1028800083E0F595E7958A95E1F7EC0DFD1DE80DE0
:10289000F91D349037FE0CC021E030E04B815C81A3
:1028A0006D817E81640D751D89EE92E00E942E0D72
:1028B0008D819E8101969E838D83D1CFFFEFEF1A8C
:1028C000FF0A29813A81C20ED31EBFCF26960FB6CA
:1028D000F894DEBF0FBECDBFDF91CF911F910F9156
:1028E000FF90EF90DF90CF90BF90AF909F908F9030
:1028F0007F906F905F904F903F90089590E0FC0123
:10290000E657F54F2491FC01EA58F54F849188234E
:1029100099F090E0880F991FFC01E459F54FA591BB
:10292000B491FC01EE59F54F859194918FB7F894CD
:10293000EC91E22BEC938FBF08958EE291E090939F
:10294000EA028093E90280910803909109030097BD
:1029500011F00C94561A0895789484B5826084BD61
:1029600084B5816084BD85B5826085BD85B5816093
:1029700085BD80916E00816080936E001092810011
:1029800080918100826080938100809181008160CC
:10299000809381008091800081608093800080918D
:1029A000B10084608093B1008091B0008160809319
:1029B000B00080917A00846080937A0080917A00E0
:1029C000826080937A0080917A00816080937A009F
:1029D00080917A00806880937A001092C100E09123
:1029E0005002F091510282E08083E0914C02F0911C
:1029F0004D021082E0914E02F0914F028FEC8083E5
:102A000010925802E0915402F091550286E08083C2
:102A1000E0915202F0915302808180618083E091C5
:102A20005202F0915302808188608083E0915202CB
:102A3000F0915302808180688083E0915202F0918E
:102A4000530280818F7D80838091080390910903D8
:102A5000892B09F03FC02091EF023091F002C901AB
:102A6000079697FD0796B3E095958795BA95E1F798
:102A70002091ED023091EE02AC01429FC001439FD4
:102A8000900D529F900D11240E94C119909309033B
:102A900080930803892BF1F4C8E4DAE0FE01649125
:102AA000611109C042E050E066E571E080E492E027
:102AB0000E94D7110EC0E0914002F09141020190B6
:102AC000F081E02D80E492E009952196892B31F781
:102AD000E9CFFFCF0E94DA132091EF023091F0028C
:102AE0008091ED029091EE0221323105A4F0B901FE
:102AF0006054710977FF02C06F5F7F4F75956795CE
:102B00008255910997FD019600E410E022E530E03E
:102B10004EE757E013C0B9016052710977FF02C058
:102B20006F5F7F4F759567958357910997FD019664
:102B300000E210E023E730E04EE955E095958795F7
:102B40000E94FA1382E080930B0380910603909118
:102B50000703892B59F18CE380930A0310923A0200
:102B60001092390210923D0210923C0210923802EB
:102B700081E0809337021092360261E082E10E9488
:102B8000BC0E61E083E10E94BC0E8091B9008E7F93
:102B90008093B9008091B9008D7F8093B90088E45B
:102BA0008093B80085E48093BC00B6C080910F0389
:102BB0000E947E14809110030E947E1480910F0366
:102BC000082E000C990BFC01EA58F54FE491F0E057
:102BD000EE0FFF1FEE59F54F2591349130931703F7
:102BE00020931603FC01E657F54FE491E0931C0394
:102BF00080911003082E000C990BFC01EA58F54F48
:102C0000E491F0E0EE0FFF1FEE59F54FA591B4915E
:102C1000B0931903A0931803FC01E657F54FE49114
:102C2000E0931D038C91E82BEC9380910403909129
:102C30000503892B89F1CFB7F89480913B0281116C
:102C400024C0E0E8FAE08491E4E9FAE09491E82F06
:102C5000F0E0EE0FFF1FE459F54FA591B491EC9110
:102C6000E92321F461E08AE00E94BC0E8AE00E9420
:102C70007E148CB580618CBD8CB580648CBD8DE07C
:102C80000E947E148BE00E947E1480913B028F5F35
:102C900080933B02CFBF40C080910D030E947E1401
:102CA00080910E030E947E1480910D03082E000C6B
:102CB000990BFC01EA58F54FE491F0E0EE0FFF1F8D
:102CC000EE59F54F2591349130931303209312035D
:102CD000FC01E657F54FE491E0931A0380910E034F
:102CE000082E000C990BFC01EA58F54FE491F0E036
:102CF000EE0FFF1FEE59F54FA591B491B093150358
:102D0000A0931403FC01E657F54FE491E0931B03F5
:102D10008C91E095E823EC938091110387FD1DC011
:102D20000E947E1461E0809111030E94BC0E61E05C
:102D300070E080E090E00E94080F60E08091110355
:102D40000E94BC0E6AE070E080E090E00E94080FF4
:102D500061E0809111030E94BC0E80910603909166
:102D60000703892B59F060911E0370911F03809116
:102D70002003909121030E94C51016C08091040386
:102D800090910503892B31F08091270390912803BE
:102D90000E94940FE0911803F091190390818091A3
:102DA0001D0380958923808364E08AE995E00E9471
:102DB00000136091EF02615089EE92E00E9436119B
:102DC00064E086E995E00E94001380910B03813056
:102DD00011F064E101C060E189EE92E00E943611D9
:102DE00064E082E995E00E9400138FE88093260357
:102DF0008091ED029091EE028038910591F48091DE
:102E0000EF029091F00280349105E9F480910B0378
:102E1000813011F08FEC01C08FE980932603C2E16D
:102E200013C08036910579F48091EF029091F00201
:102E3000409749F480910B03813011F08FEA01C073
:102E400080E180932603C2E06AED89EE92E00E9461
:102E500036116C2F89EE92E00E94361161E889EEFE
:102E600092E00E9436116091260389EE92E00E9462
:102E7000361169ED89EE92E00E94361180910B03C4
:102E8000813011F061EF01C062E289EE92E00E94B0
:102E9000361166E08CE895E00E94001380910603ED
:102EA00090910703892B59F06091220370912303BD
:102EB00080912403909125030E94C51011C0E091D8
:102EC0001803F0911903908180911D03892B808351
:102ED0008091040390910503892B11F00E948C0FBF
:102EE0000E94DA131092F6021092F5021092F80284
:102EF0001092F70281E08093FD028093FE0281E050
:102F000090E09093FC028093FB029093FA028093EE
:102F1000F90289E591E00E94B8138DE691E00E94E4
:102F2000B81362E089EE92E00E94600A83E891E0C3
:102F30000E94B81363E089EE92E00E94600A83E980
:102F400091E00E94B8138091060390910703892BAA
:102F500059F060911E0370911F038091200390919E
:102F600021030E94C51016C08091040390910503AF
:102F7000892B31F080912703909128030E94940FB0
:102F8000E0911803F0911903908180911D038095C1
:102F90008923808365E08EE39AE00E9400136091AC
:102FA000ED02615089EE92E00E9436112091EF020D
:102FB0003091F002C901079697FD079623E0959599
:102FC00087952A95E1F72091ED023091EE02829FDC
:102FD0008001839F100D929F100D1124C091080352
:102FE000D091090380910603909107030C0F1D1FD8
:102FF000009709F451C020910A0331E030933F0259
:1030000020933E0210923D0210923C02DC01ED91B1
:10301000FC910190F081E02D60E40995EE24E394A9
:10302000F12CDD24D3948091060390910703C017FF
:10303000D10779F1B0E2EB16F104D8F00E94D91073
:1030400080910A03D0923F0280933E0210923D028B
:1030500010923C028091060390910703DC01ED91F0
:10306000FC910190F081E02D60E40995EE24E39459
:10307000F12C80910603909107036991DC01ED9199
:10308000FC910190F081E02D0995BFEFEB1AFB0A4E
:10309000CACF0E94D91041C0E0911603F0911703E6
:1030A000908180911C03892B8083C017D107A9F1DF
:1030B00089912091040330910503232B19F00E947C
:1030C0008D0FF3CF28E030E040E8E0911203F0915B
:1030D000130390911A03542F582319F05081952B04
:1030E00003C05081909595239083E0911403F09153
:1030F0001503508190911B03952B9083E09114034D
:10310000F0911503508190911B0390959523908326
:10311000469521503109C9F6C8CF80910603909198
:103120000703892B59F0609122037091230380914A
:103130002403909125030E94C51011C0E09118034B
:10314000F0911903908180911D03892B80838091D8
:10315000040390910503892B11F00E948C0F80913C
:10316000060390910703892B59F060911E0370911B
:103170001F0380912003909121030E94C51016C067
:103180008091040390910503892B31F080912703EE
:10319000909128030E94940FE0911803F091190375
:1031A000908180911D0380958923808362E086E46D
:1031B0009AE00E94001360E089EE92E00E943611CE
:1031C00060E089EE92E00E94361160E089EE92E0C4
:1031D0000E94361163E083E49AE00E94001380911C
:1031E000060390910703892B59F060912203709197
:1031F000230380912403909125030E94C51011C0E0
:10320000E0911803F0911903908180911D03892B9F
:1032100080838091040390910503892B11F00E9413
:103220008C0F0E948705FDCFE0E4F2E0138212824A
:1032300048EE53E060E070E0448355836683778313
:103240008AE091E09183808385EC90E09587848784
:1032500084EC90E09787868780EC90E0918B808B60
:1032600081EC90E0938B828B82EC90E0958B848B49
:1032700086EC90E0978B868B118E128E138E148EB7
:10328000ADEDB2E013961C921E92129714964D93D8
:103290005D936D937C9317978CE191E011969C93CD
:1032A0008E93E9EEF2E01382128220E830E035835B
:1032B000248380E290E097838683318720879387F9
:1032C0008287168A158614861786168681E0858B76
:1032D000848B2FEF3FEF338B228B318B208B878BAF
:1032E000108E128E118E8EE291E091838083148E67
:1032F000138EB68FA58F10A2178E8FEF84A385A390
:1033000086A387A380A780E89AE1A6E0B0E085AB1A
:1033100096ABA7ABB0AF80EA96E8A1E0B0E081AF92
:1033200092AFA3AFB4AF80E5809327031092280338
:103330000895A1E21A2EAA1BBB1BFD010DC0AA1FF6
:10334000BB1FEE1FFF1FA217B307E407F50720F00E
:10335000A21BB30BE40BF50B661F771F881F991F89
:103360001A9469F760957095809590959B01AC01D2
:10337000BD01CF010895EE0FFF1F0590F491E02DE0
:103380000994CF93DF938230910510F482E090E0AE
:10339000E0912B03F0912C0320E030E0C0E0D0E07E
:1033A000309711F14081518148175907C0F04817F3
:1033B000590761F482819381209719F09B838A8356
:1033C0002BC090932C0380932B0326C0211531052D
:1033D00019F04217530718F49A01BE01DF01EF01FB
:1033E0000280F381E02DDCCF2115310509F1281B86
:1033F000390B2430310590F412968D919C911397DE
:103400006115710521F0FB019383828304C09093C1
:103410002C0380932B03FD01329644C0FD01E20F83
:10342000F31F81939193225031092D933C933AC01D
:103430002091290330912A03232B41F4209102018A
:103440003091030130932A03209329032091000136
:10345000309101012115310541F42DB73EB740915E
:10346000040150910501241B350BE0912903F091D3
:103470002A03E217F307A0F42E1B3F0B2817390786
:1034800078F0AC014E5F5F4F2417350748F04E0FC0
:103490005F1F50932A03409329038193919302C0A5
:1034A000E0E0F0E0CF01DF91CF9108950F931F93FB
:1034B000CF93DF93009709F48CC0FC0132971382FD
:1034C000128200912B0310912C030115110581F438
:1034D00020813181820F931F2091290330912A038B
:1034E0002817390779F5F0932A03E093290371C06F
:1034F000D80140E050E0AE17BF0750F412962D916E
:103500003C911397AD012115310509F1D901F3CF94
:103510009D01DA013383228360817181860F971FB9
:103520008217930769F4EC0128813981260F371F30
:103530002E5F3F4F318320838A819B8193838283D7
:10354000452B29F4F0932C03E0932B0342C01396F0
:10355000FC93EE931297ED01499159919E01240F2E
:10356000351FE217F30771F480819181840F951F55
:10357000029611969C938E938281938113969C93CD
:103580008E931297E0E0F0E0D80112968D919C9115
:103590001397009719F0F8018C01F6CF8D919C914B
:1035A00098012E5F3F4F820F931F20912903309186
:1035B0002A032817390769F4309729F410922C034D
:1035C00010922B0302C01382128210932A030093DD
:1035D0002903DF91CF911F910F91089581E090E031
:1035E000F8940C94FA1ADC0101C06D9341505040DC
:1035F000E0F7089515E0C0E5D5E004C0FE010E94A3
:0E360000BB192196C135D107C9F7F894FFCF49
:10360E0000002D038000000000003F12D7110212AF
:10361E0086127B051112251200000000680E380E6E
:10362E00980E120E300E210E130E00000000600ACE
:10363E00D711980E970E6007350D2E0D060D220D23
:10364E00160D360D050D1E089911D10615072C0CF9
:10365E000E0C970B380B0D0A00205761726E61200D
:10366E0050617261626F6C20504E524700204F6C59
:10367E00656420302E393620696E636820693263A6
:10368E002E2000203132387836342070696B736505
:10369E006C20002020342057697265203A2D292095
:0236AE002000FA
:00000001FF
