:100000000C944F070C9477070C9477070C947707A0
:100010000C9477070C9477070C9477070C94770768
:100020000C9477070C9477070C9477070C94770758
:100030000C9477070C9477070C9477070C94770748
:100040000C9440110C9477070C94CC140C94A614C7
:100050000C9477070C9477070C9477070C94770728
:100060000C9495110C94770700000000003E5B4F44
:100070005B3E3E6B4F6B3E1C3E7C3E1C183C7E3C08
:10008000181C577D571C1C5E7F5E1C00183C180016
:10009000FFE7C3E7FF0018241800FFE7DBE7FF30A6
:1000A000483A060E2629792926407F050507407F14
:1000B00005253F5A3CE73C5A7F3E1C1C08081C1C87
:1000C0003E7F14227F22145F5F005F5F06097F017D
:1000D0007F006689956A606060606094A2FFA29468
:1000E00008047E040810207E201008082A1C080836
:1000F0001C2A08081E101010100C1E0C1E0C303884
:100100003E3830060E3E0E06000000000000005F84
:1001100000000007000700147F147F14242A7F2AA0
:100120001223130864623649562050000807030062
:10013000001C2241000041221C002A1C7F1C2A08AE
:10014000083E080800807030000808080808000011
:1001500060600020100804023E5149453E00427F85
:10016000400072494949462141494D331814127FD4
:100170001027454545393C4A494931412111090774
:100180003649494936464949291E000014000000F5
:1001900040340000000814224114141414140041C7
:1001A00022140802015909063E415D594E7C121184
:1001B000127C7F494949363E414141227F414141BC
:1001C0003E7F494949417F090909013E4141517337
:1001D0007F0808087F00417F41002040413F017FA8
:1001E000081422417F404040407F021C027F7F0470
:1001F00008107F3E4141413E7F090909063E4151B9
:10020000215E7F09192946264949493203017F01A8
:10021000033F4040403F1F2040201F3F4038403FA9
:10022000631408146303047804036159494D4300BF
:100230007F4141410204081020004141417F0402F6
:10024000010204404040404000030708002054548D
:1002500078407F284444383844444428384444286B
:100260007F385454541800087E090218A4A49C78BE
:100270007F0804047800447D40002040403D007F1A
:100280001028440000417F40007C047804787C08FA
:100290000404783844444438FC18242418182424CE
:1002A00018FC7C08040408485454542404043F44B3
:1002B000243C4040207C1C2040201C3C4030403CE2
:1002C00044281028444C9090907C4464544C440042
:1002D00008364100000077000000413608000201A6
:1002E0000204023C2623263C1EA1A161123A404092
:1002F000207A38545455592155557941225454780F
:1003000042215554784020545579400C1E527212A7
:100310003955555559395454545939555454580030
:1003200000457C410002457D420001457C407D1234
:1003300011127DF0282528F07C5455450020545496
:100340007C547C0A097F4932494949323A44444441
:100350003A324A4848303A4141217A3A424020787C
:10036000009DA0A07D3D4242423D3D4040403D3C7D
:1003700024FF2424487E4943662B2FFC2F2BFF09A2
:1003800029F620C0887E0903205454794100004496
:100390007D413048484A32384040227A007A0A0A81
:1003A000727D0D19317D2629292F282629292926F4
:1003B00030484D4020380808080808080808382F39
:1003C00010C8ACBA2F102834FA00007B00000814C3
:1003D0002A142222142A14085500550055AA55AA99
:1003E00055AAFF55FF55FF000000FF00101010FF39
:1003F00000141414FF001010FF00FF1010F010F094
:10040000141414FC001414F700FF0000FF00FF1484
:1004100014F404FC141417101F10101F101F1414D0
:10042000141F00101010F0000000001F101010101A
:100430001F10101010F010000000FF10101010100E
:1004400010101010FF10000000FF140000FF00FF4C
:1004500000001F10170000FC04F4141417101714E8
:1004600014F404F40000FF00F7141414141414140A
:10047000F700F7141414171410101F101F1414147D
:10048000F4141010F010F000001F101F0000001FE7
:1004900014000000FC140000F010F01010FF10FF1A
:1004A000141414FF141010101F00000000F010FFAF
:1004B000FFFFFFFFF0F0F0F0F0FFFFFF0000000093
:1004C00000FFFF0F0F0F0F0F3844443844FC4A4A17
:1004D0004A347E02020606027E027E0263554941CC
:1004E000633844443C04407E201E2006027E020203
:1004F00099A5E7A5991C2A492A1C4C7201724C3017
:100500004A4D4D303048784830BC625A463D3E49ED
:100510004949007E0101017E2A2A2A2A2A44445F91
:10052000444440514A444040444A51400000FF0185
:1005300003E080FF000008086B6B08361236243693
:10054000060F090F060000181800000010100030F8
:1005500040FF0101001F01011E00191D1712003C80
:100560003C3C3C0000000000000103070F1F3F7FE0
:100570000080C0E0F0F8FCFE00000008000201006E
:10058000000304070000000000000000DB40A4A6F8
:100590002EAF2000A1C8D300408DAED580A80000AA
:1005A000600000000000000000000000000000E00B
:1005B0000000000000000000000000000001E0005A
:1005C00000000000000000000000000001F000003A
:1005D000000000000000000000000003F000000028
:1005E0000000000000000000000007F00000000014
:1005F00000000000000000000007F80000000000FC
:1006000000000000000000000FF800000003C00020
:100610007E000001E0007F0FF800000003C000FE34
:10062000000001E000FFEFF800000003C000FE0042
:100630000001E000FFFFF800000003C000F0000030
:10064000000F007FFE7FC0000003C000F00000002C
:100650000F003FFE7FF83FF1FBCFFCFEF3BC3DEF08
:10066000E01FFE7FFF7FFBFFDFFEFEFFBC3DEFE0F4
:100670001FC6FFFF7FFBFFDFFEFEFFBC3DEFE00F6D
:10068000E3C7FE787BC3DE1EF0FFBC3DEF0007FF33
:1006900087FC787BC3DE1EF0F83C3DEF0001FFFFD6
:1006A000F0007BC3C01EF0F03C3DEF0001F37FE0A3
:1006B0003FFBC3CFFEF0F03C3DEF0003E33F807F04
:1006C000FBC3DFFEF0F03C3DEF0007E73C00787B2A
:1006D000C3DE1EF0F03C3DEF0007FFBE00787BC399
:1006E000DE1EF0F03C3DEF0007FFFE00787BC3DE2E
:1006F0001EF0F03C3DEF000FFFFE007FFBFFDFFE32
:10070000F0F03FFDEFE00FFFFF007FFBFFDFFEF0AB
:10071000F03FFDEFE00FF9FF003E79F9CF9EF0F0DA
:100720001F3DE7E01FF1FF00000000000000000097
:100730000000001F80FF007FFFFFFFFFFFFFFFFFA4
:10074000FFE01C007F007FFFFFFFFEB46D888D1867
:10075000E000001F007FFFFFFFFE95AD7DB577E055
:1007600000000F007FFFFFFFFEA5AD9D8D19E0008B
:100770000006007FFFFFFFFEB5ADEDB57EE0000097
:100780000000000180000000000000000000038065
:1007900000000000000000000007C0000000000092
:1007A0000000000007C00000000000000000000F73
:1007B000C00000000000000000001FE0000000007A
:1007C00000000000001FE00000000000000000002A
:1007D0003FE00000000000000000003FF0000000CB
:1007E0000000000000007FF0000000000000001F7B
:1007F000F87FF0000000000000003FFE7FF00000E6
:1008000000000000003FFF7FF0000000000000003B
:100810001FFFFBE0000000000000000FFFF9FFC019
:100820000000000000000FFFF9FFF80000000000CA
:100830000007FFF1FFFF00000000000003FC73FF52
:10084000FF80000000000001FE3FFFFF800000006D
:10085000000000FF1E0FFF000000000000007FFEF0
:100860001FFC000000000000003FFFFFF800000038
:10087000000000000FDFFFE0000000000000001F8C
:1008800019FFC0000000000000003F3CFF00000016
:1008900000000000007E7CF8000000000000000066
:1008A0007FFE7C0000000000000000FFFFFC000055
:1008B000000000000000FFFFFE000000000000003C
:1008C00000FFFFFE0000000000000001FFEFFE003F
:1008D00000000000000001FFCFFE0000000000004B
:1008E0000003FF07FE0000000000000003FC07FEFD
:1008F0000000000000000003F003FE000000000004
:100900000000018000FE0000000000000000000068
:100910007E000000000000000000003E000000001B
:100920000000000000000C00000000000007800034
:10093000FC000003C0000000078001FC000003C0B1
:10094000000000078001FC000003C00000000780D9
:1009500001E00000001E000000078001E000000030
:100960001E007FE3F79FF9FDE7787BDFC0FFF7FF0D
:10097000BFFDFDFF787BDFC0FFF7FFBFFDFDFF7808
:100980007BDFC0F0F787BC3DE1FF787BDE00F0F74E
:1009900087BC3DE1F0787BDE0000F787803DE1E039
:1009A000787BDE007FF7879FFDE1E0787BDE00FF4C
:1009B000F787BFFDE1E0787BDE00F0F787BC3DE123
:1009C000E0787BDE00F0F787BC3DE1E0787BDE007D
:1009D000F0F787BC3DE1E0787BDE00FFF7FFBFFD6D
:1009E000E1E07FFBDFC0FFF7FFBFFDE1E07FFBDF62
:1009F000C07CF3F39F3DE1E03E7BCFC000000000F0
:100A000000000000000000FFFFFFFFFFFFFFFFFFEF
:100A1000FFC0FFFFFFFFFD68DB111A31C0FFFFFFC2
:100A2000FFFD2B5AFB6AEFC0FFFFFFFFFD4B5B3B57
:100A30001A33C0FFFFFFFFFD6B5BDB6AFDC02200C6
:100A4000FF21000000000000000000000000000086
:100A50000000000000000000000000000000000096
:100A60000000000000000000000000000000000086
:100A70000000000000000000000000000000000076
:100A80000000000000000000000000000000000066
:100A90000000000000000000000000000000000056
:100AA00000000000000000000000001180000000B5
:100AB0000000000000000000000000308000000086
:100AC00000000000000000000000000F0000000017
:100AD00000000000000000000000000600000C40C4
:100AE0000000000000000000000000060000186088
:100AF0000000000000000000000000060003E78086
:100B000000000000000000000000000600060000D9
:100B100000000000000003FFFFFC0006000C0003C3
:100B20006000000000007FFFFE0007FFFF9C000642
:100B3000100000000007FFFFC001FE0001FE0007DB
:100B400030000000001FFFFC000F80000007C01CE9
:100B50000000000000FFFFF0007800000000F870C7
:100B60000000000003FFFF8003E0000000001FC042
:100B7000000000000FFFFE000F000000000003C097
:100B8000000000003FFFFC003C000000000000F0FF
:100B9000000000007FFFF0007800000000000078F7
:100BA00000000000FFFFE001E00000000000001C6A
:100BB00000000001FFFFC003C00000000000000FA4
:100BC00000011803FFFF80078000000000000007FD
:100BD000FF830807FFFF000F000000000000000374
:100BE000C07CF00FFFFE000E03E0000202000001D7
:100BF000C000000FFFFE001E03E03E07E3FFFE0102
:100C0000E000000FFFFC001C01F07F07C3E03F0085
:100C1000E000001FFFFC003C01F87F0FC3E00F80E5
:100C2000E000001FFFFC103800F8FF8F83E00F800A
:100C3000F003801FFFFC183800FCF79F83F03F0093
:100C4000700C601FFFFC3C38007DE3DF03FFFC00FD
:100C5000700C601FFFFC6438007FE3FF03F00000AE
:100C60007003801FFFFC003C003FC1FE03E000005A
:100C7000E000000FFFFC001C003FC1FE03E000008D
:100C8000E000000FFFFE001C001F80FC03E00001DD
:100C9000E000000FFFFE000E0000008002000001D7
:100CA000C0000007FFFF000F00000000000000036D
:100CB000C07CF003FFFF80078000000000000007F9
:100CC000FF830801FFFFC003C00000000000000F09
:100CD00000011800FFFFE001E00000000000001C20
:100CE000000000007FFFF0007800000000000078A6
:100CF000000000003FFFFC003C000000000000F08E
:100D0000000000000FFFFE000F000000000003C005
:100D10000000000003FFFF8003E0000000001FC090
:100D20000000000000FFFFE0007800000000787085
:100D300000000000003FFFFC001F80000007C01CF7
:100D4000000000000007FFFFC001FE0001FE0007D9
:100D50002000000000007FFFFC000FFFFF9C00064A
:100D600010000000000003FFFFFC0006000C000361
:100D70006000000000000000000000060006000007
:100D80000000000000000000000000060003E780F3
:100D900000000000000000000000000600001840F5
:100DA00000000000000000000000000600000840F5
:100DB00000000000000000000000000F0000010023
:100DC0000000000000000000000000308000000073
:100DD0000000000000000000000000118000000082
:100DE0000000000000000000000000000000000003
:100DF00000000000000000000000000000000000F3
:100E000000000000000000000000000000000000E2
:100E100000000000000000000000000000000000D2
:100E200000000000000000000000000000000000C2
:100E300000000000000000000000000000000000B2
:100E40000000004164647265732069326320616E42
:100E500064612053616C6168202121210000000041
:100E600000250028002B0000000000240027002A95
:100E70000004040404040404040202020202020343
:100E8000030303030301020408102040800102044D
:100E9000081020010204081020008F1A9216112455
:100EA0001FBECFEFD8E0DEBFCDBF11E0A0E0B1E0C4
:100EB000E4E0F9E302C005900D92AA35B107D9F735
:100EC00022E0AAE5B1E001C01D92A53EB207E1F71C
:100ED00017E0CEE4D7E004C02197FE010E94361B44
:100EE000CD34D107C9F70E94A1160C94751C0C943F
:100EF0000000FC01918D228D892F90E0805C9F4F36
:100F0000821B91098F739927089580E090E0892BC7
:100F100029F00E94331481110C94000008953FB70A
:100F2000F8948091EA019091EB01A091EC01B091CD
:100F3000ED0126B5A89B05C02F3F19F00196A11D14
:100F4000B11D3FBFBA2FA92F982F8827820F911D5F
:100F5000A11DB11DBC01CD0142E0660F771F881FA6
:100F6000991F4A95D1F708950F931F93CF93DF935D
:100F700077FF04C0260F371F60E070E0DC01149695
:100F8000CD91DC911597FB01E20FF31FCE17DF0720
:100F90001CF49E01261B370B121613060CF046C0DC
:100FA000FA0157FD3796DF01E3E0B595A795EA957D
:100FB000E1F7AC9FF001AD9FF00DBC9FF00D112447
:100FC0006E0F7F1FDC015F96ED91FC919097E60F0D
:100FD000F71F4770552781E090E001C0880F4A95C0
:100FE000EAF7482F0130110539F078F00230110589
:100FF000E9F42E0F3F1F13C02E0F3F1FE217F30718
:10100000A9F08081842B8193F9CF80952E0F3F1F0B
:10101000E217F30759F0908198239193F9CFE217E3
:10102000F30721F0808184278193F9CFDF91CF915D
:101030001F910F910895EF92FF920F931F93CF93FB
:10104000DF93EC0177FDA4C0EC80FD806E157F0579
:101050000CF09EC057FF04C0240F351F40E050E045
:101060008E819F81FA01E20FF31F8E179F071CF4F8
:101070009C01241B350B121613060CF089C0922F0D
:10108000842F8695869586958E9DD0018F9DB00D77
:1010900011246A0F7B1FAF8DB8A1A60FB71F477031
:1010A000A9F188E0841B482F682F70E0FB01E0590C
:1010B000FA4FE491281790F4621B71092FEF30E08A
:1010C00002C0359527956A95E2F7E22301301105B4
:1010D00041F070F00230110579F05AC0013011056D
:1010E00019F48C91E82B0AC00130110508F049C0B1
:1010F000E0958C91E82302C08C91E827EC932C8139
:101100003D81941708F444C0A20FB31FE92FE41BDC
:10111000E830F8F00230110561F48E2F9C91909523
:101120009C932C813D81A20FB31F88508830B0F76B
:101130000FC081E00115110509F480E081959E2F13
:101140008C932C813D81A20FB31F98509830C0F72B
:10115000E770EE23E9F0F0E0E859FA4FE49101304E
:10116000110539F048F00230110591F48C91E8270F
:1011700006C08C91E82B03C0E0958C91E823EC939A
:1011800007C00230110509F4B7CFAE0DBF1DBECFA9
:10119000DF91CF911F910F91FF90EF9008950F93E2
:1011A0001F93CF93DF93DC015696EC915697E23074
:1011B00071F0E330E9F0E13079F5FB0114960D9020
:1011C000BC91A02DA41BB50BA21BB30B18C0EC0146
:1011D000EC81FD81E61BF70BBF0161507109EE81C7
:1011E000FF81DF01A41BB50BAD01421B530B14C0E3
:1011F000DA01EC01EE81FF81E61BF70B3197F7FD79
:101200000DC0EC014E815F81E417F5073CF4AF019E
:10121000BD010E94B40702C00E941B08DF91CF915C
:101220001F910F9108950F931F93DC015696EC9137
:101230005697E23061F0E33009F1E13081F5149620
:10124000ED91FC911597E41BF50B319723C0DC0160
:101250001496ED91FC911597DF01A61BB70BBD010C
:10126000DC011696ED91FC911797DF01A41BB50BDD
:10127000AD0141505109621B730B11C0FA01DC0131
:1012800016964D915C911797DA01A61BB70BBD011D
:10129000621B730BAB01BF010E941B080CC057FD02
:1012A0000AC0DC011696ED91FC9117974E175F0767
:1012B00014F40E94B4071F910F910895FC0177FD6B
:1012C000B9C080859185681779070CF0B3C057FDC8
:1012D000B1C082859385481759070CF00895868917
:1012E000823079F484819581DC01A61BB70BBD01A6
:1012F0006150710986819781DC01A41BB50BAD019A
:101300000EC0833009F084C064277527CB01842781
:1013100095276827792746815781481B590B4150EB
:1013200051092130310531F048F12230310509F4FD
:101330004AC00895CA0157FD07969C01A3E0359560
:101340002795AA95E1F7A481B5812A9FC0012B9F1B
:10135000900D3A9F900D1124680F791F078CF0A112
:10136000E02DE60FF71F4770552781E090E001C0A0
:10137000880F4A95EAF79081892B48C0CA0157FD2A
:1013800007969C0193E0359527959A95E1F7A481FE
:10139000B5812A9FC0012B9F900D3A9F900D11247B
:1013A000680F791F078CF0A1E02DE60FF71F47703B
:1013B000552781E090E001C0880F4A95EAF78095B3
:1013C0009081892323C0CA0157FD07969C0183E0C1
:1013D000359527958A95E1F7A481B5812A9FC001AB
:1013E0002B9F900D3A9F900D1124680F791F078C49
:1013F000F0A1E02DE60FF71F4770552781E090E040
:1014000001C0880F4A95EAF7908189278083089563
:10141000813009F086CF6427752746275727642730
:10142000752784819581DC01A61BB70BBD01615036
:10143000710977CF08950895FC016370668B8481EC
:10144000958126813781613039F0633029F09187A9
:101450008087338722870895318720879387828703
:1014600008952F923F924F925F926F927F928F9248
:101470009F92AF92BF92CF92DF92EF92FF920F9323
:101480001F93CF93DF93CDB7DEB76C970FB6F89469
:10149000DEBF0FBECDBF9C8F8B8F1B014A0119870A
:1014A00008873701A982DC0159964D915C915A97C2
:1014B0004115510509F0FFC018968D919C9119971F
:1014C000681779070CF0E1C11A968D919C911B97D2
:1014D000881699060CF0D9C1EC2DF0E0FB83EA8365
:1014E000AB0166E0C69E400D511D11245D874C87FF
:1014F000141615060CF0C9C18A2D90E09B878A87C7
:1015000033E0880F991F3A95E1F79F878E87880D02
:10151000991D181619060CF0B8C158968C918111B6
:1015200003C0203B08F02F5FAB8DBC8DED91FC918B
:1015300011970284F385E02DCD012A8F09952A8D1C
:10154000B5E02B9F90011124EC2DF0E0F98BE88B96
:10155000A1014B5F5F4F5B8B4A8B3D822C82210147
:10156000B901621973097D8B6C8B9981892F90E089
:101570009F8B8E8BD4011896B98FA88FEC89FD892B
:10158000E40DF51DE859FF4FD49054019F828E82DF
:10159000D0FE16C0AB8DBC8DED91FC91B1E0CB12AD
:1015A00009C02981213031F40484F585E02D288596
:1015B000398519C00684F785E02DE884F9841DC0BB
:1015C000488559856416750619F1AB8DBC8DED9172
:1015D000FC91B1E0CB120DC02981213051F404847B
:1015E000F585E02D9301A501B2018B8D9C8D0995A8
:1015F0000FC00684F785E02D73010A851B852A81BB
:101600003B814E815F816C817D818B8D9C8D0995A5
:10161000D6943FEFA31AB30A4E815F816E897F890A
:10162000460F571F5F834E83888D998DA816B90684
:1016300009F0AECF9FEF491A590AAC81BD81E88904
:10164000F989AE0FBF1FBD83AC832A893B8942163F
:10165000530609F093CF488559856416750609F439
:10166000F2C0AB8DBC8DED91FC91B1E0CB1211C0FD
:101670002981213071F4B1016B5F7F4F0088F189BE
:10168000E02D830128E030E0A4018B8D9C8D09952D
:10169000DAC06C857D854A815B81641B750B06848D
:1016A000F785E02D73010E851F859A01A4018B8DAE
:1016B0009C8D0995C8C0FA01349694913297659132
:1016C0007491291BCB01B7E02B9F800D911D112434
:1016D000FA01259134913B8B2A8BFC01A590B490A3
:1016E000FC0132965490319634913C873296149195
:1016F0003196749041E04C1518F05981523068F0E1
:10170000612F012E000C770B7B836A83872D072CBA
:10171000000C990B9D838C8304C01D821C821B824C
:101720001A82AB8DBC8DED91FC9111970284F385EB
:10173000E02DCD010995412CD12C612CF981EF2FA1
:10174000F0E0FF83EE832C2D30E03B872A87A40155
:10175000470D511D77FC5A955F8B4E8BB101610F80
:10176000711D17FD7A95798F688F5C85651608F075
:101770006AC0262D30E04C815D81420F531F6E817F
:101780007F81469FC001479F900D569F900D112469
:10179000DC01A80DB91DB98BA88B842D712CEE89A5
:1017A000FF89E20FF31FFD8BEC8B751408F048C026
:1017B00071E0780F7E87877041F4C5010196EA8950
:1017C000FB89EA0DFB1DD4905C01D7FE35C0AB8DC3
:1017D000BC8DED91FC91B1E0CB1212C0298121307A
:1017E00079F40484F585E02D288539854C895D8957
:1017F000688D798D670D711D8B8D9C8D09951CC031
:101800008A819B81870D911D4A855B85849FB001EC
:10181000859F700D949F700D1124620D731D0684B9
:10182000F785E02DE884F9840E811F819A014889AB
:1018300059898B8D9C8D0995DD0C73948E85B5CF60
:10184000450C639492CFAB8DBC8DED91FC911197BB
:101850000688F789E02DCD016C960FB6F894DEBFAF
:101860000FBECDBFDF91CF911F910F91FF90EF90F1
:10187000DF90CF90BF90AF909F908F907F906F90B0
:101880005F904F903F902F9009946C960FB6F8940C
:10189000DEBF0FBECDBFDF91CF911F910F91FF90A3
:1018A000EF90DF90CF90BF90AF909F908F907F9000
:1018B0006F905F904F903F902F9008958F929F92DE
:1018C000AF92CF92EF92FF920F931F93CF93DF933C
:1018D000EC01262F898D9A8D009709F042C06A305D
:1018E00059F41D861C862D898E859F8538E0239F9F
:1018F000800D911D112443C06D3009F4AAC08F8959
:101900008823C9F03C898C859D8546E0349F800DF5
:10191000911D1124488559854817590764F41D867F
:101920001C863D898E859F8548E0349F800D911DE2
:1019300011249F878E87EA88FB88088919894E853C
:101940005F856C857D85AD88CC88CE010E94310A8B
:101950002C898C859D8536E0239F800D911D112457
:101960003EC06A3079F41D861C862D89FC013896AC
:10197000E4918E859F852E9F800D911D11249F8758
:101980008E8767C06D3009F464C0FC0134963491D1
:10199000631708F45EC03296E491E61708F459C064
:1019A000462F431B342FFC0132968590949047E0DC
:1019B000349F800C911C1124F4013296349131969D
:1019C000E491332311F0E1110DC0F4013496E49158
:1019D0002C898C859D85E29F800D911D11249D870A
:1019E0008C8737C0F401359644915F89552319F1EE
:1019F0005C89E32FF0E0E40FF11D47FDFA955E9F4F
:101A0000B0015F9F700D11244C855D85460F571FF7
:101A1000688579856417750774F41D861C863D8971
:101A2000FC013896E4918E859F853E9F800D911D27
:101A300011249F878E87EA88FB88088919894E853B
:101A40005F856C857D85AD88CC88CE010E94310A8A
:101A5000BCCF81E090E0DF91CF911F910F91FF907B
:101A6000EF90CF90AF909F908F9008956F927F925C
:101A70008F929F92AF92BF92CF92DF92EF92FF929E
:101A80000F931F93CF93DF93EC014B015A01690130
:101A90003801E881F9810284F385E02D0995E88118
:101AA000F9810288F389E02D87019601A501B4012F
:101AB000CE010995E881F981A501460D571D4150D8
:101AC00051090288F389E02D9601B401CE010995F0
:101AD000E881F9810088F189E02D9301A501B40125
:101AE000CE010995E881F981C80CD91CB601615075
:101AF00071090088F189E02D9301A501CE010995B6
:101B0000E881F9810688F789E02DCE01DF91CF9138
:101B10001F910F91FF90EF90DF90CF90BF90AF900B
:101B20009F908F907F906F900994CF92DF92EF9269
:101B3000FF920F931F93CF93DF9300D000D000D07C
:101B4000CDB7DEB76C01DC01ED91FC916217730734
:101B500089F4041715072CF4942F852FA801092F59
:101B6000182F041B150B98012F5F3F4F048CF58D28
:101B7000E02D12C04017510709F5261737072CF43E
:101B8000962F872FB901292F382F261B370B2F5F50
:101B90003F4F068CF78DE02D8701C60109952696EB
:101BA0000FB6F894DEBF0FBECDBFDF91CF911F916E
:101BB0000F91FF90EF90DF90CF9008950284F3850E
:101BC000E02D2D833E834B835C8369837A83099563
:101BD000D601ED91FC910488F589E02D2D813E819F
:101BE0004B815C8169817A81C6010995D601ED91AD
:101BF000FC910688F789E02DC60126960FB6F89469
:101C0000DEBF0FBECDBFDF91CF911F910F91FF902F
:101C1000EF90DF90CF900994EF92FF920F931F9374
:101C2000DC01ED91FC9111971A960D911C911B9777
:101C300018962D913C91199700A0F1A1E02D7B0100
:101C400040E050E060E070E009951F910F91FF9037
:101C5000EF9008954F925F926F927F928F929F9232
:101C6000AF92BF92CF92DF92EF92FF920F931F93AA
:101C7000CF93DF9300D0CDB7DEB76C015A013901A5
:101C80004801DC01ED91FC910284F385E02D69832C
:101C90007A8309956981462E7A81572E640C751CCA
:101CA000D601ED91FC91461457046CF40088F1893B
:101CB000E02D87019401A501B201C6010995BFEF8E
:101CC0004B1A5B0AEDCF0688F789E02DC6010F900D
:101CD0000F90DF91CF911F910F91FF90EF90DF90C8
:101CE000CF90BF90AF909F908F907F906F905F90BC
:101CF0004F900994AF92BF92CF92DF92EF92FF92F2
:101D00000F931F93CF93DF9300D000D0CDB7DEB7F2
:101D10005C016901DC01ED91FC910284F385E02D09
:101D20004B835C8369837A830995D501ED91FC919E
:101D300069817A819B012C0D3D1D21503109048858
:101D4000F589E02D78014B815C818A01C5010995F7
:101D5000D501ED91FC910688F789E02DC5010F9022
:101D60000F900F900F90DF91CF911F910F91FF90E7
:101D7000EF90DF90CF90BF90AF900994AF92BF9259
:101D8000CF92DF92EF92FF920F931F93CF93DF9347
:101D900000D000D0CDB7DEB75C016901DC01ED9168
:101DA000FC910284F385E02D4B835C8369837A8305
:101DB0000995D501ED91FC914B815C81C40ED51E36
:101DC000B1E0CB1AD1080488F589E02D78018601AD
:101DD00069817A819B01C5010995D501ED91FC913D
:101DE0000688F789E02DC5010F900F900F900F9096
:101DF000DF91CF911F910F91FF90EF90DF90CF90E7
:101E0000BF90AF9009940895EF92FF920F931F93A4
:101E1000DC01ED91FC9100A0F1A1E02D09951F914D
:101E20000F91FF90EF9008950F931F93DC01ED91B8
:101E3000FC91068CF78DE02D09951F910F91089567
:101E40000F931F93DC01ED91FC91048CF58DE02D37
:101E500009951F910F910895DC01ED91FC9100848B
:101E6000F185E02D099408952F923F924F925F9251
:101E70006F927F928F929F92AF92BF92CF92DF929A
:101E8000EF92FF920F931F93CF93DF9300D01F9297
:101E9000CDB7DEB74C017B836A836A015901170114
:101EA0009801241B350B37FF03C03195219531096B
:101EB000C5014A815B81841B950B97FF03C09195F7
:101EC0008195910951E059838217930714F0198283
:101ED0000BC09A2D8B2D5801092F182F9A818B81B9
:101EE000DB82CA82C92ED82E8A819B81A816B906A8
:101EF0005CF49C2D8D2D6801092F182F9A818B8100
:101F0000BB82AA82A92EB82E2501AA81BB814A1ABA
:101F10005B0A38016C187D0877FE03C071946194E8
:101F20007108720157FE03C0BFEFEB1AFB0AF5946C
:101F3000E794C016D1061CF00FEF1FEF1FC001E0A1
:101F400010E01CC0D401ED91FC91B9810484F585A9
:101F5000E02D9101BB23C1F04A815B81B601C40130
:101F60000995E618F708F7FE04C0C00ED11EE40C70
:101F7000F51CEA81FB813196FB83EA834A815B8110
:101F8000A416B506FCF604C0A6016A817B81E7CFE2
:101F90000F900F900F90DF91CF911F910F91FF90B5
:101FA000EF90DF90CF90BF90AF909F908F907F90F9
:101FB0006F905F904F903F902F90089585ED8093A4
:101FC000BC008091BC0084FDFCCF1092F00108950C
:101FD00040919C01262F30E0240F311D2132310524
:101FE000DCF42091F0012430C9F4FC0180E090E0A1
:101FF000861758F430919C012191DC01A658BE4F00
:10200000A30FB11D2C930196F3CF80919C01680F13
:1020100060939C0180E0089581E0089582E0089536
:10202000089581E090E03091F2012091F1013217A2
:1020300010F480E090E09195819591090895809148
:10204000F2019091F101891730F48F5F8093F201D2
:1020500080E090E008958FEF9FEF08958091F10167
:1020600090E02091F201821B91090895CF92DF92B6
:10207000EF92FF920F931F93CF93DF937C01262F54
:10208000972F8A018091F701882391F0C62FD72FCF
:102090006E01C40ED51ECC15DD0571F06991D70116
:1020A000ED91FC910190F081E02DC7010995F3CFEE
:1020B000642F822F0E94E80FC801DF91CF911F91FA
:1020C0000F91FF90EF90DF90CF900895CF93DF9323
:1020D0001F92CDB7DEB769832091F7012223D1F09B
:1020E0002091F401203240F021E030E0FC01338304
:1020F000228380E090E015C08091F501E82FF0E0A8
:10210000E65AFE4F998190838F5F8093F50180930B
:10211000F40105C061E0CE0101960E94E80F81E064
:1021200090E00F90DF91CF910895089580E090E0C6
:102130000895FC01848DDF01A80FB11DA35ABF4F84
:102140002C91848D90E001968F739927848FA689B6
:10215000B7892C93A089B1898C9180648C93938DDD
:10216000848D981306C00288F389E02D80818F7DCD
:102170008083089590E0FC01E858FA4F3491FC0107
:10218000EB57F14F2491FC01EF58F14FE491EE230E
:1021900009F43BC0332339F1333091F038F4313056
:1021A000A9F0323001F584B58F7D12C0373091F03F
:1021B0003830A1F03430B9F4809180008F7D03C0B5
:1021C000809180008F77809380000DC084B58F77D9
:1021D00084BD09C08091B0008F7703C08091B000AA
:1021E0008F7D8093B000F0E0EE0FFF1FE35AF14FB8
:1021F000A591B4918FB7F894EC91611103C020952B
:102200002E2301C02E2B2C938FBF08958F929F9267
:10221000AF92BF92CF92DF92EF92FF926B017C015F
:102220000E948F074B015C01C114D104E104F10449
:10223000F1F00E948F07DC01CB0188199909AA09E6
:10224000BB09883E9340A105B10570F321E0C21A95
:10225000D108E108F10888EE880E83E0981EA11CE1
:10226000B11CC114D104E104F10419F7DDCFFF90D2
:10227000EF90DF90CF90BF90AF909F908F90089598
:102280001F920F920FB60F9211242F933F938F93AB
:102290009F93AF93BF938091E6019091E701A09146
:1022A000E801B091E9013091E50123E0230F2D37DA
:1022B00020F40196A11DB11D05C026E8230F02964A
:1022C000A11DB11D2093E5018093E6019093E701E4
:1022D000A093E801B093E9018091EA019091EB01AC
:1022E000A091EC01B091ED010196A11DB11D80936B
:1022F000EA019093EB01A093EC01B093ED01BF9143
:10230000AF919F918F913F912F910F900FBE0F90A2
:102310001F90189508958EBD00000DB407FEFDCFE7
:102320008EB508958CBD9DBD08951F920F920FB676
:102330000F9211242F933F934F935F936F937F934B
:102340008F939F93AF93BF93EF93FF938091B900C7
:10235000887F803609F49CC068F5883209F45BC038
:1023600090F4803109F454C038F4882309F4F6C09D
:10237000883009F44DC0F6C0883109F44CC0803271
:1023800009F45DC0EFC0803409F468C048F48033BC
:1023900009F455C0883309F0E5C08093C101D8C065
:1023A000803509F44FC0883509F45DC0883409F0E0
:1023B000D9C0D6C0883909F4C7C0A8F4883709F451
:1023C00067C038F4883609F463C0803709F460C008
:1023D000C9C0883809F4B8C0803909F45FC08038B2
:1023E00009F0C0C05BC0803B09F486C038F4803A75
:1023F00009F466C0883A09F47FC0B4C0803C09F48F
:10240000A7C0883C09F4A4C0883B09F48AC0AAC0CC
:102410008091E40110C09091E3018091E20198174E
:1024200070F5E091E30181E08E0F8093E301F0E02D
:10243000EE53FE4F80818093BB0085EC86C0809375
:10244000C1018EC0E091E30181E08E0F8093E30132
:102450008091BB00F0E0EE53FE4F80839091E3014A
:102460008091E2016EC0E091E30181E08E0F8093E4
:10247000E3018091BB00F0E0EE53FE4F808380913A
:10248000EF0181116DC081E08093EE0184EA61C0AB
:1024900083E08093F0011092C001CFCF8091C00102
:1024A000803208F051C0E091C00181E08E0F80932E
:1024B000C0018091BB00F0E0E056FE4F8083BDCFAD
:1024C00085EC8093BC001092F0018091C0018032B5
:1024D00030F4E091C001F0E0E056FE4F10826091D0
:1024E000C00170E0E0919E01F0919F0180EA91E0CF
:1024F00009951092C00136C084E08093F0011092DB
:102500009D0110929C01E0919A01F0919B01099527
:1025100080919C01811105C081E080939C01109203
:102520007A01E0919D0181E08E0F80939D01F0E0A2
:10253000E658FE4F80818093BB0090919D01809171
:102540009C01981708F479CF85E88093BC000AC0F5
:1025500085EC8093BC001092F00104C01092C10180
:102560000E94DE0FFF91EF91BF91AF919F918F91EC
:102570007F916F915F914F913F912F910F900FBE7F
:102580000F901F9018959B01AC0160E074E284EFFE
:1025900090E00E94141BDA01C9014097A109B1091A
:1025A000B695A795979587958093B8000895209143
:1025B000F4019091F601213208F04AC08091F001B7
:1025C0008111FCCF32E03093F00131E03093EF0124
:1025D0003FEF3093C1011092E3012093E201AAE59D
:1025E000B1E042EC51E0FA013E2F341B321718F4EF
:1025F0003D913193F9CF1092E4012091E401990FBC
:10260000922B9093E4019091EE01913061F410923D
:10261000EE019091E4019093BB009091BC0093FD7A
:10262000F8CF95EC01C095EE9093BC009091F0012D
:102630009230E1F39091C1019F3F79F08091C10107
:10264000803241F08091C101803331F084E005C0D7
:1026500081E003C082E001C083E01092F501109296
:10266000F4011092F70108951F93CF93DF93FC01BB
:10267000858D968D009729F1162FEF0121A131E06C
:102680003093F7012093F6011092F5011092F401B6
:10269000DC01ED91FC910190F081E02D60E0099565
:1026A0008D8D9E8DDC01ED91FC910190F081E02DEE
:1026B000612F09958D8D9E8DDF91CF911F910C9487
:1026C000D712A5A5B6A59C9183A9809589238C9343
:1026D000838D948D892B31F0862FDF91CF911F91BF
:1026E0000C948B1128E030E080E8A1A5B2A591A957
:1026F000482F462319F04C91942B03C04C91909590
:1027000094239C93A3A5B4A54C9192A9942B9C933C
:10271000A3A5B4A54C9192A9909594239C938695DA
:102720002150310911F7DF91CF911F9108951F9327
:10273000CF93DF93EC01162F8D8D9E8D892B39F071
:102740006DA97EA98FA998AD0E94C3120FC08B8D71
:102750009C8D892B21F08EAD9FAD0E949211EFA52B
:10276000F8A990818CA9809589238083111102C0DA
:1027700066EA01C067EACE010E9434138D8D9E8DFA
:10278000892B49F069AD7AAD8BAD9CADDF91CF91CE
:102790001F910C94C312EFA5F8A990818CA9892BE5
:1027A0008083DF91CF911F910895CF92DF92EF92B6
:1027B000FF920F931F93CF93DF936C017A018B01EC
:1027C000C0E0D0E0CE15DF0589F0D8016D918D0114
:1027D000D601ED91FC910190F081E02DC6010995A3
:1027E000892B11F47E0102C02196ECCFC701DF9145
:1027F000CF911F910F91FF90EF90DF90CF900895B0
:10280000FC01538D448D252F30E0842F90E0821BF6
:10281000930B541710F0CF96089501970895FC017B
:10282000918D828D981761F0828DDF01A80FB11D07
:102830005D968C91928D9F5F9F73928F90E008952B
:102840008FEF9FEF0895FC01918D828D981731F0E5
:10285000828DE80FF11D858D90E008958FEF9FEF39
:1028600008950E94691C88EF91E00E94790721E099
:10287000892B09F420E0822F0895EF92FF920F93A5
:102880001F93CF93DF93EC0181E0888F9B8D8C8D1C
:10289000981305C0E889F989808185FD24C0F62E4A
:1028A0000B8D10E00F5F1F4F0F731127E02E8C8DE3
:1028B000E8120CC00FB607FCFACFE889F9898081CD
:1028C00085FFF5CFCE010E949910F1CF8B8DFE01CF
:1028D000E80FF11DE35AFF4FF0820B8FEA89FB8965
:1028E0008081806207C0EE89FF896083E889F98969
:1028F00080818064808381E090E0DF91CF911F919F
:102900000F91FF90EF900895CF93DF93EC01888DA6
:102910008823C9F0EA89FB89808185FD05C0A889E3
:10292000B9898C9186FD0FC00FB607FCF5CF808169
:1029300085FFF2CFA889B9898C9185FFEDCFCE01B3
:102940000E949910E7CFDF91CF9108951F920F92C7
:102950000FB60F9211242F933F934F935F936F9372
:102960007F938F939F93AF93BF93EF93FF9388EFE2
:1029700091E00E949910FF91EF91BF91AF919F91CB
:102980008F917F916F915F914F913F912F910F9018
:102990000FBE0F901F9018951F920F920FB60F92B7
:1029A00011242F938F939F93EF93FF93E09108024D
:1029B000F09109028081E0910E02F0910F0282FDF8
:1029C00012C09081809111028F5F8F73209112024B
:1029D000821751F0E0911102F0E0E850FE4F958F20
:1029E0008093110201C08081FF91EF919F918F919F
:1029F0002F910F900FBE0F901F901895EF92FF929E
:102A00000F931F93CF93DF93C82FF92ED62F80916A
:102A1000BE029091BF02009709F45AC02091C202F1
:102A200031E03093F7012093F6011092F5011092F6
:102A3000F401DC01ED91FC910190F081E02D60E06A
:102A400009950C2F1F2DEE24E394F12CCD0FD1E02E
:102A50008091BE029091BF02C01791F1B0E2EB16D7
:102A6000F104D8F00E94D7128091C202D093F701EE
:102A70008093F6011092F5011092F4018091BE024C
:102A80009091BF02DC01ED91FC910190F081E02D6D
:102A900060E00995EE24E394F12C8091BE029091C0
:102AA000BF02F8016491DC01ED91FC910190F0818D
:102AB000E02D0995BFEFEB1AFB0A0F5F1F4FC8CF40
:102AC000DF91CF911F910F91FF90EF900C94D7124F
:102AD000E091CE02F091CF0220818091D4028095C6
:102AE000822380830C2F1F2DC60FC017C1F1F80160
:102AF00084912091BC023091BD02232B19F00E94D9
:102B00008B112AC028E030E040E8E091CA02F09141
:102B1000CB029091D202542F582319F05081952B5B
:102B200003C05081909595239083E091CC02F09161
:102B3000CD0250819091D302952B9083E091CC02ED
:102B4000F091CD0250819091D3029095952390837E
:102B5000469521503109C9F60F5F1F4FC6CFDF914F
:102B6000CF911F910F91FF90EF9008953F924F9258
:102B70005F926F927F928F929F92AF92BF92CF920D
:102B8000DF92EF92FF920F931F93CF93DF93CDB716
:102B9000DEB728970FB6F894DEBF0FBECDBF6C012D
:102BA0007E836D832A013901DC01ED91FC91028461
:102BB000F385E02D0995C801079697FD0796FC015E
:102BC00093E0F595E7959A95E1F7FA83E983812CEF
:102BD000912CA12CB12C312CC501840D951D9C8309
:102BE0008B83AE14BF040CF03FC018861F82EF81A8
:102BF000F885E017F10784F58F819885877099270C
:102C0000892B11F0330C0EC0EF81F885F7FD379654
:102C100083E0F595E7958A95E1F7E80DF91DE60D56
:102C2000F71D349037FE12C0D601ED91FC9104845B
:102C3000F585E02D21E030E04B815C816D817E8166
:102C40008F819885680F791FC6010995AF81B88576
:102C50001196B887AF83CBCFFFEFAF1ABF0A298198
:102C60003A81820E931EB8CFD601ED91FC91068871
:102C7000F789E02DC60128960FB6F894DEBF0FBE87
:102C8000CDBFDF91CF911F910F91FF90EF90DF901B
:102C9000CF90BF90AF909F908F907F906F905F90FC
:102CA0004F903F9009942091A7023091A802C9014A
:102CB000079697FD079623E0959587952A95E1F766
:102CC0002091A5023091A602829FA001839F500D02
:102CD000929F500D112460E070E08091C0029091AD
:102CE000C1020C946E1C90E0FC01EB57F14F249153
:102CF000FC01EF58F14F8491882399F090E0880F00
:102D0000991FFC01E959F14FA591B491FC01E35AD7
:102D1000F14F859194918FB7F894EC91E22BEC935D
:102D20008FBF08958EE291E09093A2028093A1025A
:102D30008091C0029091C102009711F00C94D11BB8
:102D40000895789484B5826084BD84B5816084BD23
:102D500085B5826085BD85B5816085BD80916E0039
:102D6000816080936E00109281008091810082606A
:102D700080938100809181008160809381008091A7
:102D800080008160809380008091B1008460809396
:102D9000B1008091B00081608093B00080917A0092
:102DA000846080937A0080917A00826080937A00B8
:102DB00080917A00816080937A0080917A008068A7
:102DC00080937A001092C100E0910802F09109020C
:102DD00082E08083E0910402F09105021082E0918C
:102DE0000602F09107028FEC808310921002E091AE
:102DF0000C02F0910D0286E08083E0910A02F091CE
:102E00000B02808180618083E0910A02F0910B02C5
:102E1000808188608083E0910A02F0910B028081BA
:102E200080688083E0910A02F0910B0280818F7D9F
:102E300080838091C0029091C102892B09F03FC02C
:102E40002091A7023091A802C901079697FD079625
:102E500023E0959587952A95E1F72091A502309179
:102E6000A602AC01429FC001439F900D529F900D5E
:102E700011240E943C1B9093C1028093C002892BB5
:102E8000F1F4C3E4DEE0FE016491611109C042E0A7
:102E900050E066E571E088EF91E00E94D5130EC026
:102EA000E091F801F091F9010190F081E02D88EFB7
:102EB00091E009952196892B31F7E9CFFFCF0E9448
:102EC00053168091A7029091A8026091A50270917B
:102ED000A60281329105CCF0AC014054510957FF54
:102EE00002C04F5F5F4F559547956255710977FF57
:102EF00002C06F5F7F4F7595679500E4E02EF12C5F
:102F000002E510E02EE737E018C0AC01405251094D
:102F100057FF02C04F5F5F4F559547956357710943
:102F200077FF02C06F5F7F4F75956795C0E2EC2E0B
:102F3000F12C03E710E02EE935E081EA92E00E94EF
:102F4000B61582E08093C3028091BE029091BF02C9
:102F5000892B59F18CE38093C2021092F2011092F6
:102F6000F1011092F5011092F4011092F00181E04C
:102F70008093EF011092EE0161E082E10E94BA10AD
:102F800061E083E10E94BA108091B9008E7F809346
:102F9000B9008091B9008D7F8093B90088E4809357
:102FA000B80085E48093BC00B6C08091C7020E943F
:102FB00073168091C8020E9473168091C702082E72
:102FC000000C990BFC01EF58F14FE491F0E0EE0F8B
:102FD000FF1FE35AF14F259134913093CF02209394
:102FE000CE02FC01EB57F14FE491E093D4028091C3
:102FF000C802082E000C990BFC01EF58F14FE49128
:10300000F0E0EE0FFF1FE35AF14FA591B491B0939A
:10301000D102A093D002FC01EB57F14FE491E09371
:10302000D5028C91E82BEC938091BC029091BD026B
:10303000892B89F1CFB7F8948091F301811124C0D5
:10304000EBE7FEE08491EFE8FEE09491E82FF0E0FA
:10305000EE0FFF1FE959F14FA591B491EC91E923CF
:1030600021F461E08AE00E94BA108AE00E9473169F
:103070008CB580618CBD8CB580648CBD8DE00E9468
:1030800073168BE00E9473168091F3018F5F80931B
:10309000F301CFBF40C08091C5020E94731680919A
:1030A000C6020E9473168091C502082E000C990B6F
:1030B000FC01EF58F14FE491F0E0EE0FFF1FE35AEF
:1030C000F14F259134913093CB022093CA02FC0139
:1030D000EB57F14FE491E093D2028091C602082EA3
:1030E000000C990BFC01EF58F14FE491F0E0EE0F6A
:1030F000FF1FE35AF14FA591B491B093CD02A09375
:10310000CC02FC01EB57F14FE491E093D3028C9198
:10311000E095E823EC938091C90287FD1DC00E94D1
:10312000731661E08091C9020E94BA1061E070E0FC
:1031300080E090E00E94061160E08091C9020E9448
:10314000BA106AE070E080E090E00E94061161E051
:103150008091C9020E94BA108091BE029091BF0274
:10316000892B59F06091D6027091D7028091D802D4
:103170009091D9020E94C31216C08091BC02909116
:10318000BD02892B31F08091DF029091E0020E9414
:103190009211E091D002F091D10290818091D502FC
:1031A00080958923808364E08AE995E00E94FE147B
:1031B0006091A702615081EA92E00E94341364E0BA
:1031C00086E995E00E94FE148091C302813011F0DF
:1031D00064E101C060E181EA92E00E94341364E09E
:1031E00082E995E00E94FE148FE88093DE028091D0
:1031F000A5029091A6028038910591F48091A702D2
:103200009091A80280349105E9F48091C302813045
:1032100011F08FEC01C08FE98093DE02C2E113C090
:103220008036910579F48091A7029091A802409789
:1032300049F48091C302813011F08FEA01C080E12E
:103240008093DE02C2E06AED81EA92E00E943413CC
:103250006C2F81EA92E00E94341361E881EA92E0E7
:103260000E9434136091DE0281EA92E00E943413DE
:1032700069ED81EA92E00E9434138091C3028130AB
:1032800011F061EF01C062E281EA92E00E94341322
:1032900066E08CE895E00E94FE148091BE02909159
:1032A000BF02892B59F06091DA027091DB028091A4
:1032B000DC029091DD020E94C31211C0E091D002A5
:1032C000F091D10290818091D502892B80838091E9
:1032D000BC029091BD02892B11F00E948A110E94BC
:1032E000531680E4E82EF12C00E810E023E43AE0E5
:1032F00040E050E060E070E081EA92E00E94B615A4
:103300008091BE029091BF02892B59F06091D60244
:103310007091D7028091D8029091D9020E94C31275
:1033200016C08091BC029091BD02892B31F0809132
:10333000DF029091E0020E949211E091D002F091A0
:10334000D10290818091D50280958923808365E0A8
:103350008EE39AE00E94FE146091A502615081EA1A
:1033600092E00E9434132091A7023091A802C90173
:10337000079697FD079633E0959587953A95E1F77F
:103380002091A5023091A602829F8001839F100D9B
:10339000929F100D1124C091C002D091C102809162
:1033A000BE029091BF020C0F1D1F009709F451C07F
:1033B0002091C20231E03093F7012093F601109280
:1033C000F5011092F401DC01ED91FC910190F08186
:1033D000E02D60E40995EE24E394F12CDD24D394F0
:1033E0008091BE029091BF02C017D10779F1B0E27F
:1033F000EB16F104D8F00E94D7128091C202D0924D
:10340000F7018093F6011092F5011092F40180917A
:10341000BE029091BF02DC01ED91FC910190F08120
:10342000E02D60E40995EE24E394F12C8091BE0236
:103430009091BF026991DC01ED91FC910190F081C6
:10344000E02D0995BFEFEB1AFB0ACACF0E94D712F5
:1034500041C0E091CE02F091CF0290818091D402E0
:10346000892B8083C017D107A9F189912091BC02D3
:103470003091BD02232B19F00E948B11F3CF28E06D
:1034800030E040E8E091CA02F091CB029091D20284
:10349000542F582319F05081952B03C050819095DB
:1034A00095239083E091CC02F091CD0250819091D0
:1034B000D302952B9083E091CC02F091CD02508104
:1034C0009091D30290959523908346952150310990
:1034D000C9F6C8CF8091BE029091BF02892B59F0E6
:1034E0006091DA027091DB028091DC029091DD0242
:1034F0000E94C31211C0E091D002F091D1029081DC
:103500008091D502892B80838091BC029091BD026D
:10351000892B11F00E948A110E948507FDCFE8EFE8
:10352000F1E01382128248EE53E060E070E04483E1
:103530005583668377838AE091E09183808385EC6D
:1035400090E09587848784EC90E09787868780EC6D
:1035500090E0918B808B81EC90E0938B828B82EC5E
:1035600090E0958B848B86EC90E0978B868B118E08
:10357000128E138E148EA5E9B2E013961C921E9241
:10358000129714964D935D936D937C9317978CE1EE
:1035900091E011969C938E93E1EAF2E013821282FD
:1035A00020E830E03583248380E490E097838683AD
:1035B0003187208793878287168A15861486178617
:1035C000168681E0858B848B2FEF3FEF338B228B28
:1035D000318B208B878B108E128E118E8EE291E0B4
:1035E00091838083148E138EB68FA58F10A2178EB1
:1035F0008FEF84A385A386A387A380A780E89AE1A1
:10360000A6E0B0E085AB96ABA7ABB0AF80EA96E89A
:10361000A1E0B0E081AF92AFA3AFB4AF80E58093FB
:10362000DF021092E0020895A1E21A2EAA1BBB1B32
:10363000FD010DC0AA1FBB1FEE1FFF1FA217B3077E
:10364000E407F50720F0A21BB30BE40BF50B661F94
:10365000771F881F991F1A9469F760957095809558
:1036600090959B01AC01BD01CF010895EE0FFF1FA6
:103670000590F491E02D0994CF93DF93823091056A
:1036800010F482E090E0E091E302F091E40220E0A7
:1036900030E0C0E0D0E0309711F14081518148170F
:1036A0005907C0F04817590761F482819381209728
:1036B00019F09B838A832BC09093E4028093E302EA
:1036C00026C02115310519F04217530718F49A0145
:1036D000BE01DF01EF010280F381E02DDCCF211577
:1036E000310509F1281B390B2430310590F412966D
:1036F0008D919C9113976115710521F0FB019383C6
:10370000828304C09093E4028093E302FD01329629
:1037100044C0FD01E20FF31F8193919322503109C0
:103720002D933C933AC02091E1023091E202232B89
:1037300041F420910201309103013093E202209381
:10374000E10220910001309101012115310541F480
:103750002DB73EB74091040150910501241B350B54
:10376000E091E102F091E202E217F307A0F42E1BD0
:103770003F0B2817390778F0AC014E5F5F4F2417D5
:10378000350748F04E0F5F1F5093E2024093E1026D
:103790008193919302C0E0E0F0E0CF01DF91CF91FF
:1037A00008950F931F93CF93DF93009709F48CC074
:1037B000FC013297138212820091E3021091E4021D
:1037C0000115110581F420813181820F931F209111
:1037D000E1023091E2022817390779F5F093E2020D
:1037E000E093E10271C0D80140E050E0AE17BF079E
:1037F00050F412962D913C911397AD01211531058E
:1038000009F1D901F3CF9D01DA013383228360816D
:103810007181860F971F8217930769F4EC01288145
:103820003981260F371F2E5F3F4F318320838A81D6
:103830009B8193838283452B29F4F093E402E093E8
:10384000E30242C01396FC93EE931297ED01499167
:1038500059919E01240F351FE217F30771F48081FF
:103860009181840F951F029611969C938E9382816D
:10387000938113969C938E931297E0E0F0E0D80129
:1038800012968D919C911397009719F0F8018C0175
:10389000F6CF8D919C9198012E5F3F4F820F931F21
:1038A0002091E1023091E2022817390769F430973C
:1038B00029F41092E4021092E30202C013821282F1
:1038C0001093E2020093E102DF91CF911F910F91DB
:1038D000089581E090E0F8940C94751CDC0101C01F
:1038E0006D9341505040E0F7089517E0CEE4D7E0E3
:1038F00004C0FE010E94361B2196CF34D107C9F7C0
:04390000F894FFCF69
:103904000000E5028000000000003D14D5130014FF
:10391400841479070F142314000000006610361075
:10392400961010102E101F101110000000005E0CD5
:10393400D513961095105E09330F2C0F040F200F2A
:10394400140F340F030F1C0A9713CF0813092A0E00
:0A3954000C0E950D360D0D0A000053
:00000001FF
